{
  "_format": "hh-sol-artifact-1",
  "contractName": "Credits",
  "sourceName": "contracts/Credits.sol",
  "abi": [
    {
      "inputs": [],
      "stateMutability": "nonpayable",
      "type": "constructor"
    },
    {
      "anonymous": false,
      "inputs": [
        {
          "indexed": true,
          "internalType": "address",
          "name": "tokenOwner",
          "type": "address"
        },
        {
          "indexed": true,
          "internalType": "address",
          "name": "spender",
          "type": "address"
        },
        {
          "indexed": false,
          "internalType": "uint256",
          "name": "tokens",
          "type": "uint256"
        }
      ],
      "name": "Approval",
      "type": "event"
    },
    {
      "anonymous": false,
      "inputs": [
        {
          "indexed": true,
          "internalType": "address",
          "name": "promoter",
          "type": "address"
        },
        {
          "indexed": true,
          "internalType": "address",
          "name": "newCoOwner",
          "type": "address"
        }
      ],
      "name": "NewCoOwner",
      "type": "event"
    },
    {
      "anonymous": false,
      "inputs": [
        {
          "indexed": true,
          "internalType": "address",
          "name": "from",
          "type": "address"
        },
        {
          "indexed": true,
          "internalType": "address",
          "name": "to",
          "type": "address"
        }
      ],
      "name": "OwnershipTransferred",
      "type": "event"
    },
    {
      "anonymous": false,
      "inputs": [
        {
          "indexed": true,
          "internalType": "address",
          "name": "revoker",
          "type": "address"
        },
        {
          "indexed": true,
          "internalType": "address",
          "name": "revokedCoOwner",
          "type": "address"
        }
      ],
      "name": "RevokedCoOwner",
      "type": "event"
    },
    {
      "anonymous": false,
      "inputs": [
        {
          "indexed": true,
          "internalType": "address",
          "name": "from",
          "type": "address"
        },
        {
          "indexed": true,
          "internalType": "address",
          "name": "to",
          "type": "address"
        },
        {
          "indexed": false,
          "internalType": "uint256",
          "name": "tokens",
          "type": "uint256"
        }
      ],
      "name": "Transfer",
      "type": "event"
    },
    {
      "anonymous": false,
      "inputs": [
        {
          "indexed": false,
          "internalType": "uint256",
          "name": "totalSupply",
          "type": "uint256"
        },
        {
          "indexed": false,
          "internalType": "uint256",
          "name": "amountDeleted",
          "type": "uint256"
        }
      ],
      "name": "deletedCredits",
      "type": "event"
    },
    {
      "anonymous": false,
      "inputs": [
        {
          "indexed": false,
          "internalType": "uint256",
          "name": "totalSupply",
          "type": "uint256"
        },
        {
          "indexed": false,
          "internalType": "address",
          "name": "generatedTo",
          "type": "address"
        },
        {
          "indexed": false,
          "internalType": "uint256",
          "name": "amountGenerated",
          "type": "uint256"
        }
      ],
      "name": "generatedCredits",
      "type": "event"
    },
    {
      "inputs": [
        {
          "internalType": "address",
          "name": "_user",
          "type": "address"
        }
      ],
      "name": "addCoOwner",
      "outputs": [],
      "stateMutability": "nonpayable",
      "type": "function"
    },
    {
      "inputs": [
        {
          "internalType": "address",
          "name": "_spender",
          "type": "address"
        },
        {
          "internalType": "uint256",
          "name": "_amount",
          "type": "uint256"
        }
      ],
      "name": "approve",
      "outputs": [
        {
          "internalType": "bool",
          "name": "success",
          "type": "bool"
        }
      ],
      "stateMutability": "nonpayable",
      "type": "function"
    },
    {
      "inputs": [
        {
          "internalType": "address",
          "name": "tokenOwner",
          "type": "address"
        }
      ],
      "name": "balanceOf",
      "outputs": [
        {
          "internalType": "uint256",
          "name": "creditBalance",
          "type": "uint256"
        }
      ],
      "stateMutability": "view",
      "type": "function"
    },
    {
      "inputs": [
        {
          "internalType": "address",
          "name": "_approver",
          "type": "address"
        },
        {
          "internalType": "address",
          "name": "_approvee",
          "type": "address"
        },
        {
          "internalType": "uint256",
          "name": "_amount",
          "type": "uint256"
        }
      ],
      "name": "contractApprove",
      "outputs": [
        {
          "internalType": "bool",
          "name": "success",
          "type": "bool"
        }
      ],
      "stateMutability": "nonpayable",
      "type": "function"
    },
    {
      "inputs": [],
      "name": "creditsContract",
      "outputs": [
        {
          "internalType": "address",
          "name": "",
          "type": "address"
        }
      ],
      "stateMutability": "view",
      "type": "function"
    },
    {
      "inputs": [],
      "name": "decimals",
      "outputs": [
        {
          "internalType": "uint8",
          "name": "",
          "type": "uint8"
        }
      ],
      "stateMutability": "view",
      "type": "function"
    },
    {
      "inputs": [
        {
          "internalType": "uint256",
          "name": "_amount",
          "type": "uint256"
        }
      ],
      "name": "deleteCredits",
      "outputs": [
        {
          "internalType": "bool",
          "name": "success",
          "type": "bool"
        }
      ],
      "stateMutability": "nonpayable",
      "type": "function"
    },
    {
      "inputs": [
        {
          "internalType": "uint256",
          "name": "_amount",
          "type": "uint256"
        }
      ],
      "name": "generateCredits",
      "outputs": [
        {
          "internalType": "bool",
          "name": "success",
          "type": "bool"
        }
      ],
      "stateMutability": "nonpayable",
      "type": "function"
    },
    {
      "inputs": [
        {
          "internalType": "address",
          "name": "_address",
          "type": "address"
        }
      ],
      "name": "giveContractAccess",
      "outputs": [
        {
          "internalType": "bool",
          "name": "success",
          "type": "bool"
        },
        {
          "internalType": "bool",
          "name": "updatedStatus",
          "type": "bool"
        }
      ],
      "stateMutability": "nonpayable",
      "type": "function"
    },
    {
      "inputs": [],
      "name": "initialCreditsSupply",
      "outputs": [
        {
          "internalType": "uint256",
          "name": "",
          "type": "uint256"
        }
      ],
      "stateMutability": "view",
      "type": "function"
    },
    {
      "inputs": [],
      "name": "isPaused",
      "outputs": [
        {
          "internalType": "bool",
          "name": "",
          "type": "bool"
        }
      ],
      "stateMutability": "view",
      "type": "function"
    },
    {
      "inputs": [],
      "name": "name",
      "outputs": [
        {
          "internalType": "string",
          "name": "",
          "type": "string"
        }
      ],
      "stateMutability": "view",
      "type": "function"
    },
    {
      "inputs": [],
      "name": "owner",
      "outputs": [
        {
          "internalType": "address",
          "name": "",
          "type": "address"
        }
      ],
      "stateMutability": "view",
      "type": "function"
    },
    {
      "inputs": [],
      "name": "pauseContract",
      "outputs": [],
      "stateMutability": "nonpayable",
      "type": "function"
    },
    {
      "inputs": [],
      "name": "remainingUnheldCredits",
      "outputs": [
        {
          "internalType": "uint256",
          "name": "",
          "type": "uint256"
        }
      ],
      "stateMutability": "view",
      "type": "function"
    },
    {
      "inputs": [],
      "name": "resumeContract",
      "outputs": [],
      "stateMutability": "nonpayable",
      "type": "function"
    },
    {
      "inputs": [
        {
          "internalType": "address",
          "name": "_user",
          "type": "address"
        }
      ],
      "name": "revokeCoOwner",
      "outputs": [],
      "stateMutability": "nonpayable",
      "type": "function"
    },
    {
      "inputs": [],
      "name": "symbol",
      "outputs": [
        {
          "internalType": "string",
          "name": "",
          "type": "string"
        }
      ],
      "stateMutability": "view",
      "type": "function"
    },
    {
      "inputs": [],
      "name": "totalCreditsHeld",
      "outputs": [
        {
          "internalType": "uint256",
          "name": "",
          "type": "uint256"
        }
      ],
      "stateMutability": "view",
      "type": "function"
    },
    {
      "inputs": [],
      "name": "totalSupply",
      "outputs": [
        {
          "internalType": "uint256",
          "name": "totalSupply_includingDecimals",
          "type": "uint256"
        },
        {
          "internalType": "uint256",
          "name": "totalSupply_excludingDecimals",
          "type": "uint256"
        }
      ],
      "stateMutability": "view",
      "type": "function"
    },
    {
      "inputs": [
        {
          "internalType": "address",
          "name": "_to",
          "type": "address"
        },
        {
          "internalType": "uint256",
          "name": "_amount",
          "type": "uint256"
        }
      ],
      "name": "transfer",
      "outputs": [
        {
          "internalType": "bool",
          "name": "success",
          "type": "bool"
        }
      ],
      "stateMutability": "nonpayable",
      "type": "function"
    },
    {
      "inputs": [
        {
          "internalType": "address",
          "name": "_from",
          "type": "address"
        },
        {
          "internalType": "address",
          "name": "_to",
          "type": "address"
        },
        {
          "internalType": "uint256",
          "name": "_amount",
          "type": "uint256"
        }
      ],
      "name": "transferFrom",
      "outputs": [
        {
          "internalType": "bool",
          "name": "success",
          "type": "bool"
        }
      ],
      "stateMutability": "nonpayable",
      "type": "function"
    },
    {
      "inputs": [
        {
          "internalType": "address",
          "name": "_newOwner",
          "type": "address"
        }
      ],
      "name": "transferOwnership",
      "outputs": [],
      "stateMutability": "nonpayable",
      "type": "function"
    },
    {
      "inputs": [
        {
          "internalType": "address",
          "name": "tokenOwner",
          "type": "address"
        },
        {
          "internalType": "address",
          "name": "spender",
          "type": "address"
        }
      ],
      "name": "viewAllowance",
      "outputs": [
        {
          "internalType": "uint256",
          "name": "remaining",
          "type": "uint256"
        }
      ],
      "stateMutability": "view",
      "type": "function"
    },
    {
      "stateMutability": "payable",
      "type": "receive"
    }
  ],
  "bytecode": "0x60c060405260076080819052664372656469747360c81b60a09081526200002891908162000127565b5060408051808201909152600580825264435244545360d81b6020909201918252620000579160089162000127565b5060098054601260ff19909116179081905560ff16600a90810a6301312d000290553480156200008657600080fd5b50336000818152600160208190526040808320805462ff00001960ff1990911684178116620100009081179092556006805460ff60a01b196001600160a01b0319918216909817979097169055600e805490961630178087556001600160a01b03908116865283862080549092169092179055600a54600b819055600c859055855482168552828520840155935490931682529190200154600d55620001c3565b828054600181600116156101000203166002900490600052602060002090601f016020900481019282601f106200016a57805160ff19168380011785556200019a565b828001600101855582156200019a579182015b828111156200019a5782518255916020019190600101906200017d565b50620001a8929150620001ac565b5090565b5b80821115620001a85760008155600101620001ad565b61197180620001d36000396000f3fe60806040526004361061014f5760003560e01c8063783ce383116100b6578063c4bc5da51161006f578063c4bc5da514610514578063d479142114610529578063f2e872a31461055c578063f2fde38b14610586578063f435205d146105b9578063f979940d146105ce57610159565b8063783ce383146104445780638da5cb5b1461045957806395d89b411461046e578063a0477afb14610483578063a9059cbb146104c6578063b187bd26146104ff57610159565b80634393f6b7116101085780634393f6b714610302578063439766ce146103505780634c7e34cc146103675780634ca6299314610391578063563a4024146103de57806370a082311461041157610159565b80630642bc411461015e57806306fdde031461018f578063095ea7b31461021957806318160ddd1461026657806323b872dd14610294578063313ce567146102d757610159565b3661015957600080fd5b600080fd5b34801561016a57600080fd5b506101736105e3565b604080516001600160a01b039092168252519081900360200190f35b34801561019b57600080fd5b506101a46105f2565b6040805160208082528351818301528351919283929083019185019080838360005b838110156101de5781810151838201526020016101c6565b50505050905090810190601f16801561020b5780820380516001836020036101000a031916815260200191505b509250505060405180910390f35b34801561022557600080fd5b506102526004803603604081101561023c57600080fd5b506001600160a01b038135169060200135610688565b604080519115158252519081900360200190f35b34801561027257600080fd5b5061027b6106ed565b6040805192835260208301919091528051918290030190f35b3480156102a057600080fd5b50610252600480360360608110156102b757600080fd5b506001600160a01b03813581169160208101359091169060400135610711565b3480156102e357600080fd5b506102ec6108e2565b6040805160ff9092168252519081900360200190f35b34801561030e57600080fd5b506103356004803603602081101561032557600080fd5b50356001600160a01b03166108eb565b60408051921515835290151560208301528051918290030190f35b34801561035c57600080fd5b506103656109c9565b005b34801561037357600080fd5b506102526004803603602081101561038a57600080fd5b5035610a80565b34801561039d57600080fd5b506103cc600480360360408110156103b457600080fd5b506001600160a01b0381358116916020013516610bbb565b60408051918252519081900360200190f35b3480156103ea57600080fd5b506103656004803603602081101561040157600080fd5b50356001600160a01b0316610c3c565b34801561041d57600080fd5b506103cc6004803603602081101561043457600080fd5b50356001600160a01b0316610d83565b34801561045057600080fd5b506103cc610da2565b34801561046557600080fd5b50610173610da8565b34801561047a57600080fd5b506101a4610db7565b34801561048f57600080fd5b50610252600480360360608110156104a657600080fd5b506001600160a01b03813581169160208101359091169060400135610e18565b3480156104d257600080fd5b50610252600480360360408110156104e957600080fd5b506001600160a01b038135169060200135610e85565b34801561050b57600080fd5b50610252610f49565b34801561052057600080fd5b50610365610f59565b34801561053557600080fd5b506103656004803603602081101561054c57600080fd5b50356001600160a01b0316611004565b34801561056857600080fd5b506102526004803603602081101561057f57600080fd5b5035611105565b34801561059257600080fd5b50610365600480360360208110156105a957600080fd5b50356001600160a01b0316611224565b3480156105c557600080fd5b506103cc611344565b3480156105da57600080fd5b506103cc61134a565b600e546001600160a01b031681565b60078054604080516020601f600260001961010060018816150201909516949094049384018190048102820181019092528281526060939092909183018282801561067e5780601f106106535761010080835404028352916020019161067e565b820191906000526020600020905b81548152906001019060200180831161066157829003601f168201915b5050505050905090565b600654600090600160a01b900460ff161515600114156106d95760405162461bcd60e51b81526004018080602001828103825260268152602001806118dc6026913960400191505060405180910390fd5b6106e4338484611350565b50600192915050565b600b54600954600091829161070990829060ff16600a0a6113b6565b915091509091565b600654600090600160a01b900460ff161515600114156107625760405162461bcd60e51b81526004018080602001828103825260268152602001806118dc6026913960400191505060405180910390fd5b6001600160a01b038416600090815260016020819052604090912001548211156107bd5760405162461bcd60e51b815260040180806020018281038252602b81526020018061188d602b913960400191505060405180910390fd5b3360009081526001602090815260408083206001600160a01b0388168452600401909152902054821115610838576040805162461bcd60e51b815260206004820152601e60248201527f696e73756666696369656e7420616c6c6f77616e63652c207265766572740000604482015290519081900360640190fd5b6001600160a01b03841660008181526001602081815260408084209092015433845282842094845260049094019052902054111561087557600080fd5b3360009081526001602090815260408083206001600160a01b03881684526004019091529020546108a690836113ff565b3360009081526001602090815260408083206001600160a01b03891684526004019091529020556108d8848484611441565b5060019392505050565b60095460ff1690565b336000908152600160208190526040822054829160ff9091161515146109425760405162461bcd60e51b815260040180806020018281038252603a815260200180611902603a913960400191505060405180910390fd5b6006546001600160a01b038481169116141561098f5760405162461bcd60e51b815260040180806020018281038252602e815260200180611819602e913960400191505060405180910390fd5b50506001600160a01b0381166000908152600160208190526040909120805462ff000019166201000090811791829055900460ff16915091565b3360009081526001602081905260409091205460ff16151514610a1d5760405162461bcd60e51b815260040180806020018281038252603a815260200180611902603a913960400191505060405180910390fd5b600654600160a01b900460ff16151560011415610a6b5760405162461bcd60e51b815260040180806020018281038252602381526020018061186a6023913960400191505060405180910390fd5b6006805460ff60a01b1916600160a01b179055565b33600090815260016020819052604082205460ff16151514610ad35760405162461bcd60e51b815260040180806020018281038252603a815260200180611902603a913960400191505060405180910390fd5b600e546001600160a01b031660009081526001602081905260409091200154821115610afe57600080fd5b600e546001600160a01b031660009081526001602081905260409091200154610b2790836113ff565b600e546001600160a01b031660009081526001602081905260409091200155600b54610b5390836113ff565b600b819055600e546001600160a01b031660009081526001602081815260409283902090910154600d558151928352820184905280517ff05f58153cc063e54e5286dc2b7fb3c007f046aa04454ebf6340c90cbd4a43889281900390910190a1506001919050565b600654600090600160a01b900460ff16151560011415610c0c5760405162461bcd60e51b81526004018080602001828103825260268152602001806118dc6026913960400191505060405180910390fd5b506001600160a01b0391821660009081526001602090815260408083209390941682526004909201909152205490565b3360009081526001602081905260409091205460ff16151514610c905760405162461bcd60e51b815260040180806020018281038252603a815260200180611902603a913960400191505060405180910390fd5b6001600160a01b038116600090815260016020819052604090912054610100900460ff16151514801590610ce357506001600160a01b03811660009081526001602081905260409091205460ff16151514155b610d34576040805162461bcd60e51b815260206004820152601f60248201527f4552524f523a20416c7265616479204f776e6572206f7220436f4f776e657200604482015290519081900360640190fd5b6001600160a01b038116600081815260016020526040808220805461ff0019166101001790555133917f9567d681b0fb3e97d5da2d86db4f96382314464e6c9906845540fa5ce9d171fa91a350565b6001600160a01b03166000908152600160208190526040909120015490565b600a5481565b6006546001600160a01b031681565b60088054604080516020601f600260001961010060018816150201909516949094049384018190048102820181019092528281526060939092909183018282801561067e5780601f106106535761010080835404028352916020019161067e565b33600090815260016020819052604082205462010000900460ff16151514610e7a576040805162461bcd60e51b815260206004820152601060248201526f4552524f523a204e6f2061636365737360801b604482015290519081900360640190fd5b6108d8848484611350565b600654600090600160a01b900460ff16151560011415610ed65760405162461bcd60e51b81526004018080602001828103825260268152602001806118dc6026913960400191505060405180910390fd5b3360009081526001602081905260409091200154821115610f3e576040805162461bcd60e51b815260206004820152601a60248201527f696e73756666696369656e742066756e64732c20726576657274000000000000604482015290519081900360640190fd5b6106e4338484611441565b600654600160a01b900460ff1681565b3360009081526001602081905260409091205460ff16151514610fad5760405162461bcd60e51b815260040180806020018281038252603a815260200180611902603a913960400191505060405180910390fd5b600654600160a01b900460ff16610ff55760405162461bcd60e51b81526004018080602001828103825260248152602001806118b86024913960400191505060405180910390fd5b6006805460ff60a01b19169055565b3360009081526001602081905260409091205460ff161515146110585760405162461bcd60e51b815260040180806020018281038252603a815260200180611902603a913960400191505060405180910390fd5b6001600160a01b038116600090815260016020819052604090912054610100900460ff161515146110ba5760405162461bcd60e51b81526004018080602001828103825260238152602001806118476023913960400191505060405180910390fd5b6001600160a01b038116600081815260016020526040808220805461ff00191690555133917faeee6451fd32361c6db2e9a8f5b3199033efb01b3399674bfa78c7764bb13e5b91a350565b33600090815260016020819052604082205460ff161515146111585760405162461bcd60e51b815260040180806020018281038252603a815260200180611902603a913960400191505060405180910390fd5b600e546001600160a01b03166000908152600160208190526040909120015461118190836116c2565b600e546001600160a01b031660009081526001602081905260409091200155600b546111ad90836116c2565b600b8190556006546001600160a01b0390811660009081526001602081815260409283902090910154600d55600e54825194855290921691830191909152818101849052517ff28643099acbbfb608d587e328fb2d61af52f9dfca2a1abb7b6cf2edf1a775f09181900360600190a1506001919050565b3360009081526001602081905260409091205460ff161515146112785760405162461bcd60e51b815260040180806020018281038252603a815260200180611902603a913960400191505060405180910390fd5b6001600160a01b03811660009081526001602081905260409091205460ff16151514156112e3576040805162461bcd60e51b815260206004820152601460248201527322a92927a91d1020b63932b0b23c9037bbb732b960611b604482015290519081900360640190fd5b336000818152600160208190526040808320805460ff199081169091556001600160a01b03861680855282852080549092169093179055519092917f8be0079c531659141344cd1fd0a4f28419497f9722a3daafe3b4186f6b6457e091a350565b600c5481565b600d5481565b6001600160a01b0380841660008181526001602090815260408083209487168084526004909501825291829020859055815185815291517f8c5be1e5ebec7d5bd14f71427d1e84f3dd0314c0f7b2291e5b200ac8c7c3b9259281900390910190a3505050565b60006113f883836040518060400160405280601a81526020017f536166654d6174683a206469766973696f6e206279207a65726f00000000000081525061171c565b9392505050565b60006113f883836040518060400160405280601e81526020017f536166654d6174683a207375627472616374696f6e206f766572666c6f7700008152506117be565b600654600160a01b900460ff1615156001141561148f5760405162461bcd60e51b81526004018080602001828103825260268152602001806118dc6026913960400191505060405180910390fd5b600e546001600160a01b038481169116141561154c576001600160a01b038316600090815260016020819052604090912001546114cc90826113ff565b6001600160a01b038085166000908152600160208190526040808320820194909455918516815291909120015461150390826116c2565b6001600160a01b0380841660009081526001602081905260408083208201949094556006549092168152919091200154600d819055600b54611544916116c2565b600c5561167d565b600e546001600160a01b0383811691161415611601576001600160a01b0383166000908152600160208190526040909120015461158990826113ff565b6001600160a01b03808516600090815260016020819052604080832082019490945591851681529190912001546115c090826116c2565b6001600160a01b0380841660009081526001602081905260408083208201949094556006549092168152919091200154600d819055600b54611544916113ff565b6001600160a01b0383166000908152600160208190526040909120015461162890826113ff565b6001600160a01b038085166000908152600160208190526040808320820194909455918516815291909120015461165f90826116c2565b6001600160a01b038316600090815260016020819052604090912001555b6040805182815290516001600160a01b0384169133917fddf252ad1be2c89b69c2b068fc378daa952ba7f163c4a11628f55a4df523b3ef9181900360200190a3505050565b6000828201838110156113f8576040805162461bcd60e51b815260206004820152601b60248201527f536166654d6174683a206164646974696f6e206f766572666c6f770000000000604482015290519081900360640190fd5b600081836117a85760405162461bcd60e51b81526004018080602001828103825283818151815260200191508051906020019080838360005b8381101561176d578181015183820152602001611755565b50505050905090810190601f16801561179a5780820380516001836020036101000a031916815260200191505b509250505060405180910390fd5b5060008385816117b457fe5b0495945050505050565b600081848411156118105760405162461bcd60e51b815260206004820181815283516024840152835190928392604490910191908501908083836000831561176d578181015183820152602001611755565b50505090039056fe4552524f523a20556e61626c6520746f206769766520796f757273656c6620636f6e7472616374206163636573734552524f523a20557365722063757272656e746c79206e6f74206120436f4f776e65724552524f523a20416c7265616479207061757365642066756e6374696f6e616c69747966726f6d20616464726573732068617320696e73756666696369656e742066756e64732c207265766572744552524f523a20416c726561647920726573756d65642066756e6374696f6e616c6974794552524f523a2046756e6374696f6e2069732070617573656420627920746865206f776e65724552524f523a20546869732066756e6374696f6e206973207265737472696374656420746f2074686520636f6e74726163742773206f776e6572a2646970667358221220d987a2931464eb16000de2a0c0f959fd09a5711825c00a553b549ae21f0d8e6364736f6c63430007000033",
  "linkReferences": {},
  "deployedLinkReferences": {}
}