{
  "_format": "hh-sol-artifact-1",
  "contractName": "DistributionBot",
  "sourceName": "contracts/DistributionBot.sol",
  "abi": [
    {
      "inputs": [],
      "stateMutability": "nonpayable",
      "type": "constructor"
    },
    {
      "anonymous": false,
      "inputs": [
        {
          "indexed": true,
          "internalType": "address",
          "name": "tokenOwner",
          "type": "address"
        },
        {
          "indexed": true,
          "internalType": "address",
          "name": "spender",
          "type": "address"
        },
        {
          "indexed": false,
          "internalType": "uint256",
          "name": "tokens",
          "type": "uint256"
        }
      ],
      "name": "Approval",
      "type": "event"
    },
    {
      "anonymous": false,
      "inputs": [
        {
          "indexed": true,
          "internalType": "address",
          "name": "promoter",
          "type": "address"
        },
        {
          "indexed": true,
          "internalType": "address",
          "name": "newCoOwner",
          "type": "address"
        }
      ],
      "name": "NewCoOwner",
      "type": "event"
    },
    {
      "anonymous": false,
      "inputs": [
        {
          "indexed": true,
          "internalType": "address",
          "name": "from",
          "type": "address"
        },
        {
          "indexed": true,
          "internalType": "address",
          "name": "to",
          "type": "address"
        }
      ],
      "name": "OwnershipTransferred",
      "type": "event"
    },
    {
      "anonymous": false,
      "inputs": [
        {
          "indexed": true,
          "internalType": "address",
          "name": "revoker",
          "type": "address"
        },
        {
          "indexed": true,
          "internalType": "address",
          "name": "revokedCoOwner",
          "type": "address"
        }
      ],
      "name": "RevokedCoOwner",
      "type": "event"
    },
    {
      "anonymous": false,
      "inputs": [
        {
          "indexed": true,
          "internalType": "address",
          "name": "from",
          "type": "address"
        },
        {
          "indexed": true,
          "internalType": "address",
          "name": "to",
          "type": "address"
        },
        {
          "indexed": false,
          "internalType": "uint256",
          "name": "tokens",
          "type": "uint256"
        }
      ],
      "name": "Transfer",
      "type": "event"
    },
    {
      "anonymous": false,
      "inputs": [
        {
          "indexed": false,
          "internalType": "uint256",
          "name": "totalSupply",
          "type": "uint256"
        },
        {
          "indexed": false,
          "internalType": "uint256",
          "name": "amountDeleted",
          "type": "uint256"
        }
      ],
      "name": "deletedCredits",
      "type": "event"
    },
    {
      "anonymous": false,
      "inputs": [
        {
          "indexed": true,
          "internalType": "uint256",
          "name": "totalRecipients",
          "type": "uint256"
        },
        {
          "indexed": true,
          "internalType": "uint256",
          "name": "decryptedCreditsPerPerson",
          "type": "uint256"
        }
      ],
      "name": "enigmaDecryption",
      "type": "event"
    },
    {
      "anonymous": false,
      "inputs": [
        {
          "indexed": false,
          "internalType": "uint256",
          "name": "totalSupply",
          "type": "uint256"
        },
        {
          "indexed": false,
          "internalType": "address",
          "name": "generatedTo",
          "type": "address"
        },
        {
          "indexed": false,
          "internalType": "uint256",
          "name": "amountGenerated",
          "type": "uint256"
        }
      ],
      "name": "generatedCredits",
      "type": "event"
    },
    {
      "anonymous": false,
      "inputs": [
        {
          "indexed": true,
          "internalType": "uint256",
          "name": "newFee",
          "type": "uint256"
        },
        {
          "indexed": true,
          "internalType": "uint256",
          "name": "timeUpdated",
          "type": "uint256"
        }
      ],
      "name": "newEntranceFee",
      "type": "event"
    },
    {
      "anonymous": false,
      "inputs": [
        {
          "indexed": true,
          "internalType": "address",
          "name": "userJoining",
          "type": "address"
        },
        {
          "indexed": true,
          "internalType": "uint256",
          "name": "enteranceFee",
          "type": "uint256"
        },
        {
          "indexed": true,
          "internalType": "uint256",
          "name": "joiningTime",
          "type": "uint256"
        }
      ],
      "name": "userJoiningEngima",
      "type": "event"
    },
    {
      "anonymous": false,
      "inputs": [
        {
          "indexed": true,
          "internalType": "address",
          "name": "userLeaving",
          "type": "address"
        },
        {
          "indexed": true,
          "internalType": "uint256",
          "name": "leavingTime",
          "type": "uint256"
        }
      ],
      "name": "userLeavingEngima",
      "type": "event"
    },
    {
      "inputs": [
        {
          "internalType": "address",
          "name": "_user",
          "type": "address"
        }
      ],
      "name": "addCoOwner",
      "outputs": [],
      "stateMutability": "nonpayable",
      "type": "function"
    },
    {
      "inputs": [
        {
          "internalType": "address",
          "name": "_spender",
          "type": "address"
        },
        {
          "internalType": "uint256",
          "name": "_amount",
          "type": "uint256"
        }
      ],
      "name": "approve",
      "outputs": [
        {
          "internalType": "bool",
          "name": "success",
          "type": "bool"
        }
      ],
      "stateMutability": "nonpayable",
      "type": "function"
    },
    {
      "inputs": [
        {
          "internalType": "address",
          "name": "tokenOwner",
          "type": "address"
        }
      ],
      "name": "balanceOf",
      "outputs": [
        {
          "internalType": "uint256",
          "name": "creditBalance",
          "type": "uint256"
        }
      ],
      "stateMutability": "view",
      "type": "function"
    },
    {
      "inputs": [
        {
          "internalType": "address",
          "name": "_approver",
          "type": "address"
        },
        {
          "internalType": "address",
          "name": "_approvee",
          "type": "address"
        },
        {
          "internalType": "uint256",
          "name": "_amount",
          "type": "uint256"
        }
      ],
      "name": "contractApprove",
      "outputs": [
        {
          "internalType": "bool",
          "name": "success",
          "type": "bool"
        }
      ],
      "stateMutability": "nonpayable",
      "type": "function"
    },
    {
      "inputs": [],
      "name": "creditsContract",
      "outputs": [
        {
          "internalType": "address",
          "name": "",
          "type": "address"
        }
      ],
      "stateMutability": "view",
      "type": "function"
    },
    {
      "inputs": [],
      "name": "decimals",
      "outputs": [
        {
          "internalType": "uint8",
          "name": "",
          "type": "uint8"
        }
      ],
      "stateMutability": "view",
      "type": "function"
    },
    {
      "inputs": [],
      "name": "decryptEnigma",
      "outputs": [
        {
          "internalType": "uint256",
          "name": "totalRecipients",
          "type": "uint256"
        },
        {
          "internalType": "uint256",
          "name": "decryptedCreditsPerPerson",
          "type": "uint256"
        }
      ],
      "stateMutability": "nonpayable",
      "type": "function"
    },
    {
      "inputs": [
        {
          "internalType": "uint256",
          "name": "_amount",
          "type": "uint256"
        }
      ],
      "name": "deleteCredits",
      "outputs": [
        {
          "internalType": "bool",
          "name": "success",
          "type": "bool"
        }
      ],
      "stateMutability": "nonpayable",
      "type": "function"
    },
    {
      "inputs": [],
      "name": "enterEnigma",
      "outputs": [
        {
          "internalType": "uint256",
          "name": "entranceFee",
          "type": "uint256"
        },
        {
          "internalType": "bool",
          "name": "success",
          "type": "bool"
        }
      ],
      "stateMutability": "nonpayable",
      "type": "function"
    },
    {
      "inputs": [
        {
          "internalType": "uint256",
          "name": "_amount",
          "type": "uint256"
        }
      ],
      "name": "generateCredits",
      "outputs": [
        {
          "internalType": "bool",
          "name": "success",
          "type": "bool"
        }
      ],
      "stateMutability": "nonpayable",
      "type": "function"
    },
    {
      "inputs": [
        {
          "internalType": "address",
          "name": "_address",
          "type": "address"
        }
      ],
      "name": "giveContractAccess",
      "outputs": [
        {
          "internalType": "bool",
          "name": "success",
          "type": "bool"
        },
        {
          "internalType": "bool",
          "name": "updatedStatus",
          "type": "bool"
        }
      ],
      "stateMutability": "nonpayable",
      "type": "function"
    },
    {
      "inputs": [],
      "name": "initialCreditsSupply",
      "outputs": [
        {
          "internalType": "uint256",
          "name": "",
          "type": "uint256"
        }
      ],
      "stateMutability": "view",
      "type": "function"
    },
    {
      "inputs": [],
      "name": "isPaused",
      "outputs": [
        {
          "internalType": "bool",
          "name": "",
          "type": "bool"
        }
      ],
      "stateMutability": "view",
      "type": "function"
    },
    {
      "inputs": [],
      "name": "leaveEnigma",
      "outputs": [
        {
          "internalType": "bool",
          "name": "success",
          "type": "bool"
        }
      ],
      "stateMutability": "nonpayable",
      "type": "function"
    },
    {
      "inputs": [],
      "name": "name",
      "outputs": [
        {
          "internalType": "string",
          "name": "",
          "type": "string"
        }
      ],
      "stateMutability": "view",
      "type": "function"
    },
    {
      "inputs": [],
      "name": "owner",
      "outputs": [
        {
          "internalType": "address",
          "name": "",
          "type": "address"
        }
      ],
      "stateMutability": "view",
      "type": "function"
    },
    {
      "inputs": [],
      "name": "pauseContract",
      "outputs": [],
      "stateMutability": "nonpayable",
      "type": "function"
    },
    {
      "inputs": [],
      "name": "remainingUnheldCredits",
      "outputs": [
        {
          "internalType": "uint256",
          "name": "",
          "type": "uint256"
        }
      ],
      "stateMutability": "view",
      "type": "function"
    },
    {
      "inputs": [],
      "name": "resumeContract",
      "outputs": [],
      "stateMutability": "nonpayable",
      "type": "function"
    },
    {
      "inputs": [
        {
          "internalType": "address",
          "name": "_user",
          "type": "address"
        }
      ],
      "name": "revokeCoOwner",
      "outputs": [],
      "stateMutability": "nonpayable",
      "type": "function"
    },
    {
      "inputs": [],
      "name": "symbol",
      "outputs": [
        {
          "internalType": "string",
          "name": "",
          "type": "string"
        }
      ],
      "stateMutability": "view",
      "type": "function"
    },
    {
      "inputs": [],
      "name": "totalCreditsHeld",
      "outputs": [
        {
          "internalType": "uint256",
          "name": "",
          "type": "uint256"
        }
      ],
      "stateMutability": "view",
      "type": "function"
    },
    {
      "inputs": [],
      "name": "totalSupply",
      "outputs": [
        {
          "internalType": "uint256",
          "name": "totalSupply_includingDecimals",
          "type": "uint256"
        },
        {
          "internalType": "uint256",
          "name": "totalSupply_excludingDecimals",
          "type": "uint256"
        }
      ],
      "stateMutability": "view",
      "type": "function"
    },
    {
      "inputs": [
        {
          "internalType": "address",
          "name": "_to",
          "type": "address"
        },
        {
          "internalType": "uint256",
          "name": "_amount",
          "type": "uint256"
        }
      ],
      "name": "transfer",
      "outputs": [
        {
          "internalType": "bool",
          "name": "success",
          "type": "bool"
        }
      ],
      "stateMutability": "nonpayable",
      "type": "function"
    },
    {
      "inputs": [
        {
          "internalType": "address",
          "name": "_from",
          "type": "address"
        },
        {
          "internalType": "address",
          "name": "_to",
          "type": "address"
        },
        {
          "internalType": "uint256",
          "name": "_amount",
          "type": "uint256"
        }
      ],
      "name": "transferFrom",
      "outputs": [
        {
          "internalType": "bool",
          "name": "success",
          "type": "bool"
        }
      ],
      "stateMutability": "nonpayable",
      "type": "function"
    },
    {
      "inputs": [
        {
          "internalType": "address",
          "name": "_newOwner",
          "type": "address"
        }
      ],
      "name": "transferOwnership",
      "outputs": [],
      "stateMutability": "nonpayable",
      "type": "function"
    },
    {
      "inputs": [
        {
          "internalType": "uint256",
          "name": "_newFee",
          "type": "uint256"
        }
      ],
      "name": "updateFee",
      "outputs": [
        {
          "internalType": "uint256",
          "name": "updatedFee",
          "type": "uint256"
        },
        {
          "internalType": "bool",
          "name": "success",
          "type": "bool"
        }
      ],
      "stateMutability": "nonpayable",
      "type": "function"
    },
    {
      "inputs": [
        {
          "internalType": "address",
          "name": "tokenOwner",
          "type": "address"
        },
        {
          "internalType": "address",
          "name": "spender",
          "type": "address"
        }
      ],
      "name": "viewAllowance",
      "outputs": [
        {
          "internalType": "uint256",
          "name": "remaining",
          "type": "uint256"
        }
      ],
      "stateMutability": "view",
      "type": "function"
    },
    {
      "inputs": [],
      "name": "viewEnigma",
      "outputs": [
        {
          "internalType": "uint256",
          "name": "entranceFee",
          "type": "uint256"
        },
        {
          "internalType": "uint256",
          "name": "enigmaBalance",
          "type": "uint256"
        }
      ],
      "stateMutability": "view",
      "type": "function"
    },
    {
      "stateMutability": "payable",
      "type": "receive"
    }
  ],
  "bytecode": "0x60c060405260076080819052664372656469747360c81b60a0908152620000289190816200012d565b5060408051808201909152600580825264435244545360d81b602090920191825262000057916008916200012d565b5060098054601260ff19909116179081905560ff16600a90810a6301312d000290553480156200008657600080fd5b50336000818152600160208190526040808320805462ff00001960ff1990911684178116620100009081179092556006805460ff60a01b196001600160a01b0319918216909817979097169055600e805490961630178087556001600160a01b03908116865283862080549092169092179055600a54600b819055600c859055855482168552828520840155935490931682529190200154600d556103e8600255620001c9565b828054600181600116156101000203166002900490600052602060002090601f016020900481019282601f106200017057805160ff1916838001178555620001a0565b82800160010185558215620001a0579182015b82811115620001a057825182559160200191906001019062000183565b50620001ae929150620001b2565b5090565b5b80821115620001ae5760008155600101620001b3565b61217780620001d96000396000f3fe6080604052600436106101c65760003560e01c8063783ce383116100f7578063b187bd2611610095578063f2e872a311610064578063f2e872a31461066a578063f2fde38b14610694578063f435205d146106c7578063f979940d146106dc576101d0565b8063b187bd26146105f8578063b9df6ddb1461060d578063c4bc5da514610622578063d479142114610637576101d0565b80639012c4a8116100d15780639012c4a81461053d57806395d89b4114610567578063a0477afb1461057c578063a9059cbb146105bf576101d0565b8063783ce383146104fe5780637888a024146105135780638da5cb5b14610528576101d0565b80634393f6b7116101645780634ca629931161013e5780634ca629931461041d578063563a40241461046a578063625f373e1461049d57806370a08231146104cb576101d0565b80634393f6b71461038e578063439766ce146103dc5780634c7e34cc146103f3576101d0565b80630e97a764116101a05780630e97a764146102dd57806318160ddd1461030b57806323b872dd14610320578063313ce56714610363576101d0565b80630642bc41146101d557806306fdde0314610206578063095ea7b314610290576101d0565b366101d057600080fd5b600080fd5b3480156101e157600080fd5b506101ea6106f1565b604080516001600160a01b039092168252519081900360200190f35b34801561021257600080fd5b5061021b610700565b6040805160208082528351818301528351919283929083019185019080838360005b8381101561025557818101518382015260200161023d565b50505050905090810190601f1680156102825780820380516001836020036101000a031916815260200191505b509250505060405180910390f35b34801561029c57600080fd5b506102c9600480360360408110156102b357600080fd5b506001600160a01b038135169060200135610796565b604080519115158252519081900360200190f35b3480156102e957600080fd5b506102f26107fb565b6040805192835260208301919091528051918290030190f35b34801561031757600080fd5b506102f2610a77565b34801561032c57600080fd5b506102c96004803603606081101561034357600080fd5b506001600160a01b03813581169160208101359091169060400135610a9b565b34801561036f57600080fd5b50610378610c6c565b6040805160ff9092168252519081900360200190f35b34801561039a57600080fd5b506103c1600480360360208110156103b157600080fd5b50356001600160a01b0316610c75565b60408051921515835290151560208301528051918290030190f35b3480156103e857600080fd5b506103f1610d53565b005b3480156103ff57600080fd5b506102c96004803603602081101561041657600080fd5b5035610e0a565b34801561042957600080fd5b506104586004803603604081101561044057600080fd5b506001600160a01b0381358116916020013516610f45565b60408051918252519081900360200190f35b34801561047657600080fd5b506103f16004803603602081101561048d57600080fd5b50356001600160a01b0316610fc6565b3480156104a957600080fd5b506104b261110d565b6040805192835290151560208301528051918290030190f35b3480156104d757600080fd5b50610458600480360360208110156104ee57600080fd5b50356001600160a01b031661134e565b34801561050a57600080fd5b5061045861136d565b34801561051f57600080fd5b506102c9611373565b34801561053457600080fd5b506101ea611490565b34801561054957600080fd5b506104b26004803603602081101561056057600080fd5b503561149f565b34801561057357600080fd5b5061021b611534565b34801561058857600080fd5b506102c96004803603606081101561059f57600080fd5b506001600160a01b03813581169160208101359091169060400135611595565b3480156105cb57600080fd5b506102c9600480360360408110156105e257600080fd5b506001600160a01b038135169060200135611602565b34801561060457600080fd5b506102c96116c6565b34801561061957600080fd5b506102f26116d6565b34801561062e57600080fd5b506103f16116e0565b34801561064357600080fd5b506103f16004803603602081101561065a57600080fd5b50356001600160a01b031661178b565b34801561067657600080fd5b506102c96004803603602081101561068d57600080fd5b503561188c565b3480156106a057600080fd5b506103f1600480360360208110156106b757600080fd5b50356001600160a01b03166119ab565b3480156106d357600080fd5b50610458611acb565b3480156106e857600080fd5b50610458611ad1565b600e546001600160a01b031681565b60078054604080516020601f600260001961010060018816150201909516949094049384018190048102820181019092528281526060939092909183018282801561078c5780601f106107615761010080835404028352916020019161078c565b820191906000526020600020905b81548152906001019060200180831161076f57829003601f168201915b5050505050905090565b600654600090600160a01b900460ff161515600114156107e75760405162461bcd60e51b81526004018080602001828103825260268152602001806120e26026913960400191505060405180910390fd5b6107f2338484611ad7565b50600192915050565b600080600660149054906101000a900460ff1615156001151514156108515760405162461bcd60e51b81526004018080602001828103825260268152602001806120e26026913960400191505060405180910390fd5b3360009081526001602081905260409091205460ff161515146108a55760405162461bcd60e51b815260040180806020018281038252603a815260200180612108603a913960400191505060405180910390fd5b6004546108e35760405162461bcd60e51b815260040180806020018281038252602a8152602001806120b8602a913960400191505060405180910390fd5b6005546003546000916108f69190611b3d565b905060005b600554811015610a3c5760006005828154811061091457fe5b6000918252602080832090910154600f546040805163095ea7b360e01b81523060048201526024810189905290516001600160a01b039384169650919092169363095ea7b393604480850194919392918390030190829087803b15801561097a57600080fd5b505af115801561098e573d6000803e3d6000fd5b505050506040513d60208110156109a457600080fd5b5050600f54600e54604080516323b872dd60e01b81526001600160a01b039283166004820152848316602482015260448101879052905191909216916323b872dd9160648083019260209291908290030181600087803b158015610a0757600080fd5b505af1158015610a1b573d6000803e3d6000fd5b505050506040513d6020811015610a3157600080fd5b5050506001016108fb565b506004546040518291907ff69ed132a46d979d5296da82690fe0700c300684f70ec216342926c4536e13af90600090a3600454925090509091565b600b546009546000918291610a9390829060ff16600a0a611b3d565b915091509091565b600654600090600160a01b900460ff16151560011415610aec5760405162461bcd60e51b81526004018080602001828103825260268152602001806120e26026913960400191505060405180910390fd5b6001600160a01b03841660009081526001602081905260409091200154821115610b475760405162461bcd60e51b815260040180806020018281038252602b815260200180612047602b913960400191505060405180910390fd5b3360009081526001602090815260408083206001600160a01b0388168452600401909152902054821115610bc2576040805162461bcd60e51b815260206004820152601e60248201527f696e73756666696369656e7420616c6c6f77616e63652c207265766572740000604482015290519081900360640190fd5b6001600160a01b038416600081815260016020818152604080842090920154338452828420948452600490940190529020541115610bff57600080fd5b3360009081526001602090815260408083206001600160a01b0388168452600401909152902054610c309083611b86565b3360009081526001602090815260408083206001600160a01b0389168452600401909152902055610c62848484611bc8565b5060019392505050565b60095460ff1690565b336000908152600160208190526040822054829160ff909116151514610ccc5760405162461bcd60e51b815260040180806020018281038252603a815260200180612108603a913960400191505060405180910390fd5b6006546001600160a01b0384811691161415610d195760405162461bcd60e51b815260040180806020018281038252602e815260200180611fa0602e913960400191505060405180910390fd5b50506001600160a01b0381166000908152600160208190526040909120805462ff000019166201000090811791829055900460ff16915091565b3360009081526001602081905260409091205460ff16151514610da75760405162461bcd60e51b815260040180806020018281038252603a815260200180612108603a913960400191505060405180910390fd5b600654600160a01b900460ff16151560011415610df55760405162461bcd60e51b8152600401808060200182810382526023815260200180611ff16023913960400191505060405180910390fd5b6006805460ff60a01b1916600160a01b179055565b33600090815260016020819052604082205460ff16151514610e5d5760405162461bcd60e51b815260040180806020018281038252603a815260200180612108603a913960400191505060405180910390fd5b600e546001600160a01b031660009081526001602081905260409091200154821115610e8857600080fd5b600e546001600160a01b031660009081526001602081905260409091200154610eb19083611b86565b600e546001600160a01b031660009081526001602081905260409091200155600b54610edd9083611b86565b600b819055600e546001600160a01b031660009081526001602081815260409283902090910154600d558151928352820184905280517ff05f58153cc063e54e5286dc2b7fb3c007f046aa04454ebf6340c90cbd4a43889281900390910190a1506001919050565b600654600090600160a01b900460ff16151560011415610f965760405162461bcd60e51b81526004018080602001828103825260268152602001806120e26026913960400191505060405180910390fd5b506001600160a01b0391821660009081526001602090815260408083209390941682526004909201909152205490565b3360009081526001602081905260409091205460ff1615151461101a5760405162461bcd60e51b815260040180806020018281038252603a815260200180612108603a913960400191505060405180910390fd5b6001600160a01b038116600090815260016020819052604090912054610100900460ff1615151480159061106d57506001600160a01b03811660009081526001602081905260409091205460ff16151514155b6110be576040805162461bcd60e51b815260206004820152601f60248201527f4552524f523a20416c7265616479204f776e6572206f7220436f4f776e657200604482015290519081900360640190fd5b6001600160a01b038116600081815260016020526040808220805461ff0019166101001790555133917f9567d681b0fb3e97d5da2d86db4f96382314464e6c9906845540fa5ce9d171fa91a350565b600080600660149054906101000a900460ff1615156001151514156111635760405162461bcd60e51b81526004018080602001828103825260268152602001806120e26026913960400191505060405180910390fd5b600254336000908152600160208190526040909120015410156111b75760405162461bcd60e51b81526004018080602001828103825260228152602001806120726022913960400191505060405180910390fd5b336000908152600160205260409020600e015460ff1615611213576040805162461bcd60e51b8152602060048201526011602482015270616c726561647920696e20456e69676d6160781b604482015290519081900360640190fd5b600f546002546040805163a9059cbb60e01b81526001600160a01b0390931660048401819052602484019290925251909163a9059cbb9160448083019260209291908290030181600087803b15801561126b57600080fd5b505af115801561127f573d6000803e3d6000fd5b505050506040513d602081101561129557600080fd5b5050336000818152600160208190526040822042600f82015560108101839055600e01805460ff19168217905560058054808301825592527f036b6384b5eca791c62761152d0c79bb0604c104a5fb6f4eb0703f3154bb3db090910180546001600160a01b03191690921790915560045461130f91611e49565b60045560025460405142919033907f2380ad14b810e7882d86306592708bd9b80fd397f8dca222ccecadaf6763741590600090a4505060025460019091565b6001600160a01b03166000908152600160208190526040909120015490565b600a5481565b600654600090600160a01b900460ff161515600114156113c45760405162461bcd60e51b81526004018080602001828103825260268152602001806120e26026913960400191505060405180910390fd5b336000908152600160208190526040909120600e015460ff1615151461141b5760405162461bcd60e51b81526004018080602001828103825260338152602001806120146033913960400191505060405180910390fd5b336000908152600160205260409020600e01805460ff19169055600580548061144057fe5b600082815260209020810160001990810180546001600160a01b0319169055019055600454611470906001611e49565b600455503360009081526001602081905260409091204260109091015590565b6006546001600160a01b031681565b336000908152600160208190526040822054829160ff9091161515146114f65760405162461bcd60e51b815260040180806020018281038252603a815260200180612108603a913960400191505060405180910390fd5b6002839055604051429084907f15b18292d3f8797d2c00b798e2beaec3c01a6e72f364317a3ac126a34ae807e790600090a350506002546001915091565b60088054604080516020601f600260001961010060018816150201909516949094049384018190048102820181019092528281526060939092909183018282801561078c5780601f106107615761010080835404028352916020019161078c565b33600090815260016020819052604082205462010000900460ff161515146115f7576040805162461bcd60e51b815260206004820152601060248201526f4552524f523a204e6f2061636365737360801b604482015290519081900360640190fd5b610c62848484611ad7565b600654600090600160a01b900460ff161515600114156116535760405162461bcd60e51b81526004018080602001828103825260268152602001806120e26026913960400191505060405180910390fd5b33600090815260016020819052604090912001548211156116bb576040805162461bcd60e51b815260206004820152601a60248201527f696e73756666696369656e742066756e64732c20726576657274000000000000604482015290519081900360640190fd5b6107f2338484611bc8565b600654600160a01b900460ff1681565b6002546003549091565b3360009081526001602081905260409091205460ff161515146117345760405162461bcd60e51b815260040180806020018281038252603a815260200180612108603a913960400191505060405180910390fd5b600654600160a01b900460ff1661177c5760405162461bcd60e51b81526004018080602001828103825260248152602001806120946024913960400191505060405180910390fd5b6006805460ff60a01b19169055565b3360009081526001602081905260409091205460ff161515146117df5760405162461bcd60e51b815260040180806020018281038252603a815260200180612108603a913960400191505060405180910390fd5b6001600160a01b038116600090815260016020819052604090912054610100900460ff161515146118415760405162461bcd60e51b8152600401808060200182810382526023815260200180611fce6023913960400191505060405180910390fd5b6001600160a01b038116600081815260016020526040808220805461ff00191690555133917faeee6451fd32361c6db2e9a8f5b3199033efb01b3399674bfa78c7764bb13e5b91a350565b33600090815260016020819052604082205460ff161515146118df5760405162461bcd60e51b815260040180806020018281038252603a815260200180612108603a913960400191505060405180910390fd5b600e546001600160a01b0316600090815260016020819052604090912001546119089083611e49565b600e546001600160a01b031660009081526001602081905260409091200155600b546119349083611e49565b600b8190556006546001600160a01b0390811660009081526001602081815260409283902090910154600d55600e54825194855290921691830191909152818101849052517ff28643099acbbfb608d587e328fb2d61af52f9dfca2a1abb7b6cf2edf1a775f09181900360600190a1506001919050565b3360009081526001602081905260409091205460ff161515146119ff5760405162461bcd60e51b815260040180806020018281038252603a815260200180612108603a913960400191505060405180910390fd5b6001600160a01b03811660009081526001602081905260409091205460ff1615151415611a6a576040805162461bcd60e51b815260206004820152601460248201527322a92927a91d1020b63932b0b23c9037bbb732b960611b604482015290519081900360640190fd5b336000818152600160208190526040808320805460ff199081169091556001600160a01b03861680855282852080549092169093179055519092917f8be0079c531659141344cd1fd0a4f28419497f9722a3daafe3b4186f6b6457e091a350565b600c5481565b600d5481565b6001600160a01b0380841660008181526001602090815260408083209487168084526004909501825291829020859055815185815291517f8c5be1e5ebec7d5bd14f71427d1e84f3dd0314c0f7b2291e5b200ac8c7c3b9259281900390910190a3505050565b6000611b7f83836040518060400160405280601a81526020017f536166654d6174683a206469766973696f6e206279207a65726f000000000000815250611ea3565b9392505050565b6000611b7f83836040518060400160405280601e81526020017f536166654d6174683a207375627472616374696f6e206f766572666c6f770000815250611f45565b600654600160a01b900460ff16151560011415611c165760405162461bcd60e51b81526004018080602001828103825260268152602001806120e26026913960400191505060405180910390fd5b600e546001600160a01b0384811691161415611cd3576001600160a01b03831660009081526001602081905260409091200154611c539082611b86565b6001600160a01b0380851660009081526001602081905260408083208201949094559185168152919091200154611c8a9082611e49565b6001600160a01b0380841660009081526001602081905260408083208201949094556006549092168152919091200154600d819055600b54611ccb91611e49565b600c55611e04565b600e546001600160a01b0383811691161415611d88576001600160a01b03831660009081526001602081905260409091200154611d109082611b86565b6001600160a01b0380851660009081526001602081905260408083208201949094559185168152919091200154611d479082611e49565b6001600160a01b0380841660009081526001602081905260408083208201949094556006549092168152919091200154600d819055600b54611ccb91611b86565b6001600160a01b03831660009081526001602081905260409091200154611daf9082611b86565b6001600160a01b0380851660009081526001602081905260408083208201949094559185168152919091200154611de69082611e49565b6001600160a01b038316600090815260016020819052604090912001555b6040805182815290516001600160a01b0384169133917fddf252ad1be2c89b69c2b068fc378daa952ba7f163c4a11628f55a4df523b3ef9181900360200190a3505050565b600082820183811015611b7f576040805162461bcd60e51b815260206004820152601b60248201527f536166654d6174683a206164646974696f6e206f766572666c6f770000000000604482015290519081900360640190fd5b60008183611f2f5760405162461bcd60e51b81526004018080602001828103825283818151815260200191508051906020019080838360005b83811015611ef4578181015183820152602001611edc565b50505050905090810190601f168015611f215780820380516001836020036101000a031916815260200191505b509250505060405180910390fd5b506000838581611f3b57fe5b0495945050505050565b60008184841115611f975760405162461bcd60e51b8152602060048201818152835160248401528351909283926044909101919085019080838360008315611ef4578181015183820152602001611edc565b50505090039056fe4552524f523a20556e61626c6520746f206769766520796f757273656c6620636f6e7472616374206163636573734552524f523a20557365722063757272656e746c79206e6f74206120436f4f776e65724552524f523a20416c7265616479207061757365642066756e6374696f6e616c697479756e61626c6520746f206c65617665207768656e20796f752068617665206e6f74206a6f696e65642074686520456e69676d6166726f6d20616464726573732068617320696e73756666696369656e742066756e64732c20726576657274696e73756666696369656e742066756e647320746f20656e74657220456e69676d614552524f523a20416c726561647920726573756d65642066756e6374696f6e616c6974796e6f207061727469636970616e747320696e20456e69676d6120666f7220646973747269627574696f6e4552524f523a2046756e6374696f6e2069732070617573656420627920746865206f776e65724552524f523a20546869732066756e6374696f6e206973207265737472696374656420746f2074686520636f6e74726163742773206f776e6572a2646970667358221220949735f7b2292fae6afb5f350840acd09f67b4581556af4f863720f488076a8464736f6c63430007000033",
  "linkReferences": {},
  "deployedLinkReferences": {}
}