{
  "_format": "hh-sol-artifact-1",
  "contractName": "CreditsITO",
  "sourceName": "contracts/CreditsITO.sol",
  "abi": [
    {
      "inputs": [],
      "stateMutability": "nonpayable",
      "type": "constructor"
    },
    {
      "anonymous": false,
      "inputs": [
        {
          "indexed": true,
          "internalType": "address",
          "name": "purchaser",
          "type": "address"
        },
        {
          "indexed": true,
          "internalType": "address",
          "name": "beneficiary",
          "type": "address"
        },
        {
          "indexed": false,
          "internalType": "uint256",
          "name": "ethAmount",
          "type": "uint256"
        },
        {
          "indexed": false,
          "internalType": "uint256",
          "name": "credibyteAmount",
          "type": "uint256"
        }
      ],
      "name": "CreditBondPurchase",
      "type": "event"
    },
    {
      "anonymous": false,
      "inputs": [
        {
          "indexed": true,
          "internalType": "address",
          "name": "redeemer",
          "type": "address"
        },
        {
          "indexed": true,
          "internalType": "uint256",
          "name": "creditsAmount",
          "type": "uint256"
        },
        {
          "indexed": false,
          "internalType": "uint256",
          "name": "time",
          "type": "uint256"
        }
      ],
      "name": "CreditBondRedemption",
      "type": "event"
    },
    {
      "anonymous": false,
      "inputs": [
        {
          "indexed": true,
          "internalType": "address",
          "name": "promoter",
          "type": "address"
        },
        {
          "indexed": true,
          "internalType": "address",
          "name": "newCoOwner",
          "type": "address"
        }
      ],
      "name": "NewCoOwner",
      "type": "event"
    },
    {
      "anonymous": false,
      "inputs": [
        {
          "indexed": true,
          "internalType": "address",
          "name": "from",
          "type": "address"
        },
        {
          "indexed": true,
          "internalType": "address",
          "name": "to",
          "type": "address"
        }
      ],
      "name": "OwnershipTransferred",
      "type": "event"
    },
    {
      "anonymous": false,
      "inputs": [
        {
          "indexed": true,
          "internalType": "address",
          "name": "revoker",
          "type": "address"
        },
        {
          "indexed": true,
          "internalType": "address",
          "name": "revokedCoOwner",
          "type": "address"
        }
      ],
      "name": "RevokedCoOwner",
      "type": "event"
    },
    {
      "anonymous": false,
      "inputs": [
        {
          "indexed": true,
          "internalType": "address",
          "name": "to",
          "type": "address"
        },
        {
          "indexed": true,
          "internalType": "uint256",
          "name": "amount",
          "type": "uint256"
        },
        {
          "indexed": true,
          "internalType": "uint256",
          "name": "timeOfWithdrawal",
          "type": "uint256"
        }
      ],
      "name": "developerCreditsWithdrawal",
      "type": "event"
    },
    {
      "anonymous": false,
      "inputs": [
        {
          "indexed": true,
          "internalType": "address",
          "name": "to",
          "type": "address"
        },
        {
          "indexed": true,
          "internalType": "uint256",
          "name": "amount",
          "type": "uint256"
        },
        {
          "indexed": true,
          "internalType": "uint256",
          "name": "timeOfWithdrawal",
          "type": "uint256"
        }
      ],
      "name": "developerEthWithdrawal",
      "type": "event"
    },
    {
      "inputs": [
        {
          "internalType": "address",
          "name": "_user",
          "type": "address"
        }
      ],
      "name": "addCoOwner",
      "outputs": [],
      "stateMutability": "nonpayable",
      "type": "function"
    },
    {
      "inputs": [
        {
          "internalType": "address",
          "name": "_beneficiary",
          "type": "address"
        }
      ],
      "name": "buyCreditBond_withETH",
      "outputs": [],
      "stateMutability": "payable",
      "type": "function"
    },
    {
      "inputs": [],
      "name": "conversionRate_EthToCredits",
      "outputs": [
        {
          "internalType": "uint256",
          "name": "",
          "type": "uint256"
        }
      ],
      "stateMutability": "view",
      "type": "function"
    },
    {
      "inputs": [],
      "name": "deploymentDate",
      "outputs": [
        {
          "internalType": "uint256",
          "name": "",
          "type": "uint256"
        }
      ],
      "stateMutability": "view",
      "type": "function"
    },
    {
      "inputs": [
        {
          "internalType": "address",
          "name": "_to",
          "type": "address"
        },
        {
          "internalType": "uint256",
          "name": "_amount",
          "type": "uint256"
        }
      ],
      "name": "developerCreditsWithdraw",
      "outputs": [],
      "stateMutability": "nonpayable",
      "type": "function"
    },
    {
      "inputs": [
        {
          "internalType": "address payable",
          "name": "_to",
          "type": "address"
        },
        {
          "internalType": "uint256",
          "name": "_amount",
          "type": "uint256"
        }
      ],
      "name": "developerEthWithdraw",
      "outputs": [],
      "stateMutability": "nonpayable",
      "type": "function"
    },
    {
      "inputs": [],
      "name": "finalise",
      "outputs": [],
      "stateMutability": "nonpayable",
      "type": "function"
    },
    {
      "inputs": [
        {
          "internalType": "address",
          "name": "_address",
          "type": "address"
        }
      ],
      "name": "giveContractAccess",
      "outputs": [
        {
          "internalType": "bool",
          "name": "success",
          "type": "bool"
        },
        {
          "internalType": "bool",
          "name": "updatedStatus",
          "type": "bool"
        }
      ],
      "stateMutability": "nonpayable",
      "type": "function"
    },
    {
      "inputs": [],
      "name": "hasFinalised",
      "outputs": [
        {
          "internalType": "bool",
          "name": "",
          "type": "bool"
        }
      ],
      "stateMutability": "view",
      "type": "function"
    },
    {
      "inputs": [],
      "name": "isPaused",
      "outputs": [
        {
          "internalType": "bool",
          "name": "",
          "type": "bool"
        }
      ],
      "stateMutability": "view",
      "type": "function"
    },
    {
      "inputs": [],
      "name": "itoTotalParticipants",
      "outputs": [
        {
          "internalType": "uint256",
          "name": "",
          "type": "uint256"
        }
      ],
      "stateMutability": "view",
      "type": "function"
    },
    {
      "inputs": [],
      "name": "minEthRequirement",
      "outputs": [
        {
          "internalType": "uint256",
          "name": "",
          "type": "uint256"
        }
      ],
      "stateMutability": "view",
      "type": "function"
    },
    {
      "inputs": [],
      "name": "owner",
      "outputs": [
        {
          "internalType": "address",
          "name": "",
          "type": "address"
        }
      ],
      "stateMutability": "view",
      "type": "function"
    },
    {
      "inputs": [],
      "name": "pauseContract",
      "outputs": [],
      "stateMutability": "nonpayable",
      "type": "function"
    },
    {
      "inputs": [],
      "name": "redeemCredits",
      "outputs": [
        {
          "internalType": "uint256",
          "name": "convertedAmount",
          "type": "uint256"
        },
        {
          "internalType": "bool",
          "name": "sucess",
          "type": "bool"
        }
      ],
      "stateMutability": "nonpayable",
      "type": "function"
    },
    {
      "inputs": [],
      "name": "remaining_itoCreditsSupply",
      "outputs": [
        {
          "internalType": "uint256",
          "name": "",
          "type": "uint256"
        }
      ],
      "stateMutability": "view",
      "type": "function"
    },
    {
      "inputs": [],
      "name": "resumeContract",
      "outputs": [],
      "stateMutability": "nonpayable",
      "type": "function"
    },
    {
      "inputs": [
        {
          "internalType": "address",
          "name": "_user",
          "type": "address"
        }
      ],
      "name": "revokeCoOwner",
      "outputs": [],
      "stateMutability": "nonpayable",
      "type": "function"
    },
    {
      "inputs": [
        {
          "internalType": "uint256",
          "name": "_newRate",
          "type": "uint256"
        }
      ],
      "name": "setRate_EthToCredits",
      "outputs": [],
      "stateMutability": "nonpayable",
      "type": "function"
    },
    {
      "inputs": [],
      "name": "timelockActivationDate",
      "outputs": [
        {
          "internalType": "uint256",
          "name": "",
          "type": "uint256"
        }
      ],
      "stateMutability": "view",
      "type": "function"
    },
    {
      "inputs": [
        {
          "internalType": "address",
          "name": "_newOwner",
          "type": "address"
        }
      ],
      "name": "transferOwnership",
      "outputs": [],
      "stateMutability": "nonpayable",
      "type": "function"
    },
    {
      "inputs": [
        {
          "internalType": "uint256",
          "name": "_newMinimumRequirement",
          "type": "uint256"
        }
      ],
      "name": "updateMinimumRequirement",
      "outputs": [],
      "stateMutability": "nonpayable",
      "type": "function"
    },
    {
      "inputs": [
        {
          "internalType": "address",
          "name": "user",
          "type": "address"
        }
      ],
      "name": "viewCreditBondBalance",
      "outputs": [
        {
          "internalType": "uint256",
          "name": "_creditBondBalance",
          "type": "uint256"
        }
      ],
      "stateMutability": "view",
      "type": "function"
    },
    {
      "inputs": [],
      "name": "viewEthRaised",
      "outputs": [
        {
          "internalType": "uint256",
          "name": "totalEthRaised",
          "type": "uint256"
        },
        {
          "internalType": "uint256",
          "name": "ethCurrentlyLocked",
          "type": "uint256"
        }
      ],
      "stateMutability": "view",
      "type": "function"
    },
    {
      "inputs": [],
      "name": "viewRemainingCreditsForPurchase",
      "outputs": [
        {
          "internalType": "uint256",
          "name": "remainingCredibytesForPurchase",
          "type": "uint256"
        },
        {
          "internalType": "uint256",
          "name": "ethValueOfRemainingCredibytesForPurchase",
          "type": "uint256"
        }
      ],
      "stateMutability": "view",
      "type": "function"
    },
    {
      "inputs": [],
      "name": "viewTimeLockStatus",
      "outputs": [
        {
          "internalType": "uint256",
          "name": "timelockCommenced",
          "type": "uint256"
        },
        {
          "internalType": "uint256",
          "name": "timelockCompletition",
          "type": "uint256"
        },
        {
          "internalType": "uint256",
          "name": "timeRemaining",
          "type": "uint256"
        }
      ],
      "stateMutability": "view",
      "type": "function"
    },
    {
      "stateMutability": "payable",
      "type": "receive"
    }
  ],
  "bytecode": "0x608060405234801561001057600080fd5b5033600081815260016020819052604080832080546201000060ff1991821690941762ff0000199081168517909255600680546001600160a01b03191690961760ff60a01b191690955542600d8190556224ea0001600e55600f8054909516909455612710600855670de0b6b3a7640000600a553083528220805490931617909155630510ff40600b55611e769081906100aa90396000f3fe6080604052600436106101855760003560e01c80638da5cb5b116100d1578063d284381e1161008a578063eb733e5911610064578063eb733e59146104fa578063ef097bdd1461050f578063f2fde38b14610548578063f2fff9de1461057b576101a1565b8063d284381e14610488578063d3ba32c41461049d578063d4791421146104c7576101a1565b80638da5cb5b146103dd578063a43992631461040e578063a769d71a14610423578063a82465c814610449578063b187bd261461045e578063c4bc5da514610473576101a1565b80632c967f1e1161013e578063563a402411610118578063563a4024146103575780637968f7e61461038a5780637c8ab27f1461039f57806388ae7f57146103c8576101a1565b80632c967f1e146102c15780634393f6b7146102f4578063439766ce14610342576101a1565b806301b46319146101a857806309d6d1c5146101e15780630e1e53641461020b5780630e8b23e814610232578063202e8a2a146102605780632051946c14610293576101a1565b366101a157600e5442116101a15761019c33610590565b6101a6565b600080fd5b005b3480156101b457600080fd5b506101a6600480360360408110156101cb57600080fd5b506001600160a01b038135169060200135610664565b3480156101ed57600080fd5b506101a66004803603602081101561020457600080fd5b5035610750565b34801561021757600080fd5b506102206107a9565b60408051918252519081900360200190f35b34801561023e57600080fd5b506102476107af565b6040805192835290151560208301528051918290030190f35b34801561026c57600080fd5b506102756108be565b60408051938452602084019290925282820152519081900360600190f35b34801561029f57600080fd5b506102a86108e3565b6040805192835260208301919091528051918290030190f35b3480156102cd57600080fd5b50610220600480360360208110156102e457600080fd5b50356001600160a01b03166108ff565b34801561030057600080fd5b506103276004803603602081101561031757600080fd5b50356001600160a01b031661091d565b60408051921515835290151560208301528051918290030190f35b34801561034e57600080fd5b506101a66109fb565b34801561036357600080fd5b506101a66004803603602081101561037a57600080fd5b50356001600160a01b0316610ab2565b34801561039657600080fd5b50610220610bf9565b3480156103ab57600080fd5b506103b4610bff565b604080519115158252519081900360200190f35b3480156103d457600080fd5b50610220610c08565b3480156103e957600080fd5b506103f2610c0e565b604080516001600160a01b039092168252519081900360200190f35b34801561041a57600080fd5b506101a6610c1d565b6101a66004803603602081101561043957600080fd5b50356001600160a01b0316610590565b34801561045557600080fd5b50610220610c80565b34801561046a57600080fd5b506103b4610c86565b34801561047f57600080fd5b506101a6610c96565b34801561049457600080fd5b506102a8610d41565b3480156104a957600080fd5b506101a6600480360360208110156104c057600080fd5b5035610d49565b3480156104d357600080fd5b506101a6600480360360208110156104ea57600080fd5b50356001600160a01b0316610da2565b34801561050657600080fd5b50610220610ea3565b34801561051b57600080fd5b506101a66004803603604081101561053257600080fd5b506001600160a01b038135169060200135610ea9565b34801561055457600080fd5b506101a66004803603602081101561056b57600080fd5b50356001600160a01b031661100c565b34801561058757600080fd5b5061022061112c565b600e54421115806105a95750600f5460ff161515600114155b6105e45760405162461bcd60e51b8152600401808060200182810382526041815260200180611aee6041913960600191505060405180910390fd5b346105ef8282611132565b60006105fa82611294565b60095490915061060a9083611311565b6009556106178382611372565b604080518381526020810183905281516001600160a01b0386169233927f76865b64dda16db708c8e35f271d4d90f5e0a801ef70a424b922b961b94693a8929081900390910190a3505050565b3360009081526001602081905260409091205460ff16151514806106a2575033600090815260016020819052604090912054610100900460ff161515145b6106dd5760405162461bcd60e51b8152600401808060200182810382526048815260200180611ce16048913960600191505060405180910390fd5b6040516001600160a01b0383169082156108fc029083906000818181858888f19350505050158015610713573d6000803e3d6000fd5b504281836001600160a01b03167f1d16490de6e69f53c06df3da0726ca864ff7d32f79b48c8740a4a265053c7c6f60405160405180910390a45050565b3360009081526001602081905260409091205460ff161515146107a45760405162461bcd60e51b815260040180806020018281038252603a815260200180611d95603a913960400191505060405180910390fd5b600855565b600e5481565b600080600e54421015806107ca5750600f5460ff1615156001145b6108055760405162461bcd60e51b815260040180806020018281038252605c815260200180611b5d605c913960600191505060405180910390fd5b33600090815260016020526040902060050154610869576040805162461bcd60e51b815260206004820152601c60248201527f4552524f523a204e6f20637265646974732072656d61696e696e672e00000000604482015290519081900360640190fd5b60006108736113d0565b905061087e81611643565b604080514281529051829133917f76552c8350e37518a2231d5af1a8c86f591b2557fe66c1a3579f61efaf05e89c9181900360200190a392600192509050565b600e546000908190819062eff10081016108d88142611766565b925092509250909192565b600b5460009081906108f7816127106117a8565b915091509091565b6001600160a01b031660009081526001602052604090206005015490565b336000908152600160208190526040822054829160ff9091161515146109745760405162461bcd60e51b815260040180806020018281038252603a815260200180611d95603a913960400191505060405180910390fd5b6006546001600160a01b03848116911614156109c15760405162461bcd60e51b815260040180806020018281038252602e815260200180611b2f602e913960400191505060405180910390fd5b50506001600160a01b0381166000908152600160208190526040909120805462ff000019166201000090811791829055900460ff16915091565b3360009081526001602081905260409091205460ff16151514610a4f5760405162461bcd60e51b815260040180806020018281038252603a815260200180611d95603a913960400191505060405180910390fd5b600654600160a01b900460ff16151560011415610a9d5760405162461bcd60e51b8152600401808060200182810382526023815260200180611bdc6023913960400191505060405180910390fd5b6006805460ff60a01b1916600160a01b179055565b3360009081526001602081905260409091205460ff16151514610b065760405162461bcd60e51b815260040180806020018281038252603a815260200180611d95603a913960400191505060405180910390fd5b6001600160a01b038116600090815260016020819052604090912054610100900460ff16151514801590610b5957506001600160a01b03811660009081526001602081905260409091205460ff16151514155b610baa576040805162461bcd60e51b815260206004820152601f60248201527f4552524f523a20416c7265616479204f776e6572206f7220436f4f776e657200604482015290519081900360640190fd5b6001600160a01b038116600081815260016020526040808220805461ff0019166101001790555133917f9567d681b0fb3e97d5da2d86db4f96382314464e6c9906845540fa5ce9d171fa91a350565b600d5481565b600f5460ff1681565b600b5481565b6006546001600160a01b031681565b3360009081526001602081905260409091205460ff16151514610c715760405162461bcd60e51b815260040180806020018281038252603a815260200180611d95603a913960400191505060405180910390fd5b600f805460ff19166001179055565b600c5481565b600654600160a01b900460ff1681565b3360009081526001602081905260409091205460ff16151514610cea5760405162461bcd60e51b815260040180806020018281038252603a815260200180611d95603a913960400191505060405180910390fd5b600654600160a01b900460ff16610d325760405162461bcd60e51b8152600401808060200182810382526024815260200180611d296024913960400191505060405180910390fd5b6006805460ff60a01b19169055565b600954479091565b3360009081526001602081905260409091205460ff16151514610d9d5760405162461bcd60e51b815260040180806020018281038252603a815260200180611d95603a913960400191505060405180910390fd5b600a55565b3360009081526001602081905260409091205460ff16151514610df65760405162461bcd60e51b815260040180806020018281038252603a815260200180611d95603a913960400191505060405180910390fd5b6001600160a01b038116600090815260016020819052604090912054610100900460ff16151514610e585760405162461bcd60e51b8152600401808060200182810382526023815260200180611bb96023913960400191505060405180910390fd5b6001600160a01b038116600081815260016020526040808220805461ff00191690555133917faeee6451fd32361c6db2e9a8f5b3199033efb01b3399674bfa78c7764bb13e5b91a350565b600a5481565b3360009081526001602081905260409091205460ff1615151480610ee7575033600090815260016020819052604090912054610100900460ff161515145b610f225760405162461bcd60e51b8152600401808060200182810382526048815260200180611ce16048913960600191505060405180910390fd5b600e5462eff10001600e541015610f6a5760405162461bcd60e51b8152600401808060200182810382526042815260200180611dcf6042913960600191505060405180910390fd5b3060009081526001602081905260409091200154610f889082611766565b3060009081526001602081905260408083208201939093556001600160a01b03851682529190200154610fbb9082611311565b6001600160a01b038316600081815260016020819052604080832090910193909355915142928492917f1d16490de6e69f53c06df3da0726ca864ff7d32f79b48c8740a4a265053c7c6f9190a45050565b3360009081526001602081905260409091205460ff161515146110605760405162461bcd60e51b815260040180806020018281038252603a815260200180611d95603a913960400191505060405180910390fd5b6001600160a01b03811660009081526001602081905260409091205460ff16151514156110cb576040805162461bcd60e51b815260206004820152601460248201527322a92927a91d1020b63932b0b23c9037bbb732b960611b604482015290519081900360640190fd5b336000818152600160208190526040808320805460ff199081169091556001600160a01b03861680855282852080549092169093179055519092917f8be0079c531659141344cd1fd0a4f28419497f9722a3daafe3b4186f6b6457e091a350565b60085481565b600e544211158061114b5750600f5460ff161515600114155b6111865760405162461bcd60e51b8152600401808060200182810382526041815260200180611aee6041913960600191505060405180910390fd5b6111ad670de0b6b3a76400006111a7600854846117ea90919063ffffffff16565b906117a8565b600b5410156111ed5760405162461bcd60e51b815260040180806020018281038252606d815260200180611c20606d913960800191505060405180910390fd5b6001600160a01b038216301480159061121457506007546001600160a01b03838116911614155b61124f5760405162461bcd60e51b8152600401808060200182810382526048815260200180611d4d6048913960600191505060405180910390fd5b600a548110156112905760405162461bcd60e51b8152600401808060200182810382526054815260200180611c8d6054913960600191505060405180910390fd5b5050565b6000600e54421115806112af5750600f5460ff161515600114155b6112ea5760405162461bcd60e51b8152600401808060200182810382526041815260200180611aee6041913960600191505060405180910390fd5b61130b670de0b6b3a76400006111a7600854856117ea90919063ffffffff16565b92915050565b60008282018381101561136b576040805162461bcd60e51b815260206004820152601b60248201527f536166654d6174683a206164646974696f6e206f766572666c6f770000000000604482015290519081900360640190fd5b9392505050565b600e544211158061138b5750600f5460ff161515600114155b6113c65760405162461bcd60e51b8152600401808060200182810382526041815260200180611aee6041913960600191505060405180910390fd5b6112908282611843565b3360009081526001602052604081206008015442101580611401575033600090815260016020526040902060070154155b61143c5760405162461bcd60e51b8152600401808060200182810382526039815260200180611ab56039913960400191505060405180910390fd5b3360009081526001602052604090206005015461148a5760405162461bcd60e51b8152600401808060200182810382526030815260200180611e116030913960400191505060405180910390fd5b336000908152600160205260409020600701546114f857336000908152600160208190526040909120600701546114c091611311565b33600090815260016020526040902060078101919091556224ea0042016008820155600501546114f19060046117a8565b9050611640565b336000908152600160208190526040909120600701541415611564573360009081526001602081905260409091206007015461153391611311565b33600090815260016020526040902060078101919091556224ea0042016008820155600501546114f19060036117a8565b33600090815260016020526040902060070154600214156115cf573360009081526001602081905260409091206007015461159e91611311565b33600090815260016020526040902060078101919091556224ea0042016008820155600501546114f19060026117a8565b3360009081526001602052604090206007015460031415611640573360009081526001602081905260409091206007015461160991611311565b33600090815260016020819052604082206007810193909355600883019190915560098201805460ff191690911790556005015490505b90565b336000818152600160209081526040808320600501839055600754815163a0477afb60e01b81526001600160a01b0390911660048201819052602482019590955260448101869052905163a0477afb93606480840194938390030190829087803b1580156116b057600080fd5b505af11580156116c4573d6000803e3d6000fd5b505050506040513d60208110156116da57600080fd5b5050600754604080516323b872dd60e01b81526001600160a01b039092166004830181905233602484015260448301849052905190916323b872dd9160648083019260209291908290030181600087803b15801561173757600080fd5b505af115801561174b573d6000803e3d6000fd5b505050506040513d602081101561176157600080fd5b505050565b600061136b83836040518060400160405280601e81526020017f536166654d6174683a207375627472616374696f6e206f766572666c6f7700008152506119b8565b600061136b83836040518060400160405280601a81526020017f536166654d6174683a206469766973696f6e206279207a65726f000000000000815250611a4f565b6000826117f95750600061130b565b8282028284828161180657fe5b041461136b5760405162461bcd60e51b8152600401808060200182810382526021815260200180611bff6021913960400191505060405180910390fd5b600e544211158061185c5750600f5460ff161515600114155b6118975760405162461bcd60e51b8152600401808060200182810382526041815260200180611aee6041913960600191505060405180910390fd5b600b546118a49082611766565b600b556001600160a01b0382166000908152600160205260409020600501546118cd9082611311565b6001600160a01b038316600090815260016020526040902060058101919091556007015415158061191b57506001600160a01b03821660009081526001602052604090206009015460ff1615155b1561194c576001600160a01b03821660009081526001602052604081206007810191909155600901805460ff191690555b6001600160a01b038216600090815260016020819052604090912060090154610100900460ff16151514611290576001600160a01b0382166000908152600160208190526040909120600901805461ff001916610100179055600c546119b191611311565b600c555050565b60008184841115611a475760405162461bcd60e51b81526004018080602001828103825283818151815260200191508051906020019080838360005b83811015611a0c5781810151838201526020016119f4565b50505050905090810190601f168015611a395780820380516001836020036101000a031916815260200191505b509250505060405180910390fd5b505050900390565b60008183611a9e5760405162461bcd60e51b8152602060048201818152835160248401528351909283926044909101919085019080838360008315611a0c5781810151838201526020016119f4565b506000838581611aaa57fe5b049594505050505056fe4552524f523a204d7573742077616974207468652072656d61696e696e672074696d6520756e74696c206e65787420726564657074696f6e2e4552524f523a2049544f207068617365206973206f7665723a20636f6e7472616374206c6f636b65642026206e6f206c6f6e6765722066756e6374696f6e616c2e4552524f523a20556e61626c6520746f206769766520796f757273656c6620636f6e7472616374206163636573734552524f523a2049544f2070686173652069732063757272656e746c7920756e6465727761793a2063616e2072656465656d206f6e63652066696e616c69736564206f722074696d656c6f636b20686173206163746976617465642e4552524f523a20557365722063757272656e746c79206e6f74206120436f4f776e65724552524f523a20416c7265616479207061757365642066756e6374696f6e616c697479536166654d6174683a206d756c7469706c69636174696f6e206f766572666c6f774552524f523a20496e737566666963656e742072656d61696e696e672063726564696279746520737570706c7920746f2070757263686173652c20636865636b2072656d61696e696e6720737570706c7920616e642061646a75737420707572636861736520616d6f756e742e4552524f523a20446f6573206e6f74206d65657420746865206d696e696d756d2070757263686173696e6720726571756972656d656e743a20726566657220746f206d696e457468526571756972656d656e742e4552524f523a20546869732066756e6374696f6e206973207265737472696374656420746f2074686520636f6e74726163742773206f776e6572202620636f2d6f776e65722873294552524f523a20416c726561647920726573756d65642066756e6374696f6e616c6974794552524f523a20556e61626c6520746f207075726368617365206372656469627974657320666f722069746f436f6e7472616374206f722063726564697473436f6e74726163742e4552524f523a20546869732066756e6374696f6e206973207265737472696374656420746f2074686520636f6e74726163742773206f776e65724552524f523a205761697420756e74696c2074696d656c6f636b20706572696f64206973206f76657220746f206163636573732066756e6374696f6e616c6974792e4552524f523a20496e73756666696369656e74206372656469627974652062616c616e636520746f2072656465656d2ea264697066735822122056daa3b655cf259fdc6f6eca8245b154734c6162c6637fec4ee6e0a367ce8f8b64736f6c63430007000033",
  "linkReferences": {},
  "deployedLinkReferences": {}
}