{
  "_format": "hh-sol-artifact-1",
  "contractName": "HackerBot",
  "sourceName": "contracts/HackerBot.sol",
  "abi": [
    {
      "anonymous": false,
      "inputs": [
        {
          "indexed": true,
          "internalType": "address",
          "name": "tokenOwner",
          "type": "address"
        },
        {
          "indexed": true,
          "internalType": "address",
          "name": "spender",
          "type": "address"
        },
        {
          "indexed": false,
          "internalType": "uint256",
          "name": "tokens",
          "type": "uint256"
        }
      ],
      "name": "Approval",
      "type": "event"
    },
    {
      "anonymous": false,
      "inputs": [
        {
          "indexed": true,
          "internalType": "address",
          "name": "promoter",
          "type": "address"
        },
        {
          "indexed": true,
          "internalType": "address",
          "name": "newCoOwner",
          "type": "address"
        }
      ],
      "name": "NewCoOwner",
      "type": "event"
    },
    {
      "anonymous": false,
      "inputs": [
        {
          "indexed": true,
          "internalType": "address",
          "name": "from",
          "type": "address"
        },
        {
          "indexed": true,
          "internalType": "address",
          "name": "to",
          "type": "address"
        }
      ],
      "name": "OwnershipTransferred",
      "type": "event"
    },
    {
      "anonymous": false,
      "inputs": [
        {
          "indexed": true,
          "internalType": "address",
          "name": "revoker",
          "type": "address"
        },
        {
          "indexed": true,
          "internalType": "address",
          "name": "revokedCoOwner",
          "type": "address"
        }
      ],
      "name": "RevokedCoOwner",
      "type": "event"
    },
    {
      "anonymous": false,
      "inputs": [
        {
          "indexed": true,
          "internalType": "address",
          "name": "from",
          "type": "address"
        },
        {
          "indexed": true,
          "internalType": "address",
          "name": "to",
          "type": "address"
        },
        {
          "indexed": false,
          "internalType": "uint256",
          "name": "tokens",
          "type": "uint256"
        }
      ],
      "name": "Transfer",
      "type": "event"
    },
    {
      "anonymous": false,
      "inputs": [
        {
          "indexed": false,
          "internalType": "uint256",
          "name": "totalSupply",
          "type": "uint256"
        },
        {
          "indexed": false,
          "internalType": "uint256",
          "name": "amountDeleted",
          "type": "uint256"
        }
      ],
      "name": "deletedCredits",
      "type": "event"
    },
    {
      "anonymous": false,
      "inputs": [
        {
          "indexed": false,
          "internalType": "uint256",
          "name": "totalSupply",
          "type": "uint256"
        },
        {
          "indexed": false,
          "internalType": "address",
          "name": "generatedTo",
          "type": "address"
        },
        {
          "indexed": false,
          "internalType": "uint256",
          "name": "amountGenerated",
          "type": "uint256"
        }
      ],
      "name": "generatedCredits",
      "type": "event"
    },
    {
      "anonymous": false,
      "inputs": [
        {
          "indexed": true,
          "internalType": "address",
          "name": "user",
          "type": "address"
        },
        {
          "indexed": true,
          "internalType": "bool",
          "name": "isHacking",
          "type": "bool"
        },
        {
          "indexed": true,
          "internalType": "uint256",
          "name": "timeOfCancelation",
          "type": "uint256"
        }
      ],
      "name": "hackCancelation",
      "type": "event"
    },
    {
      "anonymous": false,
      "inputs": [
        {
          "indexed": true,
          "internalType": "address",
          "name": "user",
          "type": "address"
        },
        {
          "indexed": true,
          "internalType": "uint256",
          "name": "encryptedAmount",
          "type": "uint256"
        },
        {
          "indexed": true,
          "internalType": "uint256",
          "name": "hackCompletitionTime",
          "type": "uint256"
        }
      ],
      "name": "hackCommencement",
      "type": "event"
    },
    {
      "anonymous": false,
      "inputs": [
        {
          "indexed": true,
          "internalType": "address",
          "name": "user",
          "type": "address"
        },
        {
          "indexed": true,
          "internalType": "bool",
          "name": "hackCompletion",
          "type": "bool"
        },
        {
          "indexed": true,
          "internalType": "uint256",
          "name": "timeOfRedeption",
          "type": "uint256"
        }
      ],
      "name": "hackRedeption",
      "type": "event"
    },
    {
      "inputs": [
        {
          "internalType": "address",
          "name": "_user",
          "type": "address"
        }
      ],
      "name": "addCoOwner",
      "outputs": [],
      "stateMutability": "nonpayable",
      "type": "function"
    },
    {
      "inputs": [
        {
          "internalType": "address",
          "name": "_spender",
          "type": "address"
        },
        {
          "internalType": "uint256",
          "name": "_amount",
          "type": "uint256"
        }
      ],
      "name": "approve",
      "outputs": [
        {
          "internalType": "bool",
          "name": "success",
          "type": "bool"
        }
      ],
      "stateMutability": "nonpayable",
      "type": "function"
    },
    {
      "inputs": [
        {
          "internalType": "address",
          "name": "tokenOwner",
          "type": "address"
        }
      ],
      "name": "balanceOf",
      "outputs": [
        {
          "internalType": "uint256",
          "name": "creditBalance",
          "type": "uint256"
        }
      ],
      "stateMutability": "view",
      "type": "function"
    },
    {
      "inputs": [],
      "name": "cancelHack",
      "outputs": [
        {
          "internalType": "bool",
          "name": "success",
          "type": "bool"
        }
      ],
      "stateMutability": "nonpayable",
      "type": "function"
    },
    {
      "inputs": [
        {
          "internalType": "address",
          "name": "_approver",
          "type": "address"
        },
        {
          "internalType": "address",
          "name": "_approvee",
          "type": "address"
        },
        {
          "internalType": "uint256",
          "name": "_amount",
          "type": "uint256"
        }
      ],
      "name": "contractApprove",
      "outputs": [
        {
          "internalType": "bool",
          "name": "success",
          "type": "bool"
        }
      ],
      "stateMutability": "nonpayable",
      "type": "function"
    },
    {
      "inputs": [],
      "name": "creditsContract",
      "outputs": [
        {
          "internalType": "address",
          "name": "",
          "type": "address"
        }
      ],
      "stateMutability": "view",
      "type": "function"
    },
    {
      "inputs": [],
      "name": "decimals",
      "outputs": [
        {
          "internalType": "uint8",
          "name": "",
          "type": "uint8"
        }
      ],
      "stateMutability": "view",
      "type": "function"
    },
    {
      "inputs": [],
      "name": "decryptAll_And_Redeem",
      "outputs": [
        {
          "internalType": "bool",
          "name": "success",
          "type": "bool"
        }
      ],
      "stateMutability": "nonpayable",
      "type": "function"
    },
    {
      "inputs": [
        {
          "internalType": "uint256",
          "name": "decryptAmount",
          "type": "uint256"
        },
        {
          "internalType": "uint256",
          "name": "encryptAmount",
          "type": "uint256"
        }
      ],
      "name": "decryptPortion_And_beginNewHack",
      "outputs": [
        {
          "internalType": "uint256",
          "name": "decryptedAmount",
          "type": "uint256"
        },
        {
          "internalType": "uint256",
          "name": "encryptedAmount",
          "type": "uint256"
        },
        {
          "internalType": "bool",
          "name": "hasDecryptedCredits",
          "type": "bool"
        },
        {
          "internalType": "bool",
          "name": "hasEncryptedCredits",
          "type": "bool"
        },
        {
          "internalType": "bool",
          "name": "success",
          "type": "bool"
        }
      ],
      "stateMutability": "nonpayable",
      "type": "function"
    },
    {
      "inputs": [
        {
          "internalType": "uint256",
          "name": "_amount",
          "type": "uint256"
        }
      ],
      "name": "deleteCredits",
      "outputs": [
        {
          "internalType": "bool",
          "name": "success",
          "type": "bool"
        }
      ],
      "stateMutability": "nonpayable",
      "type": "function"
    },
    {
      "inputs": [
        {
          "internalType": "uint256",
          "name": "encryptAmount",
          "type": "uint256"
        }
      ],
      "name": "encrypt_And_Hack",
      "outputs": [
        {
          "internalType": "bool",
          "name": "success",
          "type": "bool"
        }
      ],
      "stateMutability": "nonpayable",
      "type": "function"
    },
    {
      "inputs": [
        {
          "internalType": "uint256",
          "name": "_amount",
          "type": "uint256"
        }
      ],
      "name": "generateCredits",
      "outputs": [
        {
          "internalType": "bool",
          "name": "success",
          "type": "bool"
        }
      ],
      "stateMutability": "nonpayable",
      "type": "function"
    },
    {
      "inputs": [
        {
          "internalType": "address",
          "name": "_address",
          "type": "address"
        }
      ],
      "name": "giveContractAccess",
      "outputs": [
        {
          "internalType": "bool",
          "name": "success",
          "type": "bool"
        },
        {
          "internalType": "bool",
          "name": "updatedStatus",
          "type": "bool"
        }
      ],
      "stateMutability": "nonpayable",
      "type": "function"
    },
    {
      "inputs": [],
      "name": "initialCreditsSupply",
      "outputs": [
        {
          "internalType": "uint256",
          "name": "",
          "type": "uint256"
        }
      ],
      "stateMutability": "view",
      "type": "function"
    },
    {
      "inputs": [],
      "name": "isPaused",
      "outputs": [
        {
          "internalType": "bool",
          "name": "",
          "type": "bool"
        }
      ],
      "stateMutability": "view",
      "type": "function"
    },
    {
      "inputs": [],
      "name": "name",
      "outputs": [
        {
          "internalType": "string",
          "name": "",
          "type": "string"
        }
      ],
      "stateMutability": "view",
      "type": "function"
    },
    {
      "inputs": [],
      "name": "owner",
      "outputs": [
        {
          "internalType": "address",
          "name": "",
          "type": "address"
        }
      ],
      "stateMutability": "view",
      "type": "function"
    },
    {
      "inputs": [],
      "name": "pauseContract",
      "outputs": [],
      "stateMutability": "nonpayable",
      "type": "function"
    },
    {
      "inputs": [],
      "name": "remainingUnheldCredits",
      "outputs": [
        {
          "internalType": "uint256",
          "name": "",
          "type": "uint256"
        }
      ],
      "stateMutability": "view",
      "type": "function"
    },
    {
      "inputs": [],
      "name": "resumeContract",
      "outputs": [],
      "stateMutability": "nonpayable",
      "type": "function"
    },
    {
      "inputs": [
        {
          "internalType": "address",
          "name": "_user",
          "type": "address"
        }
      ],
      "name": "revokeCoOwner",
      "outputs": [],
      "stateMutability": "nonpayable",
      "type": "function"
    },
    {
      "inputs": [],
      "name": "symbol",
      "outputs": [
        {
          "internalType": "string",
          "name": "",
          "type": "string"
        }
      ],
      "stateMutability": "view",
      "type": "function"
    },
    {
      "inputs": [],
      "name": "totalCreditsHeld",
      "outputs": [
        {
          "internalType": "uint256",
          "name": "",
          "type": "uint256"
        }
      ],
      "stateMutability": "view",
      "type": "function"
    },
    {
      "inputs": [],
      "name": "totalSupply",
      "outputs": [
        {
          "internalType": "uint256",
          "name": "totalSupply_includingDecimals",
          "type": "uint256"
        },
        {
          "internalType": "uint256",
          "name": "totalSupply_excludingDecimals",
          "type": "uint256"
        }
      ],
      "stateMutability": "view",
      "type": "function"
    },
    {
      "inputs": [
        {
          "internalType": "address",
          "name": "_to",
          "type": "address"
        },
        {
          "internalType": "uint256",
          "name": "_amount",
          "type": "uint256"
        }
      ],
      "name": "transfer",
      "outputs": [
        {
          "internalType": "bool",
          "name": "success",
          "type": "bool"
        }
      ],
      "stateMutability": "nonpayable",
      "type": "function"
    },
    {
      "inputs": [
        {
          "internalType": "address",
          "name": "_from",
          "type": "address"
        },
        {
          "internalType": "address",
          "name": "_to",
          "type": "address"
        },
        {
          "internalType": "uint256",
          "name": "_amount",
          "type": "uint256"
        }
      ],
      "name": "transferFrom",
      "outputs": [
        {
          "internalType": "bool",
          "name": "success",
          "type": "bool"
        }
      ],
      "stateMutability": "nonpayable",
      "type": "function"
    },
    {
      "inputs": [
        {
          "internalType": "address",
          "name": "_newOwner",
          "type": "address"
        }
      ],
      "name": "transferOwnership",
      "outputs": [],
      "stateMutability": "nonpayable",
      "type": "function"
    },
    {
      "inputs": [
        {
          "internalType": "address",
          "name": "tokenOwner",
          "type": "address"
        },
        {
          "internalType": "address",
          "name": "spender",
          "type": "address"
        }
      ],
      "name": "viewAllowance",
      "outputs": [
        {
          "internalType": "uint256",
          "name": "remaining",
          "type": "uint256"
        }
      ],
      "stateMutability": "view",
      "type": "function"
    },
    {
      "inputs": [],
      "name": "viewHack",
      "outputs": [
        {
          "internalType": "bool",
          "name": "currentlyHacking",
          "type": "bool"
        },
        {
          "internalType": "uint256",
          "name": "initalEncryptedBalance",
          "type": "uint256"
        },
        {
          "internalType": "uint256",
          "name": "encryptedBalance_afterHack",
          "type": "uint256"
        },
        {
          "internalType": "uint256",
          "name": "profitAfterHack",
          "type": "uint256"
        },
        {
          "internalType": "uint256",
          "name": "secondsRemaining",
          "type": "uint256"
        },
        {
          "internalType": "uint256",
          "name": "minutesRemaining",
          "type": "uint256"
        },
        {
          "internalType": "uint256",
          "name": "hoursRemaining",
          "type": "uint256"
        },
        {
          "internalType": "uint256",
          "name": "daysRemaining",
          "type": "uint256"
        }
      ],
      "stateMutability": "view",
      "type": "function"
    },
    {
      "stateMutability": "payable",
      "type": "receive"
    }
  ],
  "bytecode": "0x60c060405260076080819052664372656469747360c81b60a09081526200002891908162000127565b5060408051808201909152600580825264435244545360d81b6020909201918252620000579160089162000127565b5060098054601260ff19909116179081905560ff16600a90810a6301312d000290553480156200008657600080fd5b50336000818152600160208190526040808320805462ff00001960ff1990911684178116620100009081179092556006805460ff60a01b196001600160a01b0319918216909817979097169055600e805490961630178087556001600160a01b03908116865283862080549092169092179055600a54600b819055600c859055855482168552828520840155935490931682529190200154600d55620001c3565b828054600181600116156101000203166002900490600052602060002090601f016020900481019282601f106200016a57805160ff19168380011785556200019a565b828001600101855582156200019a579182015b828111156200019a5782518255916020019190600101906200017d565b50620001a8929150620001ac565b5090565b5b80821115620001a85760008155600101620001ad565b61284d80620001d36000396000f3fe6080604052600436106101c65760003560e01c806370a08231116100f7578063b187bd2611610095578063f2fde38b11610064578063f2fde38b146106a9578063f435205d146106dc578063f979940d146106f1578063fee8f93814610706576101d0565b8063b187bd2614610622578063c4bc5da514610637578063d47914211461064c578063f2e872a31461067f576101d0565b806395d89b41116100d157806395d89b41146105675780639b85b4891461057c578063a0477afb146105a6578063a9059cbb146105e9576101d0565b806370a082311461050a578063783ce3831461053d5780638da5cb5b14610552576101d0565b8063313ce567116101645780634c7e34cc1161013e5780634c7e34cc1461044b5780634ca62993146104755780634f56d402146104c2578063563a4024146104d7576101d0565b8063313ce567146103bb5780634393f6b7146103e6578063439766ce14610434576101d0565b806309e93fa8116101a057806309e93fa8146102dd57806316f0c9cf146102f257806318160ddd1461034a57806323b872dd14610378576101d0565b80630642bc41146101d557806306fdde0314610206578063095ea7b314610290576101d0565b366101d057600080fd5b600080fd5b3480156101e157600080fd5b506101ea610765565b604080516001600160a01b039092168252519081900360200190f35b34801561021257600080fd5b5061021b610774565b6040805160208082528351818301528351919283929083019185019080838360005b8381101561025557818101518382015260200161023d565b50505050905090810190601f1680156102825780820380516001836020036101000a031916815260200191505b509250505060405180910390f35b34801561029c57600080fd5b506102c9600480360360408110156102b357600080fd5b506001600160a01b03813516906020013561080a565b604080519115158252519081900360200190f35b3480156102e957600080fd5b506102c9610870565b3480156102fe57600080fd5b50610307610a1c565b6040805198151589526020890197909752878701959095526060870193909352608086019190915260a085015260c084015260e083015251908190036101000190f35b34801561035657600080fd5b5061035f610b4d565b6040805192835260208301919091528051918290030190f35b34801561038457600080fd5b506102c96004803603606081101561039b57600080fd5b506001600160a01b03813581169160208101359091169060400135610b71565b3480156103c757600080fd5b506103d0610d42565b6040805160ff9092168252519081900360200190f35b3480156103f257600080fd5b506104196004803603602081101561040957600080fd5b50356001600160a01b0316610d4b565b60408051921515835290151560208301528051918290030190f35b34801561044057600080fd5b50610449610e29565b005b34801561045757600080fd5b506102c96004803603602081101561046e57600080fd5b5035610ee0565b34801561048157600080fd5b506104b06004803603604081101561049857600080fd5b506001600160a01b038135811691602001351661101b565b60408051918252519081900360200190f35b3480156104ce57600080fd5b506102c961109c565b3480156104e357600080fd5b50610449600480360360208110156104fa57600080fd5b50356001600160a01b03166112b7565b34801561051657600080fd5b506104b06004803603602081101561052d57600080fd5b50356001600160a01b03166113fe565b34801561054957600080fd5b506104b061141d565b34801561055e57600080fd5b506101ea611423565b34801561057357600080fd5b5061021b611432565b34801561058857600080fd5b506102c96004803603602081101561059f57600080fd5b5035611493565b3480156105b257600080fd5b506102c9600480360360608110156105c957600080fd5b506001600160a01b03813581169160208101359091169060400135611716565b3480156105f557600080fd5b506102c96004803603604081101561060c57600080fd5b506001600160a01b038135169060200135611783565b34801561062e57600080fd5b506102c9611847565b34801561064357600080fd5b50610449611857565b34801561065857600080fd5b506104496004803603602081101561066f57600080fd5b50356001600160a01b0316611902565b34801561068b57600080fd5b506102c9600480360360208110156106a257600080fd5b5035611a03565b3480156106b557600080fd5b50610449600480360360208110156106cc57600080fd5b50356001600160a01b0316611b22565b3480156106e857600080fd5b506104b0611c42565b3480156106fd57600080fd5b506104b0611c48565b34801561071257600080fd5b506107366004803603604081101561072957600080fd5b5080359060200135611c4e565b604080519586526020860194909452911515848401521515606084015215156080830152519081900360a00190f35b600e546001600160a01b031681565b60078054604080516020601f60026000196101006001881615020190951694909404938401819004810282018101909252828152606093909290918301828280156108005780601f106107d557610100808354040283529160200191610800565b820191906000526020600020905b8154815290600101906020018083116107e357829003601f168201915b5050505050905090565b600654600090600160a01b900460ff1615156001141561085b5760405162461bcd60e51b81526004018080602001828103825260268152602001806127866026913960400191505060405180910390fd5b610866338484611fbf565b5060015b92915050565b600654600090600160a01b900460ff161515600114156108c15760405162461bcd60e51b81526004018080602001828103825260268152602001806127866026913960400191505060405180910390fd5b336000908152600160208190526040909120600c015460ff161515146109185760405162461bcd60e51b81526004018080602001828103825260228152602001806127646022913960400191505060405180910390fd5b336000908152600160205260409020600b015461097c576040805162461bcd60e51b815260206004820152601f60248201527f6e6f2066756e647320617661696c61626c6520696e204861636b6572426f7400604482015290519081900360640190fd5b3360009081526001602081905260408220600c8101805460ff19169055600b810180546002830181905590849055600a8201849055600d82019390935501546109c491612025565b3360008181526001602081905260408083209182019490945560028101829055600c01549251429360ff16151592917ff7449914973d52e685f1a1534cc1994021811117847d095c7996f61755c7b07491a450600190565b336000908152600160205260408120600c810154600a90910154829182918291829182918291829160ff1690610a7a610a616064610a5b846002612086565b906120df565b336000908152600160205260409020600a015490612025565b336000908152600160205260409020600a0154610a9f90606490610a5b906002612086565b336000908152600160205260409020600d0154610abc9042612121565b336000908152600160205260409020600d0154610ae090603c90610a5b9042612121565b336000908152600160205260409020600d0154610b0890603c90610a5b908290829042612121565b336000908152600160205260409020600d0154610b3590601890610a5b90603c9082908290829042612121565b969f959e50939c50919a509850965094509092509050565b600b546009546000918291610b6990829060ff16600a0a6120df565b915091509091565b600654600090600160a01b900460ff16151560011415610bc25760405162461bcd60e51b81526004018080602001828103825260268152602001806127866026913960400191505060405180910390fd5b6001600160a01b03841660009081526001602081905260409091200154821115610c1d5760405162461bcd60e51b815260040180806020018281038252602b81526020018061267d602b913960400191505060405180910390fd5b3360009081526001602090815260408083206001600160a01b0388168452600401909152902054821115610c98576040805162461bcd60e51b815260206004820152601e60248201527f696e73756666696369656e7420616c6c6f77616e63652c207265766572740000604482015290519081900360640190fd5b6001600160a01b038416600081815260016020818152604080842090920154338452828420948452600490940190529020541115610cd557600080fd5b3360009081526001602090815260408083206001600160a01b0388168452600401909152902054610d069083612121565b3360009081526001602090815260408083206001600160a01b0389168452600401909152902055610d38848484612163565b5060019392505050565b60095460ff1690565b336000908152600160208190526040822054829160ff909116151514610da25760405162461bcd60e51b815260040180806020018281038252603a8152602001806127ac603a913960400191505060405180910390fd5b6006546001600160a01b0384811691161415610def5760405162461bcd60e51b815260040180806020018281038252602e8152602001806125e8602e913960400191505060405180910390fd5b50506001600160a01b0381166000908152600160208190526040909120805462ff000019166201000090811791829055900460ff16915091565b3360009081526001602081905260409091205460ff16151514610e7d5760405162461bcd60e51b815260040180806020018281038252603a8152602001806127ac603a913960400191505060405180910390fd5b600654600160a01b900460ff16151560011415610ecb5760405162461bcd60e51b81526004018080602001828103825260238152602001806126396023913960400191505060405180910390fd5b6006805460ff60a01b1916600160a01b179055565b33600090815260016020819052604082205460ff16151514610f335760405162461bcd60e51b815260040180806020018281038252603a8152602001806127ac603a913960400191505060405180910390fd5b600e546001600160a01b031660009081526001602081905260409091200154821115610f5e57600080fd5b600e546001600160a01b031660009081526001602081905260409091200154610f879083612121565b600e546001600160a01b031660009081526001602081905260409091200155600b54610fb39083612121565b600b819055600e546001600160a01b031660009081526001602081815260409283902090910154600d558151928352820184905280517ff05f58153cc063e54e5286dc2b7fb3c007f046aa04454ebf6340c90cbd4a43889281900390910190a1506001919050565b600654600090600160a01b900460ff1615156001141561106c5760405162461bcd60e51b81526004018080602001828103825260268152602001806127866026913960400191505060405180910390fd5b506001600160a01b0391821660009081526001602090815260408083209390941682526004909201909152205490565b600654600090600160a01b900460ff161515600114156110ed5760405162461bcd60e51b81526004018080602001828103825260268152602001806127866026913960400191505060405180910390fd5b336000908152600160208190526040909120600c015460ff16151514611148576040805162461bcd60e51b815260206004820152600b60248201526a6e6f74206861636b696e6760a81b604482015290519081900360640190fd5b336000908152600160205260409020600b01546111965760405162461bcd60e51b81526004018080602001828103825260328152602001806127e66032913960400191505060405180910390fd5b336000908152600160205260409020600d01544210156111e75760405162461bcd60e51b815260040180806020018281038252606281526020018061251c6062913960800191505060405180910390fd5b336000908152600160205260409020600c8101805460ff19169055600b01546112359061121c90606490610a5b906002612086565b336000908152600160205260409020600b015490612025565b336000908152600160208190526040822060028101849055600b8101839055600a810192909255015461126791612025565b3360008181526001602081905260408083208083019590955560029094018290559251429392917f39a8a411fcb4f5b9ac95727052e4f37b13e61f7142cd2aa9a630f5c1bd84462391a450600190565b3360009081526001602081905260409091205460ff1615151461130b5760405162461bcd60e51b815260040180806020018281038252603a8152602001806127ac603a913960400191505060405180910390fd5b6001600160a01b038116600090815260016020819052604090912054610100900460ff1615151480159061135e57506001600160a01b03811660009081526001602081905260409091205460ff16151514155b6113af576040805162461bcd60e51b815260206004820152601f60248201527f4552524f523a20416c7265616479204f776e6572206f7220436f4f776e657200604482015290519081900360640190fd5b6001600160a01b038116600081815260016020526040808220805461ff0019166101001790555133917f9567d681b0fb3e97d5da2d86db4f96382314464e6c9906845540fa5ce9d171fa91a350565b6001600160a01b03166000908152600160208190526040909120015490565b600a5481565b6006546001600160a01b031681565b60088054604080516020601f60026000196101006001881615020190951694909404938401819004810282018101909252828152606093909290918301828280156108005780601f106107d557610100808354040283529160200191610800565b336000908152600160205260408120600c015460ff16156114e55760405162461bcd60e51b81526004018080602001828103825260578152602001806126a86057913960600191505060405180910390fd5b600654600160a01b900460ff161515600114156115335760405162461bcd60e51b81526004018080602001828103825260268152602001806127866026913960400191505060405180910390fd5b81611578576040805162461bcd60e51b815260206004820152601060248201526f063616e6e6f7420656e637279707420360841b604482015290519081900360640190fd5b33600090815260016020819052604090912001548211156115e0576040805162461bcd60e51b815260206004820152601f60248201527f696e73756666696369656e74206372656469747320746f20656e637279707400604482015290519081900360640190fd5b336000908152600160205260409020600d01544210156116315760405162461bcd60e51b815260040180806020018281038252606a81526020018061257e606a913960800191505060405180910390fd5b336000908152600160208190526040909120600c8101805460ff191683179055015461165d9083612121565b336000908152600160208190526040909120015561167e4262278d00612025565b336000908152600160205260409020600d810191909155600b01546116a39083612025565b336000908152600160205260409020600b810191909155600a01546116c89083612025565b33600081815260016020526040808220600a810194909455600d9093015492518592917f8158c40fbd3674a94ed098934a640bdaf6ebdbf4eeba4f095c92e41e21fe95f091a4506001919050565b33600090815260016020819052604082205462010000900460ff16151514611778576040805162461bcd60e51b815260206004820152601060248201526f4552524f523a204e6f2061636365737360801b604482015290519081900360640190fd5b610d38848484611fbf565b600654600090600160a01b900460ff161515600114156117d45760405162461bcd60e51b81526004018080602001828103825260268152602001806127866026913960400191505060405180910390fd5b336000908152600160208190526040909120015482111561183c576040805162461bcd60e51b815260206004820152601a60248201527f696e73756666696369656e742066756e64732c20726576657274000000000000604482015290519081900360640190fd5b610866338484612163565b600654600160a01b900460ff1681565b3360009081526001602081905260409091205460ff161515146118ab5760405162461bcd60e51b815260040180806020018281038252603a8152602001806127ac603a913960400191505060405180910390fd5b600654600160a01b900460ff166118f35760405162461bcd60e51b81526004018080602001828103825260248152602001806126ff6024913960400191505060405180910390fd5b6006805460ff60a01b19169055565b3360009081526001602081905260409091205460ff161515146119565760405162461bcd60e51b815260040180806020018281038252603a8152602001806127ac603a913960400191505060405180910390fd5b6001600160a01b038116600090815260016020819052604090912054610100900460ff161515146119b85760405162461bcd60e51b81526004018080602001828103825260238152602001806126166023913960400191505060405180910390fd5b6001600160a01b038116600081815260016020526040808220805461ff00191690555133917faeee6451fd32361c6db2e9a8f5b3199033efb01b3399674bfa78c7764bb13e5b91a350565b33600090815260016020819052604082205460ff16151514611a565760405162461bcd60e51b815260040180806020018281038252603a8152602001806127ac603a913960400191505060405180910390fd5b600e546001600160a01b031660009081526001602081905260409091200154611a7f9083612025565b600e546001600160a01b031660009081526001602081905260409091200155600b54611aab9083612025565b600b8190556006546001600160a01b0390811660009081526001602081815260409283902090910154600d55600e54825194855290921691830191909152818101849052517ff28643099acbbfb608d587e328fb2d61af52f9dfca2a1abb7b6cf2edf1a775f09181900360600190a1506001919050565b3360009081526001602081905260409091205460ff16151514611b765760405162461bcd60e51b815260040180806020018281038252603a8152602001806127ac603a913960400191505060405180910390fd5b6001600160a01b03811660009081526001602081905260409091205460ff1615151415611be1576040805162461bcd60e51b815260206004820152601460248201527322a92927a91d1020b63932b0b23c9037bbb732b960611b604482015290519081900360640190fd5b336000818152600160208190526040808320805460ff199081169091556001600160a01b03861680855282852080549092169093179055519092917f8be0079c531659141344cd1fd0a4f28419497f9722a3daafe3b4186f6b6457e091a350565b600c5481565b600d5481565b6000806000806000600660149054906101000a900460ff161515600115151415611ca95760405162461bcd60e51b81526004018080602001828103825260268152602001806127866026913960400191505060405180910390fd5b336000908152600160208190526040909120600c015460ff16151514611d005760405162461bcd60e51b81526004018080602001828103825260418152602001806127236041913960600191505060405180910390fd5b336000908152600160205260409020600d0154421015611d515760405162461bcd60e51b815260040180806020018281038252606281526020018061251c6062913960800191505060405180910390fd5b336000908152600160205260409020600b01548710611da15760405162461bcd60e51b815260040180806020018281038252603b8152602001806124e1603b913960400191505060405180910390fd5b3360009081526001602081905260409091200154861115611e09576040805162461bcd60e51b815260206004820152601f60248201527f696e73756666696369656e74206372656469747320746f20656e637279707400604482015290519081900360640190fd5b600080611e194262278d00612025565b336000908152600160205260409020600d01558815611eb957336000908152600160205260409020600b0154611e4f908a612121565b336000908152600160205260409020600b810191909155600a0154611e74908a612121565b336000908152600160208190526040909120600a8101929092550154611e9a908a612025565b3360009081526001602081905260409091208101919091559050611ebd565b5060005b8715611f8f57336000908152600160208190526040909120600c8101805460ff1916831790550154611eef9089612121565b33600090815260016020819052604090912090810191909155600b0154611f169089612025565b336000908152600160205260409020600b810191909155600a0154611f3b9089612025565b336000818152600160208190526040808320600a810195909555600d850154600b90950154905191965092917f8158c40fbd3674a94ed098934a640bdaf6ebdbf4eeba4f095c92e41e21fe95f091a4611fac565b336000908152600160205260408120600c01805460ff1916905591505b5096979596509194909350600192509050565b6001600160a01b0380841660008181526001602090815260408083209487168084526004909501825291829020859055815185815291517f8c5be1e5ebec7d5bd14f71427d1e84f3dd0314c0f7b2291e5b200ac8c7c3b9259281900390910190a3505050565b60008282018381101561207f576040805162461bcd60e51b815260206004820152601b60248201527f536166654d6174683a206164646974696f6e206f766572666c6f770000000000604482015290519081900360640190fd5b9392505050565b6000826120955750600061086a565b828202828482816120a257fe5b041461207f5760405162461bcd60e51b815260040180806020018281038252602181526020018061265c6021913960400191505060405180910390fd5b600061207f83836040518060400160405280601a81526020017f536166654d6174683a206469766973696f6e206279207a65726f0000000000008152506123e4565b600061207f83836040518060400160405280601e81526020017f536166654d6174683a207375627472616374696f6e206f766572666c6f770000815250612486565b600654600160a01b900460ff161515600114156121b15760405162461bcd60e51b81526004018080602001828103825260268152602001806127866026913960400191505060405180910390fd5b600e546001600160a01b038481169116141561226e576001600160a01b038316600090815260016020819052604090912001546121ee9082612121565b6001600160a01b03808516600090815260016020819052604080832082019490945591851681529190912001546122259082612025565b6001600160a01b0380841660009081526001602081905260408083208201949094556006549092168152919091200154600d819055600b5461226691612025565b600c5561239f565b600e546001600160a01b0383811691161415612323576001600160a01b038316600090815260016020819052604090912001546122ab9082612121565b6001600160a01b03808516600090815260016020819052604080832082019490945591851681529190912001546122e29082612025565b6001600160a01b0380841660009081526001602081905260408083208201949094556006549092168152919091200154600d819055600b5461226691612121565b6001600160a01b0383166000908152600160208190526040909120015461234a9082612121565b6001600160a01b03808516600090815260016020819052604080832082019490945591851681529190912001546123819082612025565b6001600160a01b038316600090815260016020819052604090912001555b6040805182815290516001600160a01b0384169133917fddf252ad1be2c89b69c2b068fc378daa952ba7f163c4a11628f55a4df523b3ef9181900360200190a3505050565b600081836124705760405162461bcd60e51b81526004018080602001828103825283818151815260200191508051906020019080838360005b8381101561243557818101518382015260200161241d565b50505050905090810190601f1680156124625780820380516001836020036101000a031916815260200191505b509250505060405180910390fd5b50600083858161247c57fe5b0495945050505050565b600081848411156124d85760405162461bcd60e51b815260206004820181815283516024840152835190928392604490910191908501908083836000831561243557818101518382015260200161241d565b50505090039056fe63616e6e6f74206465637279707420616c6c2066756e64732c206d75737420686176652066756e647320746f20626567696e206e6577206861636b4861636b6572426f742070726f677265737320696e636f6d706c6574652c207761697420666f7220636f6d706c65746974696f6e206f722061626f72742063757272656e74206861636b20696620796f75207769736820746f2077697468647261774861636b6572426f742070726f677265737320696e636f6d706c6574652c207761697420666f7220636f6d706c65746974696f6e206f722061626f72742063757272656e74206861636b20696620796f75207769736820746f20626567696e2061206e6577206861636b4552524f523a20556e61626c6520746f206769766520796f757273656c6620636f6e7472616374206163636573734552524f523a20557365722063757272656e746c79206e6f74206120436f4f776e65724552524f523a20416c7265616479207061757365642066756e6374696f6e616c697479536166654d6174683a206d756c7469706c69636174696f6e206f766572666c6f7766726f6d20616464726573732068617320696e73756666696369656e742066756e64732c207265766572744861636b20616c726561647920696e2070726f677265737321203a20756e61626c6520746f20616c746572206861636b206f6e636520636f6d6d656e636564202d206d7573742063616e63656c20746f206368616e67654552524f523a20416c726561647920726573756d65642066756e6374696f6e616c697479756e61626c6520746f20616c746572206861636b206f6e636520636f6d6d656e636564202d207365656b20746f2063616e63656c2063757272656e74206861636b4861636b6572426f742063757272656e746c79206973206e6f74206861636b696e674552524f523a2046756e6374696f6e2069732070617573656420627920746865206f776e65724552524f523a20546869732066756e6374696f6e206973207265737472696374656420746f2074686520636f6e74726163742773206f776e6572696e73756666696369656e74204861636b6572426f742066756e647320617661696c61626c6520746f207769746864726177a2646970667358221220df60526a966d970c2bb2cf07adadfc07c607a7270854365d2a1faf563c710c0064736f6c63430007000033",
  "linkReferences": {},
  "deployedLinkReferences": {}
}