{
  "_format": "hh-sol-artifact-1",
  "contractName": "SwapBot",
  "sourceName": "contracts/SwapBot.sol",
  "abi": [
    {
      "inputs": [
        {
          "internalType": "address",
          "name": "_feeAccount",
          "type": "address"
        },
        {
          "internalType": "uint256",
          "name": "_feePercent",
          "type": "uint256"
        }
      ],
      "stateMutability": "nonpayable",
      "type": "constructor"
    },
    {
      "anonymous": false,
      "inputs": [
        {
          "indexed": false,
          "internalType": "uint256",
          "name": "id",
          "type": "uint256"
        },
        {
          "indexed": false,
          "internalType": "address",
          "name": "user",
          "type": "address"
        },
        {
          "indexed": false,
          "internalType": "address",
          "name": "tokenGet",
          "type": "address"
        },
        {
          "indexed": false,
          "internalType": "uint256",
          "name": "amountGet",
          "type": "uint256"
        },
        {
          "indexed": false,
          "internalType": "address",
          "name": "tokenGive",
          "type": "address"
        },
        {
          "indexed": false,
          "internalType": "uint256",
          "name": "amountGive",
          "type": "uint256"
        },
        {
          "indexed": false,
          "internalType": "uint256",
          "name": "timestamp",
          "type": "uint256"
        }
      ],
      "name": "Cancel",
      "type": "event"
    },
    {
      "anonymous": false,
      "inputs": [
        {
          "indexed": false,
          "internalType": "address",
          "name": "token",
          "type": "address"
        },
        {
          "indexed": false,
          "internalType": "address",
          "name": "user",
          "type": "address"
        },
        {
          "indexed": false,
          "internalType": "uint256",
          "name": "amount",
          "type": "uint256"
        },
        {
          "indexed": false,
          "internalType": "uint256",
          "name": "balance",
          "type": "uint256"
        }
      ],
      "name": "Deposit",
      "type": "event"
    },
    {
      "anonymous": false,
      "inputs": [
        {
          "indexed": false,
          "internalType": "uint256",
          "name": "id",
          "type": "uint256"
        },
        {
          "indexed": false,
          "internalType": "address",
          "name": "user",
          "type": "address"
        },
        {
          "indexed": false,
          "internalType": "address",
          "name": "tokenGet",
          "type": "address"
        },
        {
          "indexed": false,
          "internalType": "uint256",
          "name": "amountGet",
          "type": "uint256"
        },
        {
          "indexed": false,
          "internalType": "address",
          "name": "tokenGive",
          "type": "address"
        },
        {
          "indexed": false,
          "internalType": "uint256",
          "name": "amountGive",
          "type": "uint256"
        },
        {
          "indexed": false,
          "internalType": "uint256",
          "name": "timestamp",
          "type": "uint256"
        }
      ],
      "name": "Order",
      "type": "event"
    },
    {
      "anonymous": false,
      "inputs": [
        {
          "indexed": false,
          "internalType": "uint256",
          "name": "id",
          "type": "uint256"
        },
        {
          "indexed": false,
          "internalType": "address",
          "name": "user",
          "type": "address"
        },
        {
          "indexed": false,
          "internalType": "address",
          "name": "tokenGet",
          "type": "address"
        },
        {
          "indexed": false,
          "internalType": "uint256",
          "name": "amountGet",
          "type": "uint256"
        },
        {
          "indexed": false,
          "internalType": "address",
          "name": "tokenGive",
          "type": "address"
        },
        {
          "indexed": false,
          "internalType": "uint256",
          "name": "amountGive",
          "type": "uint256"
        },
        {
          "indexed": false,
          "internalType": "address",
          "name": "userFill",
          "type": "address"
        },
        {
          "indexed": false,
          "internalType": "uint256",
          "name": "timestamp",
          "type": "uint256"
        }
      ],
      "name": "Trade",
      "type": "event"
    },
    {
      "anonymous": false,
      "inputs": [
        {
          "indexed": false,
          "internalType": "address",
          "name": "token",
          "type": "address"
        },
        {
          "indexed": false,
          "internalType": "address",
          "name": "user",
          "type": "address"
        },
        {
          "indexed": false,
          "internalType": "uint256",
          "name": "amount",
          "type": "uint256"
        },
        {
          "indexed": false,
          "internalType": "uint256",
          "name": "balance",
          "type": "uint256"
        }
      ],
      "name": "Withdraw",
      "type": "event"
    },
    {
      "stateMutability": "nonpayable",
      "type": "fallback"
    },
    {
      "inputs": [
        {
          "internalType": "address",
          "name": "_token",
          "type": "address"
        },
        {
          "internalType": "address",
          "name": "_user",
          "type": "address"
        }
      ],
      "name": "balanceOf",
      "outputs": [
        {
          "internalType": "uint256",
          "name": "",
          "type": "uint256"
        }
      ],
      "stateMutability": "view",
      "type": "function"
    },
    {
      "inputs": [
        {
          "internalType": "uint256",
          "name": "_id",
          "type": "uint256"
        }
      ],
      "name": "cancelOrder",
      "outputs": [],
      "stateMutability": "nonpayable",
      "type": "function"
    },
    {
      "inputs": [
        {
          "internalType": "address",
          "name": "",
          "type": "address"
        },
        {
          "internalType": "address",
          "name": "",
          "type": "address"
        }
      ],
      "name": "creditsAvailable",
      "outputs": [
        {
          "internalType": "uint256",
          "name": "",
          "type": "uint256"
        }
      ],
      "stateMutability": "view",
      "type": "function"
    },
    {
      "inputs": [
        {
          "internalType": "address",
          "name": "_token",
          "type": "address"
        },
        {
          "internalType": "uint256",
          "name": "_amount",
          "type": "uint256"
        }
      ],
      "name": "depositCredits",
      "outputs": [],
      "stateMutability": "nonpayable",
      "type": "function"
    },
    {
      "inputs": [],
      "name": "depositEther",
      "outputs": [],
      "stateMutability": "payable",
      "type": "function"
    },
    {
      "inputs": [],
      "name": "feeAccount",
      "outputs": [
        {
          "internalType": "address",
          "name": "",
          "type": "address"
        }
      ],
      "stateMutability": "view",
      "type": "function"
    },
    {
      "inputs": [],
      "name": "feePercent",
      "outputs": [
        {
          "internalType": "uint256",
          "name": "",
          "type": "uint256"
        }
      ],
      "stateMutability": "view",
      "type": "function"
    },
    {
      "inputs": [
        {
          "internalType": "uint256",
          "name": "_id",
          "type": "uint256"
        }
      ],
      "name": "fillOrder",
      "outputs": [],
      "stateMutability": "nonpayable",
      "type": "function"
    },
    {
      "inputs": [
        {
          "internalType": "address",
          "name": "_tokenGet",
          "type": "address"
        },
        {
          "internalType": "uint256",
          "name": "_amountGet",
          "type": "uint256"
        },
        {
          "internalType": "address",
          "name": "_tokenGive",
          "type": "address"
        },
        {
          "internalType": "uint256",
          "name": "_amountGive",
          "type": "uint256"
        }
      ],
      "name": "makeOrder",
      "outputs": [],
      "stateMutability": "nonpayable",
      "type": "function"
    },
    {
      "inputs": [
        {
          "internalType": "uint256",
          "name": "",
          "type": "uint256"
        }
      ],
      "name": "orderCancelled",
      "outputs": [
        {
          "internalType": "bool",
          "name": "",
          "type": "bool"
        }
      ],
      "stateMutability": "view",
      "type": "function"
    },
    {
      "inputs": [],
      "name": "orderCount",
      "outputs": [
        {
          "internalType": "uint256",
          "name": "",
          "type": "uint256"
        }
      ],
      "stateMutability": "view",
      "type": "function"
    },
    {
      "inputs": [
        {
          "internalType": "uint256",
          "name": "",
          "type": "uint256"
        }
      ],
      "name": "orderFilled",
      "outputs": [
        {
          "internalType": "bool",
          "name": "",
          "type": "bool"
        }
      ],
      "stateMutability": "view",
      "type": "function"
    },
    {
      "inputs": [
        {
          "internalType": "uint256",
          "name": "",
          "type": "uint256"
        }
      ],
      "name": "orders",
      "outputs": [
        {
          "internalType": "uint256",
          "name": "id",
          "type": "uint256"
        },
        {
          "internalType": "address",
          "name": "user",
          "type": "address"
        },
        {
          "internalType": "address",
          "name": "tokenGet",
          "type": "address"
        },
        {
          "internalType": "uint256",
          "name": "amountGet",
          "type": "uint256"
        },
        {
          "internalType": "address",
          "name": "tokenGive",
          "type": "address"
        },
        {
          "internalType": "uint256",
          "name": "amountGive",
          "type": "uint256"
        },
        {
          "internalType": "uint256",
          "name": "timestamp",
          "type": "uint256"
        }
      ],
      "stateMutability": "view",
      "type": "function"
    },
    {
      "inputs": [
        {
          "internalType": "address",
          "name": "_token",
          "type": "address"
        },
        {
          "internalType": "uint256",
          "name": "_amount",
          "type": "uint256"
        }
      ],
      "name": "withdrawCredits",
      "outputs": [],
      "stateMutability": "nonpayable",
      "type": "function"
    },
    {
      "inputs": [
        {
          "internalType": "uint256",
          "name": "_amount",
          "type": "uint256"
        }
      ],
      "name": "withdrawEther",
      "outputs": [],
      "stateMutability": "nonpayable",
      "type": "function"
    }
  ],
  "bytecode": "0x608060405234801561001057600080fd5b5060405161104a38038061104a8339818101604052604081101561003357600080fd5b508051602090910151600180546001600160a01b0319166001600160a01b0390931692909217909155600255610fdc8061006e6000396000f3fe6080604052600436106100e85760003560e01c806367b830ad1161008a578063a85c38ef11610059578063a85c38ef146102e6578063aedf997514610358578063e9c1896614610393578063f7888aec146103bd576100e8565b806367b830ad146102585780637fd6f15c1461028257806398ea5fca146102975780639a5c90aa1461029f576100e8565b80633d045486116100c65780633d045486146101865780634a93e0da146101bf578063514fcac7146101fd57806365e17c9d14610227576100e8565b80631409f160146100fa5780632453ffa8146101355780633bed33ce1461015c575b3480156100f457600080fd5b50600080fd5b34801561010657600080fd5b506101336004803603604081101561011d57600080fd5b506001600160a01b0381351690602001356103f8565b005b34801561014157600080fd5b5061014a6104ac565b60408051918252519081900360200190f35b34801561016857600080fd5b506101336004803603602081101561017f57600080fd5b50356104b2565b34801561019257600080fd5b50610133600480360360408110156101a957600080fd5b506001600160a01b0381351690602001356105b4565b3480156101cb57600080fd5b506101e9600480360360208110156101e257600080fd5b5035610698565b604080519115158252519081900360200190f35b34801561020957600080fd5b506101336004803603602081101561022057600080fd5b50356106ad565b34801561023357600080fd5b5061023c61077c565b604080516001600160a01b039092168252519081900360200190f35b34801561026457600080fd5b506101336004803603602081101561027b57600080fd5b503561078b565b34801561028e57600080fd5b5061014a610847565b61013361084d565b3480156102ab57600080fd5b50610133600480360360808110156102c257600080fd5b506001600160a01b03813581169160208101359160408201351690606001356108dc565b3480156102f257600080fd5b506103106004803603602081101561030957600080fd5b5035610a91565b604080519788526001600160a01b0396871660208901529486168786015260608701939093529316608085015260a084019290925260c0830191909152519081900360e00190f35b34801561036457600080fd5b5061014a6004803603604081101561037b57600080fd5b506001600160a01b0381358116916020013516610ade565b34801561039f57600080fd5b506101e9600480360360208110156103b657600080fd5b5035610afb565b3480156103c957600080fd5b5061014a600480360360408110156103e057600080fd5b506001600160a01b0381358116916020013516610b10565b6001600160a01b03821661040b57600080fd5b6001600160a01b03821660009081526003602090815260408083203384529091529020546104399082610b3d565b6001600160a01b03831660008181526003602090815260408083203380855290835292819020859055805193845290830191909152818101849052606082019290925290517fdcbc1c05240f31ff3ad067ef1ee35ce4997762752e3a095284754544f4c709d79181900360800190a15050565b60055481565b336000908152600080516020610f8783398151915260205260409020548111156104db57600080fd5b336000908152600080516020610f8783398151915260205260409020546105029082610b9e565b336000818152600080516020610f878339815191526020526040808220939093559151909183156108fc02918491818181858888f1935050505015801561054d573d6000803e3d6000fd5b50336000818152600080516020610f878339815191526020908152604080832054815193845291830193909352818301849052606082015290517ff341246adaac6f497bc2a656f546ab9e182111d630394f0c57c710a59a2cb5679181900360800190a150565b6001600160a01b0382166105c757600080fd5b6001600160a01b03821660009081526003602090815260408083203384529091529020548111156105f757600080fd5b6001600160a01b03821660009081526003602090815260408083203384529091529020546106259082610b9e565b6001600160a01b03831660008181526003602090815260408083203380855290835292819020859055805193845290830191909152818101849052606082019290925290517ff341246adaac6f497bc2a656f546ab9e182111d630394f0c57c710a59a2cb5679181900360800190a15050565b60076020526000908152604090205460ff1681565b600081815260046020526040902060018101546001600160a01b031633146106d457600080fd5b805482146106e157600080fd5b600082815260066020908152604091829020805460ff1916600117905582546002840154600385015460048601546005870154865194855233958501959095526001600160a01b0392831684870152606084019190915216608082015260a08101919091524260c082015290517f77de1da0be5f2d3b110d05c6694e5c4ff2d9da7cd23d84353ecf78c7b5acec619181900360e00190a15050565b6001546001600160a01b031681565b60008111801561079d57506005548111155b6107a657600080fd5b60008181526007602052604090205460ff16156107c257600080fd5b60008181526006602052604090205460ff16156107de57600080fd5b60008181526004602081905260409091208054600182015460028301546003840154948401546005850154949561082a956001600160a01b039485169493841693919290911690610be0565b546000908152600760205260409020805460ff1916600117905550565b60025481565b336000908152600080516020610f8783398151915260205260409020546108749034610b3d565b336000818152600080516020610f878339815191526020908152604080832085905580519283529082019290925234818301526060810192909252517fdcbc1c05240f31ff3ad067ef1ee35ce4997762752e3a095284754544f4c709d79181900360800190a1565b6005546108ea906001610b3d565b6005819055506040518060e001604052806005548152602001336001600160a01b03168152602001856001600160a01b03168152602001848152602001836001600160a01b03168152602001828152602001428152506004600060055481526020019081526020016000206000820151816000015560208201518160010160006101000a8154816001600160a01b0302191690836001600160a01b0316021790555060408201518160020160006101000a8154816001600160a01b0302191690836001600160a01b031602179055506060820151816003015560808201518160040160006101000a8154816001600160a01b0302191690836001600160a01b0316021790555060a0820151816005015560c082015181600601559050507f9d33853d43e3607b4cc01fdc78338ff2dca6fef7db9232dae6d3eb55fbc3b10960055433868686864260405180888152602001876001600160a01b03168152602001866001600160a01b03168152602001858152602001846001600160a01b0316815260200183815260200182815260200197505050505050505060405180910390a150505050565b6004602081905260009182526040909120805460018201546002830154600384015494840154600585015460069095015493956001600160a01b0393841695928416949093909116919087565b600360209081526000928352604080842090915290825290205481565b60066020526000908152604090205460ff1681565b6001600160a01b038083166000908152600360209081526040808320938516835292905220545b92915050565b600082820183811015610b97576040805162461bcd60e51b815260206004820152601b60248201527f536166654d6174683a206164646974696f6e206f766572666c6f770000000000604482015290519081900360640190fd5b9392505050565b6000610b9783836040518060400160405280601e81526020017f536166654d6174683a207375627472616374696f6e206f766572666c6f770000815250610dd3565b6000610c026064610bfc60025487610e6a90919063ffffffff16565b90610ec3565b9050610c3b610c118583610b3d565b6001600160a01b038716600090815260036020908152604080832033845290915290205490610b9e565b6001600160a01b0386811660009081526003602090815260408083203384529091528082209390935590881681522054610c759085610b3d565b6001600160a01b0386811660009081526003602090815260408083208b851684529091528082209390935560015490911681522054610cb49082610b3d565b6001600160a01b038087166000908152600360208181526040808420600154861685528252808420959095558784168352908152838220928a168252919091522054610d009083610b9e565b6001600160a01b038481166000908152600360209081526040808320938b16835292905281812092909255338252902054610d3b9083610b3d565b6001600160a01b03808516600081815260036020908152604080832033808552908352928190209590955584518c81528b8516918101919091529289168385015260608301889052608083019190915260a0820185905260c08201524260e082015290517f0dddf4182dc0fc1a311cb75f049c97403c6b8a99cf6b2229a36e7c526acb3f81918190036101000190a150505050505050565b60008184841115610e625760405162461bcd60e51b81526004018080602001828103825283818151815260200191508051906020019080838360005b83811015610e27578181015183820152602001610e0f565b50505050905090810190601f168015610e545780820380516001836020036101000a031916815260200191505b509250505060405180910390fd5b505050900390565b600082610e7957506000610b37565b82820282848281610e8657fe5b0414610b975760405162461bcd60e51b8152600401808060200182810382526021815260200180610f666021913960400191505060405180910390fd5b6000610b9783836040518060400160405280601a81526020017f536166654d6174683a206469766973696f6e206279207a65726f00000000000081525060008183610f4f5760405162461bcd60e51b8152602060048201818152835160248401528351909283926044909101919085019080838360008315610e27578181015183820152602001610e0f565b506000838581610f5b57fe5b049594505050505056fe536166654d6174683a206d756c7469706c69636174696f6e206f766572666c6f773617319a054d772f909f7c479a2cebe5066e836a939412e32403c99029b92effa2646970667358221220bf8d2cc37be61a20ecea2178480966cfca2c728220af53c44b1099c43b4c802664736f6c63430007000033",
  "linkReferences": {},
  "deployedLinkReferences": {}
}