{
  "_format": "hh-sol-artifact-1",
  "contractName": "Permissioned",
  "sourceName": "contracts/lib/Permissioned.sol",
  "abi": [
    {
      "inputs": [],
      "stateMutability": "nonpayable",
      "type": "constructor"
    },
    {
      "anonymous": false,
      "inputs": [
        {
          "indexed": true,
          "internalType": "address",
          "name": "promoter",
          "type": "address"
        },
        {
          "indexed": true,
          "internalType": "address",
          "name": "newCoOwner",
          "type": "address"
        }
      ],
      "name": "NewCoOwner",
      "type": "event"
    },
    {
      "anonymous": false,
      "inputs": [
        {
          "indexed": true,
          "internalType": "address",
          "name": "from",
          "type": "address"
        },
        {
          "indexed": true,
          "internalType": "address",
          "name": "to",
          "type": "address"
        }
      ],
      "name": "OwnershipTransferred",
      "type": "event"
    },
    {
      "anonymous": false,
      "inputs": [
        {
          "indexed": true,
          "internalType": "address",
          "name": "revoker",
          "type": "address"
        },
        {
          "indexed": true,
          "internalType": "address",
          "name": "revokedCoOwner",
          "type": "address"
        }
      ],
      "name": "RevokedCoOwner",
      "type": "event"
    },
    {
      "inputs": [
        {
          "internalType": "address",
          "name": "_user",
          "type": "address"
        }
      ],
      "name": "addCoOwner",
      "outputs": [],
      "stateMutability": "nonpayable",
      "type": "function"
    },
    {
      "inputs": [
        {
          "internalType": "address",
          "name": "_address",
          "type": "address"
        }
      ],
      "name": "giveContractAccess",
      "outputs": [
        {
          "internalType": "bool",
          "name": "success",
          "type": "bool"
        },
        {
          "internalType": "bool",
          "name": "updatedStatus",
          "type": "bool"
        }
      ],
      "stateMutability": "nonpayable",
      "type": "function"
    },
    {
      "inputs": [],
      "name": "isPaused",
      "outputs": [
        {
          "internalType": "bool",
          "name": "",
          "type": "bool"
        }
      ],
      "stateMutability": "view",
      "type": "function"
    },
    {
      "inputs": [],
      "name": "owner",
      "outputs": [
        {
          "internalType": "address",
          "name": "",
          "type": "address"
        }
      ],
      "stateMutability": "view",
      "type": "function"
    },
    {
      "inputs": [],
      "name": "pauseContract",
      "outputs": [],
      "stateMutability": "nonpayable",
      "type": "function"
    },
    {
      "inputs": [],
      "name": "resumeContract",
      "outputs": [],
      "stateMutability": "nonpayable",
      "type": "function"
    },
    {
      "inputs": [
        {
          "internalType": "address",
          "name": "_user",
          "type": "address"
        }
      ],
      "name": "revokeCoOwner",
      "outputs": [],
      "stateMutability": "nonpayable",
      "type": "function"
    },
    {
      "inputs": [
        {
          "internalType": "address",
          "name": "_newOwner",
          "type": "address"
        }
      ],
      "name": "transferOwnership",
      "outputs": [],
      "stateMutability": "nonpayable",
      "type": "function"
    }
  ],
  "bytecode": "0x608060405234801561001057600080fd5b50336000818152600160208190526040822080546201000060ff1990911690921762ff00001916919091179055600680546001600160a01b03191690921760ff60a01b191690915561086190819061006890396000f3fe608060405234801561001057600080fd5b50600436106100885760003560e01c8063b187bd261161005b578063b187bd2614610122578063c4bc5da51461013e578063d479142114610146578063f2fde38b1461016c57610088565b80634393f6b71461008d578063439766ce146100ce578063563a4024146100d85780638da5cb5b146100fe575b600080fd5b6100b3600480360360208110156100a357600080fd5b50356001600160a01b0316610192565b60408051921515835290151560208301528051918290030190f35b6100d6610270565b005b6100d6600480360360208110156100ee57600080fd5b50356001600160a01b0316610327565b61010661046e565b604080516001600160a01b039092168252519081900360200190f35b61012a61047d565b604080519115158252519081900360200190f35b6100d661048d565b6100d66004803603602081101561015c57600080fd5b50356001600160a01b0316610538565b6100d66004803603602081101561018257600080fd5b50356001600160a01b0316610639565b336000908152600160208190526040822054829160ff9091161515146101e95760405162461bcd60e51b815260040180806020018281038252603a8152602001806107f2603a913960400191505060405180910390fd5b6006546001600160a01b03848116911614156102365760405162461bcd60e51b815260040180806020018281038252602e81526020018061075a602e913960400191505060405180910390fd5b50506001600160a01b0381166000908152600160208190526040909120805462ff000019166201000090811791829055900460ff16915091565b3360009081526001602081905260409091205460ff161515146102c45760405162461bcd60e51b815260040180806020018281038252603a8152602001806107f2603a913960400191505060405180910390fd5b600654600160a01b900460ff161515600114156103125760405162461bcd60e51b81526004018080602001828103825260238152602001806107ab6023913960400191505060405180910390fd5b6006805460ff60a01b1916600160a01b179055565b3360009081526001602081905260409091205460ff1615151461037b5760405162461bcd60e51b815260040180806020018281038252603a8152602001806107f2603a913960400191505060405180910390fd5b6001600160a01b038116600090815260016020819052604090912054610100900460ff161515148015906103ce57506001600160a01b03811660009081526001602081905260409091205460ff16151514155b61041f576040805162461bcd60e51b815260206004820152601f60248201527f4552524f523a20416c7265616479204f776e6572206f7220436f4f776e657200604482015290519081900360640190fd5b6001600160a01b038116600081815260016020526040808220805461ff0019166101001790555133917f9567d681b0fb3e97d5da2d86db4f96382314464e6c9906845540fa5ce9d171fa91a350565b6006546001600160a01b031681565b600654600160a01b900460ff1681565b3360009081526001602081905260409091205460ff161515146104e15760405162461bcd60e51b815260040180806020018281038252603a8152602001806107f2603a913960400191505060405180910390fd5b600654600160a01b900460ff166105295760405162461bcd60e51b81526004018080602001828103825260248152602001806107ce6024913960400191505060405180910390fd5b6006805460ff60a01b19169055565b3360009081526001602081905260409091205460ff1615151461058c5760405162461bcd60e51b815260040180806020018281038252603a8152602001806107f2603a913960400191505060405180910390fd5b6001600160a01b038116600090815260016020819052604090912054610100900460ff161515146105ee5760405162461bcd60e51b81526004018080602001828103825260238152602001806107886023913960400191505060405180910390fd5b6001600160a01b038116600081815260016020526040808220805461ff00191690555133917faeee6451fd32361c6db2e9a8f5b3199033efb01b3399674bfa78c7764bb13e5b91a350565b3360009081526001602081905260409091205460ff1615151461068d5760405162461bcd60e51b815260040180806020018281038252603a8152602001806107f2603a913960400191505060405180910390fd5b6001600160a01b03811660009081526001602081905260409091205460ff16151514156106f8576040805162461bcd60e51b815260206004820152601460248201527322a92927a91d1020b63932b0b23c9037bbb732b960611b604482015290519081900360640190fd5b336000818152600160208190526040808320805460ff199081169091556001600160a01b03861680855282852080549092169093179055519092917f8be0079c531659141344cd1fd0a4f28419497f9722a3daafe3b4186f6b6457e091a35056fe4552524f523a20556e61626c6520746f206769766520796f757273656c6620636f6e7472616374206163636573734552524f523a20557365722063757272656e746c79206e6f74206120436f4f776e65724552524f523a20416c7265616479207061757365642066756e6374696f6e616c6974794552524f523a20416c726561647920726573756d65642066756e6374696f6e616c6974794552524f523a20546869732066756e6374696f6e206973207265737472696374656420746f2074686520636f6e74726163742773206f776e6572a2646970667358221220672131e843c7c3da3a48245ff880838361e8adcd3bc4a3883416457476450a9864736f6c63430007000033",
  "linkReferences": {},
  "deployedLinkReferences": {}
}