{
  "contractName": "HackerBot",
  "abi": [
    {
      "anonymous": false,
      "inputs": [
        {
          "indexed": true,
          "internalType": "address",
          "name": "tokenOwner",
          "type": "address"
        },
        {
          "indexed": true,
          "internalType": "address",
          "name": "spender",
          "type": "address"
        },
        {
          "indexed": false,
          "internalType": "uint256",
          "name": "tokens",
          "type": "uint256"
        }
      ],
      "name": "Approval",
      "type": "event"
    },
    {
      "anonymous": false,
      "inputs": [
        {
          "indexed": true,
          "internalType": "address",
          "name": "from",
          "type": "address"
        },
        {
          "indexed": true,
          "internalType": "address",
          "name": "to",
          "type": "address"
        }
      ],
      "name": "OwnershipTransferred",
      "type": "event"
    },
    {
      "anonymous": false,
      "inputs": [
        {
          "indexed": true,
          "internalType": "address",
          "name": "from",
          "type": "address"
        },
        {
          "indexed": true,
          "internalType": "address",
          "name": "to",
          "type": "address"
        },
        {
          "indexed": false,
          "internalType": "uint256",
          "name": "tokens",
          "type": "uint256"
        }
      ],
      "name": "Transfer",
      "type": "event"
    },
    {
      "inputs": [
        {
          "internalType": "address",
          "name": "tokenOwner",
          "type": "address"
        },
        {
          "internalType": "address",
          "name": "spender",
          "type": "address"
        }
      ],
      "name": "allowance",
      "outputs": [
        {
          "internalType": "uint256",
          "name": "remaining",
          "type": "uint256"
        }
      ],
      "stateMutability": "view",
      "type": "function"
    },
    {
      "inputs": [
        {
          "internalType": "address",
          "name": "spender",
          "type": "address"
        },
        {
          "internalType": "uint256",
          "name": "tokens",
          "type": "uint256"
        }
      ],
      "name": "approve",
      "outputs": [
        {
          "internalType": "bool",
          "name": "success",
          "type": "bool"
        }
      ],
      "stateMutability": "nonpayable",
      "type": "function"
    },
    {
      "inputs": [
        {
          "internalType": "address",
          "name": "tokenOwner",
          "type": "address"
        }
      ],
      "name": "balanceOf",
      "outputs": [
        {
          "internalType": "uint256",
          "name": "balance",
          "type": "uint256"
        }
      ],
      "stateMutability": "view",
      "type": "function"
    },
    {
      "inputs": [
        {
          "internalType": "uint256",
          "name": "tokens",
          "type": "uint256"
        }
      ],
      "name": "burn",
      "outputs": [
        {
          "internalType": "bool",
          "name": "success",
          "type": "bool"
        }
      ],
      "stateMutability": "nonpayable",
      "type": "function"
    },
    {
      "inputs": [],
      "name": "isPaused",
      "outputs": [
        {
          "internalType": "bool",
          "name": "",
          "type": "bool"
        }
      ],
      "stateMutability": "view",
      "type": "function"
    },
    {
      "inputs": [
        {
          "internalType": "address",
          "name": "tokenOwner",
          "type": "address"
        },
        {
          "internalType": "uint256",
          "name": "tokens",
          "type": "uint256"
        }
      ],
      "name": "mint",
      "outputs": [
        {
          "internalType": "bool",
          "name": "success",
          "type": "bool"
        }
      ],
      "stateMutability": "nonpayable",
      "type": "function"
    },
    {
      "inputs": [],
      "name": "owner",
      "outputs": [
        {
          "internalType": "address",
          "name": "",
          "type": "address"
        }
      ],
      "stateMutability": "view",
      "type": "function"
    },
    {
      "inputs": [],
      "name": "pauseContract",
      "outputs": [],
      "stateMutability": "nonpayable",
      "type": "function"
    },
    {
      "inputs": [],
      "name": "resumeContract",
      "outputs": [],
      "stateMutability": "nonpayable",
      "type": "function"
    },
    {
      "inputs": [],
      "name": "totalSupply",
      "outputs": [
        {
          "internalType": "uint256",
          "name": "",
          "type": "uint256"
        }
      ],
      "stateMutability": "view",
      "type": "function"
    },
    {
      "inputs": [
        {
          "internalType": "address",
          "name": "to",
          "type": "address"
        },
        {
          "internalType": "uint256",
          "name": "tokens",
          "type": "uint256"
        }
      ],
      "name": "transfer",
      "outputs": [
        {
          "internalType": "bool",
          "name": "success",
          "type": "bool"
        }
      ],
      "stateMutability": "nonpayable",
      "type": "function"
    },
    {
      "inputs": [
        {
          "internalType": "address",
          "name": "from",
          "type": "address"
        },
        {
          "internalType": "address",
          "name": "to",
          "type": "address"
        },
        {
          "internalType": "uint256",
          "name": "tokens",
          "type": "uint256"
        }
      ],
      "name": "transferFrom",
      "outputs": [
        {
          "internalType": "bool",
          "name": "success",
          "type": "bool"
        }
      ],
      "stateMutability": "nonpayable",
      "type": "function"
    },
    {
      "inputs": [
        {
          "internalType": "address",
          "name": "_newOwner",
          "type": "address"
        }
      ],
      "name": "transferOwnership",
      "outputs": [],
      "stateMutability": "nonpayable",
      "type": "function"
    },
    {
      "inputs": [
        {
          "internalType": "uint256",
          "name": "encryptAmount",
          "type": "uint256"
        }
      ],
      "name": "encrypt_And_Hack",
      "outputs": [
        {
          "internalType": "bool",
          "name": "success",
          "type": "bool"
        }
      ],
      "stateMutability": "nonpayable",
      "type": "function"
    },
    {
      "inputs": [],
      "name": "decrypt_And_Redeem",
      "outputs": [
        {
          "internalType": "bool",
          "name": "success",
          "type": "bool"
        }
      ],
      "stateMutability": "nonpayable",
      "type": "function"
    },
    {
      "inputs": [],
      "name": "abortHack",
      "outputs": [
        {
          "internalType": "bool",
          "name": "success",
          "type": "bool"
        }
      ],
      "stateMutability": "nonpayable",
      "type": "function"
    },
    {
      "inputs": [],
      "name": "viewHack",
      "outputs": [
        {
          "internalType": "uint256",
          "name": "initalEncryptedBalance",
          "type": "uint256"
        },
        {
          "internalType": "uint256",
          "name": "encryptedBalance_afterHack",
          "type": "uint256"
        },
        {
          "internalType": "uint256",
          "name": "profitAfterHack",
          "type": "uint256"
        },
        {
          "internalType": "uint256",
          "name": "secondsRemaining",
          "type": "uint256"
        },
        {
          "internalType": "uint256",
          "name": "minutesRemaining",
          "type": "uint256"
        },
        {
          "internalType": "uint256",
          "name": "hoursRemaining",
          "type": "uint256"
        },
        {
          "internalType": "uint256",
          "name": "daysRemaining",
          "type": "uint256"
        }
      ],
      "stateMutability": "view",
      "type": "function"
    }
  ],
  "bytecode": "0x6080604052336000806101000a81548173ffffffffffffffffffffffffffffffffffffffff021916908373ffffffffffffffffffffffffffffffffffffffff1602179055506040518060400160405280600781526020017f437265646974730000000000000000000000000000000000000000000000000081525060019080519060200190620000919291906200013e565b506040518060400160405280600481526020017f435244540000000000000000000000000000000000000000000000000000000081525060029080519060200190620000df9291906200013e565b506012600360006101000a81548160ff021916908360ff1602179055506acecb8f27f4200f3a0000006004556004546005819055506005546006819055506001600060146101000a81548160ff021916908315150217905550620001ed565b828054600181600116156101000203166002900490600052602060002090601f016020900481019282601f106200018157805160ff1916838001178555620001b2565b82800160010185558215620001b2579182015b82811115620001b157825182559160200191906001019062000194565b5b509050620001c19190620001c5565b5090565b620001ea91905b80821115620001e6576000816000905550600101620001cc565b5090565b90565b612e9480620001fd6000396000f3fe608060405234801561001057600080fd5b506004361061010b5760003560e01c80638da5cb5b116100a2578063b187bd2611610071578063b187bd2614610488578063c4bc5da5146104aa578063dd62ed3e146104b4578063f2fde38b1461052c578063feaaf87e146105705761010b565b80638da5cb5b146103705780639ac2f18e146103ba5780639b85b489146103dc578063a9059cbb146104225761010b565b806340c10f19116100de57806340c10f191461026257806342966c68146102c8578063439766ce1461030e57806370a08231146103185761010b565b8063095ea7b31461011057806316f0c9cf1461017657806318160ddd146101be57806323b872dd146101dc575b600080fd5b61015c6004803603604081101561012657600080fd5b81019080803573ffffffffffffffffffffffffffffffffffffffff16906020019092919080359060200190929190505050610592565b604051808215151515815260200191505060405180910390f35b61017e61070e565b6040518088815260200187815260200186815260200185815260200184815260200183815260200182815260200197505050505050505060405180910390f35b6101c6610a47565b6040518082815260200191505060405180910390f35b610248600480360360608110156101f257600080fd5b81019080803573ffffffffffffffffffffffffffffffffffffffff169060200190929190803573ffffffffffffffffffffffffffffffffffffffff16906020019092919080359060200190929190505050610a51565b604051808215151515815260200191505060405180910390f35b6102ae6004803603604081101561027857600080fd5b81019080803573ffffffffffffffffffffffffffffffffffffffff16906020019092919080359060200190929190505050610e60565b604051808215151515815260200191505060405180910390f35b6102f4600480360360208110156102de57600080fd5b8101908080359060200190929190505050611027565b604051808215151515815260200191505060405180910390f35b6103166111ed565b005b61035a6004803603602081101561032e57600080fd5b81019080803573ffffffffffffffffffffffffffffffffffffffff169060200190929190505050611339565b6040518082815260200191505060405180910390f35b610378611382565b604051808273ffffffffffffffffffffffffffffffffffffffff1673ffffffffffffffffffffffffffffffffffffffff16815260200191505060405180910390f35b6103c26113a7565b604051808215151515815260200191505060405180910390f35b610408600480360360208110156103f257600080fd5b81019080803590602001909291905050506118fa565b604051808215151515815260200191505060405180910390f35b61046e6004803603604081101561043857600080fd5b81019080803573ffffffffffffffffffffffffffffffffffffffff16906020019092919080359060200190929190505050611e89565b604051808215151515815260200191505060405180910390f35b610490612133565b604051808215151515815260200191505060405180910390f35b6104b2612146565b005b610516600480360360408110156104ca57600080fd5b81019080803573ffffffffffffffffffffffffffffffffffffffff169060200190929190803573ffffffffffffffffffffffffffffffffffffffff169060200190929190505050612291565b6040518082815260200191505060405180910390f35b61056e6004803603602081101561054257600080fd5b81019080803573ffffffffffffffffffffffffffffffffffffffff1690602001909291905050506123a2565b005b6105786125c8565b604051808215151515815260200191505060405180910390f35b600060011515600060149054906101000a900460ff161515141561061e576040517f08c379a000000000000000000000000000000000000000000000000000000000815260040180806020018281038252601f8152602001807f46756e6374696f6e2069732070617573656420627920746865206f776e65720081525060200191505060405180910390fd5b81600860003373ffffffffffffffffffffffffffffffffffffffff1673ffffffffffffffffffffffffffffffffffffffff16815260200190815260200160002060008573ffffffffffffffffffffffffffffffffffffffff1673ffffffffffffffffffffffffffffffffffffffff168152602001908152602001600020819055508273ffffffffffffffffffffffffffffffffffffffff163373ffffffffffffffffffffffffffffffffffffffff167f8c5be1e5ebec7d5bd14f71427d1e84f3dd0314c0f7b2291e5b200ac8c7c3b925846040518082815260200191505060405180910390a36001905092915050565b6000806000806000806000600f60003373ffffffffffffffffffffffffffffffffffffffff1673ffffffffffffffffffffffffffffffffffffffff168152602001908152602001600020546108106107c260646107b46002600f60003373ffffffffffffffffffffffffffffffffffffffff1673ffffffffffffffffffffffffffffffffffffffff16815260200190815260200160002054612a7390919063ffffffff16565b612b0990919063ffffffff16565b600f60003373ffffffffffffffffffffffffffffffffffffffff1673ffffffffffffffffffffffffffffffffffffffff16815260200190815260200160002054612b9290919063ffffffff16565b61087660646108686002600f60003373ffffffffffffffffffffffffffffffffffffffff1673ffffffffffffffffffffffffffffffffffffffff16815260200190815260200160002054612a7390919063ffffffff16565b612b0990919063ffffffff16565b6108c842600b60003373ffffffffffffffffffffffffffffffffffffffff1673ffffffffffffffffffffffffffffffffffffffff16815260200190815260200160002054612c1590919063ffffffff16565b61092d603c61091f42600b60003373ffffffffffffffffffffffffffffffffffffffff1673ffffffffffffffffffffffffffffffffffffffff16815260200190815260200160002054612c1590919063ffffffff16565b612b0990919063ffffffff16565b6109a5603c610997603c61098942600b60003373ffffffffffffffffffffffffffffffffffffffff1673ffffffffffffffffffffffffffffffffffffffff16815260200190815260200160002054612c1590919063ffffffff16565b612b0990919063ffffffff16565b612b0990919063ffffffff16565b610a306018610a22603c610a14603c610a0642600b60003373ffffffffffffffffffffffffffffffffffffffff1673ffffffffffffffffffffffffffffffffffffffff16815260200190815260200160002054612c1590919063ffffffff16565b612b0990919063ffffffff16565b612b0990919063ffffffff16565b612b0990919063ffffffff16565b965096509650965096509650965090919293949596565b6000600554905090565b600060011515600060149054906101000a900460ff1615151415610add576040517f08c379a000000000000000000000000000000000000000000000000000000000815260040180806020018281038252601f8152602001807f46756e6374696f6e2069732070617573656420627920746865206f776e65720081525060200191505060405180910390fd5b3373ffffffffffffffffffffffffffffffffffffffff168473ffffffffffffffffffffffffffffffffffffffff1614158015610b4557503373ffffffffffffffffffffffffffffffffffffffff168373ffffffffffffffffffffffffffffffffffffffff1614155b610bb7576040517f08c379a000000000000000000000000000000000000000000000000000000000815260040180806020018281038252601e8152602001807f756e61626c6520746f207472616e7366657220746f20796f757273656c66000081525060200191505060405180910390fd5b610c0982600760008773ffffffffffffffffffffffffffffffffffffffff1673ffffffffffffffffffffffffffffffffffffffff16815260200190815260200160002054612c1590919063ffffffff16565b600760008673ffffffffffffffffffffffffffffffffffffffff1673ffffffffffffffffffffffffffffffffffffffff16815260200190815260200160002081905550610cdb82600860008773ffffffffffffffffffffffffffffffffffffffff1673ffffffffffffffffffffffffffffffffffffffff16815260200190815260200160002060003373ffffffffffffffffffffffffffffffffffffffff1673ffffffffffffffffffffffffffffffffffffffff16815260200190815260200160002054612c1590919063ffffffff16565b600860008673ffffffffffffffffffffffffffffffffffffffff1673ffffffffffffffffffffffffffffffffffffffff16815260200190815260200160002060003373ffffffffffffffffffffffffffffffffffffffff1673ffffffffffffffffffffffffffffffffffffffff16815260200190815260200160002081905550610dad82600760008673ffffffffffffffffffffffffffffffffffffffff1673ffffffffffffffffffffffffffffffffffffffff16815260200190815260200160002054612b9290919063ffffffff16565b600760008573ffffffffffffffffffffffffffffffffffffffff1673ffffffffffffffffffffffffffffffffffffffff168152602001908152602001600020819055508273ffffffffffffffffffffffffffffffffffffffff168473ffffffffffffffffffffffffffffffffffffffff167fddf252ad1be2c89b69c2b068fc378daa952ba7f163c4a11628f55a4df523b3ef846040518082815260200191505060405180910390a3600190509392505050565b60008060009054906101000a900473ffffffffffffffffffffffffffffffffffffffff1673ffffffffffffffffffffffffffffffffffffffff163373ffffffffffffffffffffffffffffffffffffffff1614610f07576040517f08c379a0000000000000000000000000000000000000000000000000000000008152600401808060200182810382526033815260200180612e2c6033913960400191505060405180910390fd5b610f5982600760008673ffffffffffffffffffffffffffffffffffffffff1673ffffffffffffffffffffffffffffffffffffffff16815260200190815260200160002054612b9290919063ffffffff16565b600760008573ffffffffffffffffffffffffffffffffffffffff1673ffffffffffffffffffffffffffffffffffffffff16815260200190815260200160002081905550610fb182600554612b9290919063ffffffff16565b6005819055508273ffffffffffffffffffffffffffffffffffffffff16600073ffffffffffffffffffffffffffffffffffffffff167fddf252ad1be2c89b69c2b068fc378daa952ba7f163c4a11628f55a4df523b3ef846040518082815260200191505060405180910390a36001905092915050565b60008060009054906101000a900473ffffffffffffffffffffffffffffffffffffffff1673ffffffffffffffffffffffffffffffffffffffff163373ffffffffffffffffffffffffffffffffffffffff16146110ce576040517f08c379a0000000000000000000000000000000000000000000000000000000008152600401808060200182810382526033815260200180612e2c6033913960400191505060405180910390fd5b61112082600760003373ffffffffffffffffffffffffffffffffffffffff1673ffffffffffffffffffffffffffffffffffffffff16815260200190815260200160002054612c1590919063ffffffff16565b600760003373ffffffffffffffffffffffffffffffffffffffff1673ffffffffffffffffffffffffffffffffffffffff1681526020019081526020016000208190555061117882600554612c1590919063ffffffff16565b600581905550600073ffffffffffffffffffffffffffffffffffffffff163373ffffffffffffffffffffffffffffffffffffffff167fddf252ad1be2c89b69c2b068fc378daa952ba7f163c4a11628f55a4df523b3ef846040518082815260200191505060405180910390a360019050919050565b6000809054906101000a900473ffffffffffffffffffffffffffffffffffffffff1673ffffffffffffffffffffffffffffffffffffffff163373ffffffffffffffffffffffffffffffffffffffff1614611292576040517f08c379a0000000000000000000000000000000000000000000000000000000008152600401808060200182810382526033815260200180612e2c6033913960400191505060405180910390fd5b60011515600060149054906101000a900460ff161515141561131c576040517f08c379a000000000000000000000000000000000000000000000000000000000815260040180806020018281038252601c8152602001807f416c7265616479207061757365642066756e6374696f6e616c6974790000000081525060200191505060405180910390fd5b6001600060146101000a81548160ff021916908315150217905550565b6000600760008373ffffffffffffffffffffffffffffffffffffffff1673ffffffffffffffffffffffffffffffffffffffff168152602001908152602001600020549050919050565b6000809054906101000a900473ffffffffffffffffffffffffffffffffffffffff1681565b600060011515600060149054906101000a900460ff1615151415611433576040517f08c379a000000000000000000000000000000000000000000000000000000000815260040180806020018281038252601f8152602001807f46756e6374696f6e2069732070617573656420627920746865206f776e65720081525060200191505060405180910390fd5b60001515600c60003373ffffffffffffffffffffffffffffffffffffffff1673ffffffffffffffffffffffffffffffffffffffff16815260200190815260200160002060009054906101000a900460ff161515146114dc576040517f08c379a0000000000000000000000000000000000000000000000000000000008152600401808060200182810382526062815260200180612cdf6062913960800191505060405180910390fd5b6000600e60003373ffffffffffffffffffffffffffffffffffffffff1673ffffffffffffffffffffffffffffffffffffffff1681526020019081526020016000205411611574576040517f08c379a0000000000000000000000000000000000000000000000000000000008152600401808060200182810382526032815260200180612dfa6032913960400191505060405180910390fd5b600b60003373ffffffffffffffffffffffffffffffffffffffff1673ffffffffffffffffffffffffffffffffffffffff16815260200190815260200160002054600a60003373ffffffffffffffffffffffffffffffffffffffff1673ffffffffffffffffffffffffffffffffffffffff16815260200190815260200160002054101561164b576040517f08c379a0000000000000000000000000000000000000000000000000000000008152600401808060200182810382526062815260200180612cdf6062913960800191505060405180910390fd5b6117026116b460646116a66002600e60003373ffffffffffffffffffffffffffffffffffffffff1673ffffffffffffffffffffffffffffffffffffffff16815260200190815260200160002054612a7390919063ffffffff16565b612b0990919063ffffffff16565b600e60003373ffffffffffffffffffffffffffffffffffffffff1673ffffffffffffffffffffffffffffffffffffffff16815260200190815260200160002054612b9290919063ffffffff16565b600d60003373ffffffffffffffffffffffffffffffffffffffff1673ffffffffffffffffffffffffffffffffffffffff168152602001908152602001600020819055506000600e60003373ffffffffffffffffffffffffffffffffffffffff1673ffffffffffffffffffffffffffffffffffffffff1681526020019081526020016000208190555060001515600c60003373ffffffffffffffffffffffffffffffffffffffff1673ffffffffffffffffffffffffffffffffffffffff16815260200190815260200160002060009054906101000a9050505061186b600d60003373ffffffffffffffffffffffffffffffffffffffff1673ffffffffffffffffffffffffffffffffffffffff16815260200190815260200160002054600760003373ffffffffffffffffffffffffffffffffffffffff1673ffffffffffffffffffffffffffffffffffffffff16815260200190815260200160002054612b9290919063ffffffff16565b600760003373ffffffffffffffffffffffffffffffffffffffff1673ffffffffffffffffffffffffffffffffffffffff168152602001908152602001600020819055506000600d60003373ffffffffffffffffffffffffffffffffffffffff1673ffffffffffffffffffffffffffffffffffffffff168152602001908152602001600020819055506001905090565b600060011515600c60003373ffffffffffffffffffffffffffffffffffffffff1673ffffffffffffffffffffffffffffffffffffffff16815260200190815260200160002060009054906101000a900460ff16151514156119a6576040517f08c379a0000000000000000000000000000000000000000000000000000000008152600401808060200182810382526046815260200180612c996046913960600191505060405180910390fd5b60011515600060149054906101000a900460ff1615151415611a30576040517f08c379a000000000000000000000000000000000000000000000000000000000815260040180806020018281038252601f8152602001807f46756e6374696f6e2069732070617573656420627920746865206f776e65720081525060200191505060405180910390fd5b60001515600c60003373ffffffffffffffffffffffffffffffffffffffff1673ffffffffffffffffffffffffffffffffffffffff16815260200190815260200160002060009054906101000a900460ff16151514611ad9576040517f08c379a0000000000000000000000000000000000000000000000000000000008152600401808060200182810382526071815260200180612d896071913960800191505060405180910390fd5b6000600760003373ffffffffffffffffffffffffffffffffffffffff1673ffffffffffffffffffffffffffffffffffffffff168152602001908152602001600020541415611b8f576040517f08c379a00000000000000000000000000000000000000000000000000000000081526004018080602001828103825260158152602001807f6e6f206372656469747320746f20656e6372797074000000000000000000000081525060200191505060405180910390fd5b6001600c60003373ffffffffffffffffffffffffffffffffffffffff1673ffffffffffffffffffffffffffffffffffffffff16815260200190815260200160002060006101000a81548160ff021916908315150217905550611c3982600760003373ffffffffffffffffffffffffffffffffffffffff1673ffffffffffffffffffffffffffffffffffffffff16815260200190815260200160002054612c1590919063ffffffff16565b600760003373ffffffffffffffffffffffffffffffffffffffff1673ffffffffffffffffffffffffffffffffffffffff1681526020019081526020016000208190555042600a60003373ffffffffffffffffffffffffffffffffffffffff1673ffffffffffffffffffffffffffffffffffffffff1681526020019081526020016000205050611d1362278d00600a60003373ffffffffffffffffffffffffffffffffffffffff1673ffffffffffffffffffffffffffffffffffffffff16815260200190815260200160002054612b9290919063ffffffff16565b600b60003373ffffffffffffffffffffffffffffffffffffffff1673ffffffffffffffffffffffffffffffffffffffff16815260200190815260200160002081905550611da882600e60003373ffffffffffffffffffffffffffffffffffffffff1673ffffffffffffffffffffffffffffffffffffffff16815260200190815260200160002054612b9290919063ffffffff16565b600e60003373ffffffffffffffffffffffffffffffffffffffff1673ffffffffffffffffffffffffffffffffffffffff16815260200190815260200160002081905550611e3d82600f60003373ffffffffffffffffffffffffffffffffffffffff1673ffffffffffffffffffffffffffffffffffffffff16815260200190815260200160002054612b9290919063ffffffff16565b600f60003373ffffffffffffffffffffffffffffffffffffffff1673ffffffffffffffffffffffffffffffffffffffff1681526020019081526020016000208190555060019050919050565b600060011515600060149054906101000a900460ff1615151415611f15576040517f08c379a000000000000000000000000000000000000000000000000000000000815260040180806020018281038252601f8152602001807f46756e6374696f6e2069732070617573656420627920746865206f776e65720081525060200191505060405180910390fd5b3373ffffffffffffffffffffffffffffffffffffffff168373ffffffffffffffffffffffffffffffffffffffff161415611f9a576040517f08c379a0000000000000000000000000000000000000000000000000000000008152600401808060200182810382526026815260200180612d416026913960400191505060405180910390fd5b611fec82600760003373ffffffffffffffffffffffffffffffffffffffff1673ffffffffffffffffffffffffffffffffffffffff16815260200190815260200160002054612c1590919063ffffffff16565b600760003373ffffffffffffffffffffffffffffffffffffffff1673ffffffffffffffffffffffffffffffffffffffff1681526020019081526020016000208190555061208182600760008673ffffffffffffffffffffffffffffffffffffffff1673ffffffffffffffffffffffffffffffffffffffff16815260200190815260200160002054612b9290919063ffffffff16565b600760008573ffffffffffffffffffffffffffffffffffffffff1673ffffffffffffffffffffffffffffffffffffffff168152602001908152602001600020819055508273ffffffffffffffffffffffffffffffffffffffff163373ffffffffffffffffffffffffffffffffffffffff167fddf252ad1be2c89b69c2b068fc378daa952ba7f163c4a11628f55a4df523b3ef846040518082815260200191505060405180910390a36001905092915050565b600060149054906101000a900460ff1681565b6000809054906101000a900473ffffffffffffffffffffffffffffffffffffffff1673ffffffffffffffffffffffffffffffffffffffff163373ffffffffffffffffffffffffffffffffffffffff16146121eb576040517f08c379a0000000000000000000000000000000000000000000000000000000008152600401808060200182810382526033815260200180612e2c6033913960400191505060405180910390fd5b60001515600060149054906101000a900460ff1615151415612275576040517f08c379a000000000000000000000000000000000000000000000000000000000815260040180806020018281038252601d8152602001807f416c726561647920726573756d65642066756e6374696f6e616c69747900000081525060200191505060405180910390fd5b60008060146101000a81548160ff021916908315150217905550565b600060011515600060149054906101000a900460ff161515141561231d576040517f08c379a000000000000000000000000000000000000000000000000000000000815260040180806020018281038252601f8152602001807f46756e6374696f6e2069732070617573656420627920746865206f776e65720081525060200191505060405180910390fd5b600860008473ffffffffffffffffffffffffffffffffffffffff1673ffffffffffffffffffffffffffffffffffffffff16815260200190815260200160002060008373ffffffffffffffffffffffffffffffffffffffff1673ffffffffffffffffffffffffffffffffffffffff16815260200190815260200160002054905092915050565b6000809054906101000a900473ffffffffffffffffffffffffffffffffffffffff1673ffffffffffffffffffffffffffffffffffffffff163373ffffffffffffffffffffffffffffffffffffffff1614612447576040517f08c379a0000000000000000000000000000000000000000000000000000000008152600401808060200182810382526033815260200180612e2c6033913960400191505060405180910390fd5b6000809054906101000a900473ffffffffffffffffffffffffffffffffffffffff1673ffffffffffffffffffffffffffffffffffffffff168173ffffffffffffffffffffffffffffffffffffffff16141561250a576040517f08c379a000000000000000000000000000000000000000000000000000000000815260040180806020018281038252600d8152602001807f416c7265616479206f776e65720000000000000000000000000000000000000081525060200191505060405180910390fd5b8073ffffffffffffffffffffffffffffffffffffffff166000809054906101000a900473ffffffffffffffffffffffffffffffffffffffff1673ffffffffffffffffffffffffffffffffffffffff167f8be0079c531659141344cd1fd0a4f28419497f9722a3daafe3b4186f6b6457e060405160405180910390a3806000806101000a81548173ffffffffffffffffffffffffffffffffffffffff021916908373ffffffffffffffffffffffffffffffffffffffff16021790555050565b600060011515600060149054906101000a900460ff1615151415612654576040517f08c379a000000000000000000000000000000000000000000000000000000000815260040180806020018281038252601f8152602001807f46756e6374696f6e2069732070617573656420627920746865206f776e65720081525060200191505060405180910390fd5b60011515600c60003373ffffffffffffffffffffffffffffffffffffffff1673ffffffffffffffffffffffffffffffffffffffff16815260200190815260200160002060009054906101000a900460ff161515146126fd576040517f08c379a0000000000000000000000000000000000000000000000000000000008152600401808060200182810382526022815260200180612d676022913960400191505060405180910390fd5b6000600e60003373ffffffffffffffffffffffffffffffffffffffff1673ffffffffffffffffffffffffffffffffffffffff16815260200190815260200160002054116127b2576040517f08c379a000000000000000000000000000000000000000000000000000000000815260040180806020018281038252601f8152602001807f6e6f2066756e647320617661696c61626c6520696e204861636b6572426f740081525060200191505060405180910390fd5b60001515600c60003373ffffffffffffffffffffffffffffffffffffffff1673ffffffffffffffffffffffffffffffffffffffff16815260200190815260200160002060009054906101000a905050506000600a60003373ffffffffffffffffffffffffffffffffffffffff1673ffffffffffffffffffffffffffffffffffffffff16815260200190815260200160002050506000600b60003373ffffffffffffffffffffffffffffffffffffffff1673ffffffffffffffffffffffffffffffffffffffff1681526020019081526020016000205050600e60003373ffffffffffffffffffffffffffffffffffffffff1673ffffffffffffffffffffffffffffffffffffffff16815260200190815260200160002054600d60003373ffffffffffffffffffffffffffffffffffffffff1673ffffffffffffffffffffffffffffffffffffffff168152602001908152602001600020819055506000600e60003373ffffffffffffffffffffffffffffffffffffffff1673ffffffffffffffffffffffffffffffffffffffff168152602001908152602001600020819055506000600f60003373ffffffffffffffffffffffffffffffffffffffff1673ffffffffffffffffffffffffffffffffffffffff16815260200190815260200160002081905550612a26600d60003373ffffffffffffffffffffffffffffffffffffffff1673ffffffffffffffffffffffffffffffffffffffff16815260200190815260200160002054600760003373ffffffffffffffffffffffffffffffffffffffff1673ffffffffffffffffffffffffffffffffffffffff16815260200190815260200160002054612b9290919063ffffffff16565b506000600d60003373ffffffffffffffffffffffffffffffffffffffff1673ffffffffffffffffffffffffffffffffffffffff168152602001908152602001600020819055506001905090565b600081830290506000831480612a91575081838281612a8e57fe5b04145b612b03576040517f08c379a000000000000000000000000000000000000000000000000000000000815260040180806020018281038252600c8152602001807f4d756c206f766572666c6f77000000000000000000000000000000000000000081525060200191505060405180910390fd5b92915050565b6000808211612b80576040517f08c379a000000000000000000000000000000000000000000000000000000000815260040180806020018281038252600b8152602001807f446976696465206279203000000000000000000000000000000000000000000081525060200191505060405180910390fd5b818381612b8957fe5b04905092915050565b6000818301905082811015612c0f576040517f08c379a000000000000000000000000000000000000000000000000000000000815260040180806020018281038252600c8152602001807f416464206f766572666c6f77000000000000000000000000000000000000000081525060200191505060405180910390fd5b92915050565b600082821115612c8d576040517f08c379a000000000000000000000000000000000000000000000000000000000815260040180806020018281038252600d8152602001807f53756220756e646572666c6f770000000000000000000000000000000000000081525060200191505060405180910390fd5b81830390509291505056fe4861636b6572426f7420616c7265616479206861636b696e672c207761697420666f7220636f6d706c65746974696f6e206f722061626f72742063757272656e74206861636b4861636b6572426f742070726f677265737320696e636f6d706c6574652c207761697420666f7220636f6d706c65746974696f6e206f722061626f72742063757272656e74206861636b20696620796f75207769736820746f207769746864726177756e61626c6520746f207472616e73666572206372656469747320746f20796f757273656c664861636b6572426f742063757272656e746c79206973206e6f74206861636b696e674861636b6572426f742063616e206f6e6c79206861636b206f6e65206163636f756e7420617420612074696d652c207761697420666f7220636f6d706c65746974696f6e206f722061626f72742063757272656e74206861636b20696620796f75207769736820746f2072657374617274696e73756666696369656e74204861636b6572426f742066756e647320617661696c61626c6520746f207769746864726177546869732066756e6374696f6e206973207265737472696374656420746f2074686520636f6e74726163742773206f776e6572a2646970667358221220259a7f501c5981a4dfd61e8a4de5e28cbb63259ce3f11fc90bd1a0e911f8579864736f6c63430006060033",
  "immutableReferences": {},
  "source": "pragma solidity 0.6.6;\r\n\r\nimport \"./Credits.sol\";\r\n\r\ncontract HackerBot is Credits {\r\n\r\n    mapping(address => uint) timeOfHack;\r\n    mapping(address => uint) timeToFinishHack;\r\n    mapping(address => bool) isHacking;\r\n    mapping(address => uint) toTransfer;\r\n    mapping(address => uint) encryptedBalance;\r\n    mapping(address => uint) _initalEncryptedBalance;\r\n\r\n    modifier HackInProgress() {\r\n        require(isHacking[msg.sender] != true, \"HackerBot already hacking, wait for completition or abort current hack\");\r\n        _;\r\n    }\r\n\r\n    // Encrypted credits & transfer to HackerBot to hack & gain interest (Staking)\r\n    function encrypt_And_Hack(uint encryptAmount) external HackInProgress pauseFunction returns (bool success) {\r\n        require(isHacking[msg.sender] == false, \"HackerBot can only hack one account at a time, wait for completition or abort current hack if you wish to restart\");\r\n        require(creditBalances[msg.sender] != 0, \"no credits to encrypt\");\r\n        \r\n        isHacking[msg.sender] = true;\r\n        creditBalances[msg.sender] = creditBalances[msg.sender].sub(encryptAmount);\r\n        timeOfHack[msg.sender] == block.timestamp;\r\n        timeToFinishHack[msg.sender] = timeOfHack[msg.sender].add(30 days);\r\n\r\n        encryptedBalance[msg.sender] = encryptedBalance[msg.sender].add(encryptAmount);\r\n        _initalEncryptedBalance[msg.sender] = _initalEncryptedBalance[msg.sender].add(encryptAmount);\r\n        return true;\r\n    }\r\n    // Withdraw inital encrypted balance & HackerBot hacked funds (Unstake & Withdraw)\r\n    function decrypt_And_Redeem() external pauseFunction returns (bool success) {\r\n        require(isHacking[msg.sender] == false, \"HackerBot progress incomplete, wait for completition or abort current hack if you wish to withdraw\");\r\n        require(encryptedBalance[msg.sender] > 0, \"insufficient HackerBot funds available to withdraw\");\r\n        require(timeOfHack[msg.sender] >= timeToFinishHack[msg.sender], \"HackerBot progress incomplete, wait for completition or abort current hack if you wish to withdraw\");\r\n        \r\n        toTransfer[msg.sender] = ((encryptedBalance[msg.sender]).add((((encryptedBalance[msg.sender]).mul(2)).div(100))));\r\n        encryptedBalance[msg.sender] = 0;\r\n        isHacking[msg.sender] == false;\r\n\r\n        creditBalances[msg.sender] = creditBalances[msg.sender].add(toTransfer[msg.sender]);\r\n        toTransfer[msg.sender] = 0;\r\n        return true;\r\n    }\r\n    // Allows user to restart or cancel current hack\r\n    function abortHack() external pauseFunction returns (bool success) {\r\n        require(isHacking[msg.sender] == true, \"HackerBot currently is not hacking\");\r\n        require(encryptedBalance[msg.sender] > 0, \"no funds available in HackerBot\");\r\n        isHacking[msg.sender] == false;\r\n        timeOfHack[msg.sender] == 0;\r\n        timeToFinishHack[msg.sender] == 0;\r\n        toTransfer[msg.sender] = encryptedBalance[msg.sender];\r\n        encryptedBalance[msg.sender] = 0;\r\n        _initalEncryptedBalance[msg.sender] = 0;\r\n        creditBalances[msg.sender].add(toTransfer[msg.sender]);\r\n        toTransfer[msg.sender] = 0;\r\n        return true;\r\n    }\r\n    // --------[*Needs to be fixed, use a struct!]---------\r\n    function viewHack() external view returns (\r\n        uint initalEncryptedBalance, \r\n        uint encryptedBalance_afterHack,\r\n        uint profitAfterHack, \r\n        uint secondsRemaining, \r\n        uint minutesRemaining, \r\n        uint hoursRemaining, \r\n        uint daysRemaining) \r\n            {\r\n                return ( \r\n                    _initalEncryptedBalance[msg.sender],\r\n                    ((_initalEncryptedBalance[msg.sender]).add((((_initalEncryptedBalance[msg.sender]).mul(2)).div(100)))),\r\n                    (((_initalEncryptedBalance[msg.sender]).mul(2)).div(100)),\r\n                    ((timeToFinishHack[msg.sender]).sub(now)), \r\n                    (((timeToFinishHack[msg.sender]).sub(now)).div(60)), \r\n                    ((((timeToFinishHack[msg.sender]).sub(now)).div(60)).div(60)), \r\n                    (((((timeToFinishHack[msg.sender]).sub(now)).div(60)).div(60)).div(24))\r\n                );\r\n    }\r\n}",
  "sourcePath": "C:/Users/lucus/Desktop/Projects/CartelWeb/contracts/HackerBot.sol",
  "compiler": {
    "name": "solc",
    "version": "0.6.6+commit.6c089d02.Emscripten.clang"
  },
  "schemaVersion": "3.3.2",
  "updatedAt": "2020-11-30T03:51:49.666Z",
  "networkType": "ethereum",
  "devdoc": {
    "methods": {}
  },
  "userdoc": {
    "methods": {}
  }
}