{
  "contractName": "Permissioned",
  "abi": [
    {
      "anonymous": false,
      "inputs": [
        {
          "indexed": true,
          "internalType": "address",
          "name": "from",
          "type": "address"
        },
        {
          "indexed": true,
          "internalType": "address",
          "name": "to",
          "type": "address"
        }
      ],
      "name": "OwnershipTransferred",
      "type": "event"
    },
    {
      "inputs": [],
      "name": "isPaused",
      "outputs": [
        {
          "internalType": "bool",
          "name": "",
          "type": "bool"
        }
      ],
      "stateMutability": "view",
      "type": "function"
    },
    {
      "inputs": [],
      "name": "owner",
      "outputs": [
        {
          "internalType": "address",
          "name": "",
          "type": "address"
        }
      ],
      "stateMutability": "view",
      "type": "function"
    },
    {
      "inputs": [
        {
          "internalType": "address",
          "name": "_newOwner",
          "type": "address"
        }
      ],
      "name": "transferOwnership",
      "outputs": [],
      "stateMutability": "nonpayable",
      "type": "function"
    },
    {
      "inputs": [],
      "name": "pauseContract",
      "outputs": [],
      "stateMutability": "nonpayable",
      "type": "function"
    },
    {
      "inputs": [],
      "name": "resumeContract",
      "outputs": [],
      "stateMutability": "nonpayable",
      "type": "function"
    }
  ],
  "bytecode": "0x6080604052336000806101000a81548173ffffffffffffffffffffffffffffffffffffffff021916908373ffffffffffffffffffffffffffffffffffffffff16021790555034801561005057600080fd5b5061067e806100606000396000f3fe608060405234801561001057600080fd5b50600436106100575760003560e01c8063439766ce1461005c5780638da5cb5b14610066578063b187bd26146100b0578063c4bc5da5146100d2578063f2fde38b146100dc575b600080fd5b610064610120565b005b61006e61026c565b604051808273ffffffffffffffffffffffffffffffffffffffff1673ffffffffffffffffffffffffffffffffffffffff16815260200191505060405180910390f35b6100b8610291565b604051808215151515815260200191505060405180910390f35b6100da6102a4565b005b61011e600480360360208110156100f257600080fd5b81019080803573ffffffffffffffffffffffffffffffffffffffff1690602001909291905050506103ef565b005b6000809054906101000a900473ffffffffffffffffffffffffffffffffffffffff1673ffffffffffffffffffffffffffffffffffffffff163373ffffffffffffffffffffffffffffffffffffffff16146101c5576040517f08c379a00000000000000000000000000000000000000000000000000000000081526004018080602001828103825260338152602001806106166033913960400191505060405180910390fd5b60011515600060149054906101000a900460ff161515141561024f576040517f08c379a000000000000000000000000000000000000000000000000000000000815260040180806020018281038252601c8152602001807f416c7265616479207061757365642066756e6374696f6e616c6974790000000081525060200191505060405180910390fd5b6001600060146101000a81548160ff021916908315150217905550565b6000809054906101000a900473ffffffffffffffffffffffffffffffffffffffff1681565b600060149054906101000a900460ff1681565b6000809054906101000a900473ffffffffffffffffffffffffffffffffffffffff1673ffffffffffffffffffffffffffffffffffffffff163373ffffffffffffffffffffffffffffffffffffffff1614610349576040517f08c379a00000000000000000000000000000000000000000000000000000000081526004018080602001828103825260338152602001806106166033913960400191505060405180910390fd5b60001515600060149054906101000a900460ff16151514156103d3576040517f08c379a000000000000000000000000000000000000000000000000000000000815260040180806020018281038252601d8152602001807f416c726561647920726573756d65642066756e6374696f6e616c69747900000081525060200191505060405180910390fd5b60008060146101000a81548160ff021916908315150217905550565b6000809054906101000a900473ffffffffffffffffffffffffffffffffffffffff1673ffffffffffffffffffffffffffffffffffffffff163373ffffffffffffffffffffffffffffffffffffffff1614610494576040517f08c379a00000000000000000000000000000000000000000000000000000000081526004018080602001828103825260338152602001806106166033913960400191505060405180910390fd5b6000809054906101000a900473ffffffffffffffffffffffffffffffffffffffff1673ffffffffffffffffffffffffffffffffffffffff168173ffffffffffffffffffffffffffffffffffffffff161415610557576040517f08c379a000000000000000000000000000000000000000000000000000000000815260040180806020018281038252600d8152602001807f416c7265616479206f776e65720000000000000000000000000000000000000081525060200191505060405180910390fd5b8073ffffffffffffffffffffffffffffffffffffffff166000809054906101000a900473ffffffffffffffffffffffffffffffffffffffff1673ffffffffffffffffffffffffffffffffffffffff167f8be0079c531659141344cd1fd0a4f28419497f9722a3daafe3b4186f6b6457e060405160405180910390a3806000806101000a81548173ffffffffffffffffffffffffffffffffffffffff021916908373ffffffffffffffffffffffffffffffffffffffff1602179055505056fe546869732066756e6374696f6e206973207265737472696374656420746f2074686520636f6e74726163742773206f776e6572a26469706673582212202c167eef92ad1b8831c1c431ce50c06aef227c4ea944091e064af5be4f78c9a864736f6c63430006060033",
  "immutableReferences": {},
  "source": "pragma solidity 0.6.6;\r\n\r\nimport \"./SafeMath.sol\";\r\n\r\ncontract Permissioned {\r\n    address public owner = msg.sender;\r\n\r\n    event OwnershipTransferred(address indexed from, address indexed to);\r\n\r\n// ------------[ ownership functions ]---------------\r\n\r\n    modifier onlyOwner() {\r\n        require(msg.sender == owner, \"This function is restricted to the contract's owner\");\r\n        _;\r\n    }\r\n    \r\n    // Owner transfers ownership to new address\r\n    function transferOwnership(address _newOwner) public onlyOwner {\r\n        require(_newOwner != owner, \"Already owner\");\r\n        emit OwnershipTransferred(owner, _newOwner);\r\n        owner = _newOwner;\r\n    }\r\n\r\n// ------------ [ pause functions ] ---------------\r\n\r\n    // When true, function(s) are paused\r\n    bool public isPaused;\r\n\r\n    // On - Off feature to resume functionality\r\n    modifier pauseFunction {\r\n        require(isPaused != true, \"Function is paused by the owner\");\r\n        _;\r\n    }\r\n\r\n    // Owner pauses the contract - DISABLING functionality\r\n    function pauseContract() public onlyOwner {\r\n        require(isPaused != true, \"Already paused functionality\");\r\n        isPaused = true;\r\n    }\r\n\r\n    // Owner resumes the contract - ENABLING functionality\r\n    function resumeContract() public onlyOwner {\r\n        require(isPaused != false, \"Already resumed functionality\");\r\n        isPaused = false;\r\n    }\r\n}",
  "sourcePath": "C:\\Users\\lucus\\Desktop\\Projects\\CartelWeb\\contracts\\Permissioned.sol",
  "compiler": {
    "name": "solc",
    "version": "0.6.6+commit.6c089d02.Emscripten.clang"
  },
  "schemaVersion": "3.3.2",
  "updatedAt": "2020-11-30T03:51:49.693Z",
  "networkType": "ethereum",
  "devdoc": {
    "methods": {}
  },
  "userdoc": {
    "methods": {}
  }
}