{
  "contractName": "SwapBot",
  "abi": [
    {
      "anonymous": false,
      "inputs": [
        {
          "indexed": true,
          "internalType": "address",
          "name": "tokenOwner",
          "type": "address"
        },
        {
          "indexed": true,
          "internalType": "address",
          "name": "spender",
          "type": "address"
        },
        {
          "indexed": false,
          "internalType": "uint256",
          "name": "tokens",
          "type": "uint256"
        }
      ],
      "name": "Approval",
      "type": "event"
    },
    {
      "anonymous": false,
      "inputs": [
        {
          "indexed": true,
          "internalType": "address",
          "name": "from",
          "type": "address"
        },
        {
          "indexed": true,
          "internalType": "address",
          "name": "to",
          "type": "address"
        }
      ],
      "name": "OwnershipTransferred",
      "type": "event"
    },
    {
      "anonymous": false,
      "inputs": [
        {
          "indexed": true,
          "internalType": "address",
          "name": "from",
          "type": "address"
        },
        {
          "indexed": true,
          "internalType": "address",
          "name": "to",
          "type": "address"
        },
        {
          "indexed": false,
          "internalType": "uint256",
          "name": "tokens",
          "type": "uint256"
        }
      ],
      "name": "Transfer",
      "type": "event"
    },
    {
      "inputs": [
        {
          "internalType": "address",
          "name": "tokenOwner",
          "type": "address"
        },
        {
          "internalType": "address",
          "name": "spender",
          "type": "address"
        }
      ],
      "name": "allowance",
      "outputs": [
        {
          "internalType": "uint256",
          "name": "remaining",
          "type": "uint256"
        }
      ],
      "stateMutability": "view",
      "type": "function",
      "constant": true
    },
    {
      "inputs": [
        {
          "internalType": "address",
          "name": "spender",
          "type": "address"
        },
        {
          "internalType": "uint256",
          "name": "tokens",
          "type": "uint256"
        }
      ],
      "name": "approve",
      "outputs": [
        {
          "internalType": "bool",
          "name": "success",
          "type": "bool"
        }
      ],
      "stateMutability": "nonpayable",
      "type": "function"
    },
    {
      "inputs": [
        {
          "internalType": "address",
          "name": "tokenOwner",
          "type": "address"
        }
      ],
      "name": "balanceOf",
      "outputs": [
        {
          "internalType": "uint256",
          "name": "balance",
          "type": "uint256"
        }
      ],
      "stateMutability": "view",
      "type": "function",
      "constant": true
    },
    {
      "inputs": [
        {
          "internalType": "uint256",
          "name": "tokens",
          "type": "uint256"
        }
      ],
      "name": "burn",
      "outputs": [
        {
          "internalType": "bool",
          "name": "success",
          "type": "bool"
        }
      ],
      "stateMutability": "nonpayable",
      "type": "function"
    },
    {
      "inputs": [],
      "name": "isPaused",
      "outputs": [
        {
          "internalType": "bool",
          "name": "",
          "type": "bool"
        }
      ],
      "stateMutability": "view",
      "type": "function",
      "constant": true
    },
    {
      "inputs": [
        {
          "internalType": "address",
          "name": "tokenOwner",
          "type": "address"
        },
        {
          "internalType": "uint256",
          "name": "tokens",
          "type": "uint256"
        }
      ],
      "name": "mint",
      "outputs": [
        {
          "internalType": "bool",
          "name": "success",
          "type": "bool"
        }
      ],
      "stateMutability": "nonpayable",
      "type": "function"
    },
    {
      "inputs": [],
      "name": "owner",
      "outputs": [
        {
          "internalType": "address",
          "name": "",
          "type": "address"
        }
      ],
      "stateMutability": "view",
      "type": "function",
      "constant": true
    },
    {
      "inputs": [],
      "name": "pauseContract",
      "outputs": [],
      "stateMutability": "nonpayable",
      "type": "function"
    },
    {
      "inputs": [],
      "name": "resumeContract",
      "outputs": [],
      "stateMutability": "nonpayable",
      "type": "function"
    },
    {
      "inputs": [],
      "name": "totalSupply",
      "outputs": [
        {
          "internalType": "uint256",
          "name": "",
          "type": "uint256"
        }
      ],
      "stateMutability": "view",
      "type": "function",
      "constant": true
    },
    {
      "inputs": [
        {
          "internalType": "address",
          "name": "to",
          "type": "address"
        },
        {
          "internalType": "uint256",
          "name": "tokens",
          "type": "uint256"
        }
      ],
      "name": "transfer",
      "outputs": [
        {
          "internalType": "bool",
          "name": "success",
          "type": "bool"
        }
      ],
      "stateMutability": "nonpayable",
      "type": "function"
    },
    {
      "inputs": [
        {
          "internalType": "address",
          "name": "from",
          "type": "address"
        },
        {
          "internalType": "address",
          "name": "to",
          "type": "address"
        },
        {
          "internalType": "uint256",
          "name": "tokens",
          "type": "uint256"
        }
      ],
      "name": "transferFrom",
      "outputs": [
        {
          "internalType": "bool",
          "name": "success",
          "type": "bool"
        }
      ],
      "stateMutability": "nonpayable",
      "type": "function"
    },
    {
      "inputs": [
        {
          "internalType": "address",
          "name": "_newOwner",
          "type": "address"
        }
      ],
      "name": "transferOwnership",
      "outputs": [],
      "stateMutability": "nonpayable",
      "type": "function"
    },
    {
      "inputs": [],
      "name": "exchange_Eth_To_Credits",
      "outputs": [
        {
          "internalType": "bool",
          "name": "success",
          "type": "bool"
        }
      ],
      "stateMutability": "payable",
      "type": "function",
      "payable": true
    },
    {
      "inputs": [
        {
          "internalType": "uint256",
          "name": "creditsAmount",
          "type": "uint256"
        }
      ],
      "name": "exchange_Credits_To_Eth",
      "outputs": [
        {
          "internalType": "bool",
          "name": "success",
          "type": "bool"
        }
      ],
      "stateMutability": "nonpayable",
      "type": "function"
    },
    {
      "inputs": [
        {
          "internalType": "uint256",
          "name": "newRate",
          "type": "uint256"
        }
      ],
      "name": "setConversionRate",
      "outputs": [
        {
          "internalType": "uint256",
          "name": "rate",
          "type": "uint256"
        }
      ],
      "stateMutability": "nonpayable",
      "type": "function"
    },
    {
      "inputs": [],
      "name": "conversionRate",
      "outputs": [
        {
          "internalType": "uint256",
          "name": "rate",
          "type": "uint256"
        }
      ],
      "stateMutability": "view",
      "type": "function",
      "constant": true
    }
  ],
  "bytecode": "0x6080604052336000806101000a81548173ffffffffffffffffffffffffffffffffffffffff021916908373ffffffffffffffffffffffffffffffffffffffff1602179055506040518060400160405280600781526020017f437265646974730000000000000000000000000000000000000000000000000081525060019080519060200190620000919291906200013e565b506040518060400160405280600481526020017f435244540000000000000000000000000000000000000000000000000000000081525060029080519060200190620000df9291906200013e565b506012600360006101000a81548160ff021916908360ff1602179055506acecb8f27f4200f3a0000006004556004546005819055506005546006819055506001600060146101000a81548160ff021916908315150217905550620001ed565b828054600181600116156101000203166002900490600052602060002090601f016020900481019282601f106200018157805160ff1916838001178555620001b2565b82800160010185558215620001b2579182015b82811115620001b157825182559160200191906001019062000194565b5b509050620001c19190620001c5565b5090565b620001ea91905b80821115620001e6576000816000905550600101620001cc565b5090565b90565b61230a80620001fd6000396000f3fe6080604052600436106100fe5760003560e01c806370a0823111610095578063b187bd2611610064578063b187bd26146104e0578063c4bc5da51461050f578063d2e8049414610526578063dd62ed3e14610575578063f2fde38b146105fa576100fe565b806370a08231146103865780637ffdf53e146103eb5780638da5cb5b14610416578063a9059cbb1461046d576100fe565b806340c10f19116100d157806340c10f191461025657806342966c68146102c9578063439766ce1461031c5780636d8d48eb14610333576100fe565b8063095ea7b31461010357806318160ddd1461017657806323b872dd146101a157806330b80ce414610234575b600080fd5b34801561010f57600080fd5b5061015c6004803603604081101561012657600080fd5b81019080803573ffffffffffffffffffffffffffffffffffffffff1690602001909291908035906020019092919050505061064b565b604051808215151515815260200191505060405180910390f35b34801561018257600080fd5b5061018b6107c7565b6040518082815260200191505060405180910390f35b3480156101ad57600080fd5b5061021a600480360360608110156101c457600080fd5b81019080803573ffffffffffffffffffffffffffffffffffffffff169060200190929190803573ffffffffffffffffffffffffffffffffffffffff169060200190929190803590602001909291905050506107d1565b604051808215151515815260200191505060405180910390f35b61023c610be0565b604051808215151515815260200191505060405180910390f35b34801561026257600080fd5b506102af6004803603604081101561027957600080fd5b81019080803573ffffffffffffffffffffffffffffffffffffffff16906020019092919080359060200190929190505050610eae565b604051808215151515815260200191505060405180910390f35b3480156102d557600080fd5b50610302600480360360208110156102ec57600080fd5b8101908080359060200190929190505050611075565b604051808215151515815260200191505060405180910390f35b34801561032857600080fd5b5061033161123b565b005b34801561033f57600080fd5b5061036c6004803603602081101561035657600080fd5b8101908080359060200190929190505050611387565b604051808215151515815260200191505060405180910390f35b34801561039257600080fd5b506103d5600480360360208110156103a957600080fd5b81019080803573ffffffffffffffffffffffffffffffffffffffff169060200190929190505050611724565b6040518082815260200191505060405180910390f35b3480156103f757600080fd5b5061040061176d565b6040518082815260200191505060405180910390f35b34801561042257600080fd5b5061042b611777565b604051808273ffffffffffffffffffffffffffffffffffffffff1673ffffffffffffffffffffffffffffffffffffffff16815260200191505060405180910390f35b34801561047957600080fd5b506104c66004803603604081101561049057600080fd5b81019080803573ffffffffffffffffffffffffffffffffffffffff1690602001909291908035906020019092919050505061179c565b604051808215151515815260200191505060405180910390f35b3480156104ec57600080fd5b506104f5611a46565b604051808215151515815260200191505060405180910390f35b34801561051b57600080fd5b50610524611a59565b005b34801561053257600080fd5b5061055f6004803603602081101561054957600080fd5b8101908080359060200190929190505050611ba4565b6040518082815260200191505060405180910390f35b34801561058157600080fd5b506105e46004803603604081101561059857600080fd5b81019080803573ffffffffffffffffffffffffffffffffffffffff169060200190929190803573ffffffffffffffffffffffffffffffffffffffff169060200190929190505050611cb7565b6040518082815260200191505060405180910390f35b34801561060657600080fd5b506106496004803603602081101561061d57600080fd5b81019080803573ffffffffffffffffffffffffffffffffffffffff169060200190929190505050611dc8565b005b600060011515600060149054906101000a900460ff16151514156106d7576040517f08c379a000000000000000000000000000000000000000000000000000000000815260040180806020018281038252601f8152602001807f46756e6374696f6e2069732070617573656420627920746865206f776e65720081525060200191505060405180910390fd5b81600860003373ffffffffffffffffffffffffffffffffffffffff1673ffffffffffffffffffffffffffffffffffffffff16815260200190815260200160002060008573ffffffffffffffffffffffffffffffffffffffff1673ffffffffffffffffffffffffffffffffffffffff168152602001908152602001600020819055508273ffffffffffffffffffffffffffffffffffffffff163373ffffffffffffffffffffffffffffffffffffffff167f8c5be1e5ebec7d5bd14f71427d1e84f3dd0314c0f7b2291e5b200ac8c7c3b925846040518082815260200191505060405180910390a36001905092915050565b6000600554905090565b600060011515600060149054906101000a900460ff161515141561085d576040517f08c379a000000000000000000000000000000000000000000000000000000000815260040180806020018281038252601f8152602001807f46756e6374696f6e2069732070617573656420627920746865206f776e65720081525060200191505060405180910390fd5b3373ffffffffffffffffffffffffffffffffffffffff168473ffffffffffffffffffffffffffffffffffffffff16141580156108c557503373ffffffffffffffffffffffffffffffffffffffff168373ffffffffffffffffffffffffffffffffffffffff1614155b610937576040517f08c379a000000000000000000000000000000000000000000000000000000000815260040180806020018281038252601e8152602001807f756e61626c6520746f207472616e7366657220746f20796f757273656c66000081525060200191505060405180910390fd5b61098982600760008773ffffffffffffffffffffffffffffffffffffffff1673ffffffffffffffffffffffffffffffffffffffff16815260200190815260200160002054611fee90919063ffffffff16565b600760008673ffffffffffffffffffffffffffffffffffffffff1673ffffffffffffffffffffffffffffffffffffffff16815260200190815260200160002081905550610a5b82600860008773ffffffffffffffffffffffffffffffffffffffff1673ffffffffffffffffffffffffffffffffffffffff16815260200190815260200160002060003373ffffffffffffffffffffffffffffffffffffffff1673ffffffffffffffffffffffffffffffffffffffff16815260200190815260200160002054611fee90919063ffffffff16565b600860008673ffffffffffffffffffffffffffffffffffffffff1673ffffffffffffffffffffffffffffffffffffffff16815260200190815260200160002060003373ffffffffffffffffffffffffffffffffffffffff1673ffffffffffffffffffffffffffffffffffffffff16815260200190815260200160002081905550610b2d82600760008673ffffffffffffffffffffffffffffffffffffffff1673ffffffffffffffffffffffffffffffffffffffff1681526020019081526020016000205461207190919063ffffffff16565b600760008573ffffffffffffffffffffffffffffffffffffffff1673ffffffffffffffffffffffffffffffffffffffff168152602001908152602001600020819055508273ffffffffffffffffffffffffffffffffffffffff168473ffffffffffffffffffffffffffffffffffffffff167fddf252ad1be2c89b69c2b068fc378daa952ba7f163c4a11628f55a4df523b3ef846040518082815260200191505060405180910390a3600190509392505050565b600060011515600060149054906101000a900460ff1615151415610c6c576040517f08c379a000000000000000000000000000000000000000000000000000000000815260040180806020018281038252601f8152602001807f46756e6374696f6e2069732070617573656420627920746865206f776e65720081525060200191505060405180910390fd5b60003411610cc5576040517f08c379a00000000000000000000000000000000000000000000000000000000081526004018080602001828103825260238152602001806122596023913960400191505060405180910390fd5b60003373ffffffffffffffffffffffffffffffffffffffff163111610d52576040517f08c379a00000000000000000000000000000000000000000000000000000000081526004018080602001828103825260198152602001807f696e73756666696369656e7420656e6f7567682066756e64730000000000000081525060200191505060405180910390fd5b610d95610d84670de0b6b3a7640000610d76600a54346120f490919063ffffffff16565b61218a90919063ffffffff16565b60065461207190919063ffffffff16565b600681905550610dde610dcd670de0b6b3a7640000610dbf600a54346120f490919063ffffffff16565b61218a90919063ffffffff16565b60055461207190919063ffffffff16565b600581905550610e64610e16670de0b6b3a7640000610e08600a54346120f490919063ffffffff16565b61218a90919063ffffffff16565b600760003373ffffffffffffffffffffffffffffffffffffffff1673ffffffffffffffffffffffffffffffffffffffff1681526020019081526020016000205461207190919063ffffffff16565b600760003373ffffffffffffffffffffffffffffffffffffffff1673ffffffffffffffffffffffffffffffffffffffff168152602001908152602001600020819055506001905090565b60008060009054906101000a900473ffffffffffffffffffffffffffffffffffffffff1673ffffffffffffffffffffffffffffffffffffffff163373ffffffffffffffffffffffffffffffffffffffff1614610f55576040517f08c379a00000000000000000000000000000000000000000000000000000000081526004018080602001828103825260338152602001806122a26033913960400191505060405180910390fd5b610fa782600760008673ffffffffffffffffffffffffffffffffffffffff1673ffffffffffffffffffffffffffffffffffffffff1681526020019081526020016000205461207190919063ffffffff16565b600760008573ffffffffffffffffffffffffffffffffffffffff1673ffffffffffffffffffffffffffffffffffffffff16815260200190815260200160002081905550610fff8260055461207190919063ffffffff16565b6005819055508273ffffffffffffffffffffffffffffffffffffffff16600073ffffffffffffffffffffffffffffffffffffffff167fddf252ad1be2c89b69c2b068fc378daa952ba7f163c4a11628f55a4df523b3ef846040518082815260200191505060405180910390a36001905092915050565b60008060009054906101000a900473ffffffffffffffffffffffffffffffffffffffff1673ffffffffffffffffffffffffffffffffffffffff163373ffffffffffffffffffffffffffffffffffffffff161461111c576040517f08c379a00000000000000000000000000000000000000000000000000000000081526004018080602001828103825260338152602001806122a26033913960400191505060405180910390fd5b61116e82600760003373ffffffffffffffffffffffffffffffffffffffff1673ffffffffffffffffffffffffffffffffffffffff16815260200190815260200160002054611fee90919063ffffffff16565b600760003373ffffffffffffffffffffffffffffffffffffffff1673ffffffffffffffffffffffffffffffffffffffff168152602001908152602001600020819055506111c682600554611fee90919063ffffffff16565b600581905550600073ffffffffffffffffffffffffffffffffffffffff163373ffffffffffffffffffffffffffffffffffffffff167fddf252ad1be2c89b69c2b068fc378daa952ba7f163c4a11628f55a4df523b3ef846040518082815260200191505060405180910390a360019050919050565b6000809054906101000a900473ffffffffffffffffffffffffffffffffffffffff1673ffffffffffffffffffffffffffffffffffffffff163373ffffffffffffffffffffffffffffffffffffffff16146112e0576040517f08c379a00000000000000000000000000000000000000000000000000000000081526004018080602001828103825260338152602001806122a26033913960400191505060405180910390fd5b60011515600060149054906101000a900460ff161515141561136a576040517f08c379a000000000000000000000000000000000000000000000000000000000815260040180806020018281038252601c8152602001807f416c7265616479207061757365642066756e6374696f6e616c6974790000000081525060200191505060405180910390fd5b6001600060146101000a81548160ff021916908315150217905550565b600060011515600060149054906101000a900460ff1615151415611413576040517f08c379a000000000000000000000000000000000000000000000000000000000815260040180806020018281038252601f8152602001807f46756e6374696f6e2069732070617573656420627920746865206f776e65720081525060200191505060405180910390fd5b6000600760003373ffffffffffffffffffffffffffffffffffffffff1673ffffffffffffffffffffffffffffffffffffffff1681526020019081526020016000205414156114ac576040517f08c379a00000000000000000000000000000000000000000000000000000000081526004018080602001828103825260248152602001806122146024913960400191505060405180910390fd5b81600760003373ffffffffffffffffffffffffffffffffffffffff1673ffffffffffffffffffffffffffffffffffffffff168152602001908152602001600020541015611561576040517f08c379a000000000000000000000000000000000000000000000000000000000815260040180806020018281038252601e8152602001807f696e73756666696369656e742066756e647320746f207769746864726177000081525060200191505060405180910390fd5b60008214156115d8576040517f08c379a00000000000000000000000000000000000000000000000000000000081526004018080602001828103825260148152602001807f756e61626c6520746f207769746864726177203000000000000000000000000081525060200191505060405180910390fd5b6115ed82600554611fee90919063ffffffff16565b60058190555061160882600654611fee90919063ffffffff16565b60068190555061166082600760003373ffffffffffffffffffffffffffffffffffffffff1673ffffffffffffffffffffffffffffffffffffffff16815260200190815260200160002054611fee90919063ffffffff16565b600760003373ffffffffffffffffffffffffffffffffffffffff1673ffffffffffffffffffffffffffffffffffffffff168152602001908152602001600020819055506116be670de0b6b3a7640000836120f490919063ffffffff16565b91503373ffffffffffffffffffffffffffffffffffffffff166108fc6116ef600a548561218a90919063ffffffff16565b9081150290604051600060405180830381858888f1935050505015801561171a573d6000803e3d6000fd5b5060019050919050565b6000600760008373ffffffffffffffffffffffffffffffffffffffff1673ffffffffffffffffffffffffffffffffffffffff168152602001908152602001600020549050919050565b6000600a54905090565b6000809054906101000a900473ffffffffffffffffffffffffffffffffffffffff1681565b600060011515600060149054906101000a900460ff1615151415611828576040517f08c379a000000000000000000000000000000000000000000000000000000000815260040180806020018281038252601f8152602001807f46756e6374696f6e2069732070617573656420627920746865206f776e65720081525060200191505060405180910390fd5b3373ffffffffffffffffffffffffffffffffffffffff168373ffffffffffffffffffffffffffffffffffffffff1614156118ad576040517f08c379a000000000000000000000000000000000000000000000000000000000815260040180806020018281038252602681526020018061227c6026913960400191505060405180910390fd5b6118ff82600760003373ffffffffffffffffffffffffffffffffffffffff1673ffffffffffffffffffffffffffffffffffffffff16815260200190815260200160002054611fee90919063ffffffff16565b600760003373ffffffffffffffffffffffffffffffffffffffff1673ffffffffffffffffffffffffffffffffffffffff1681526020019081526020016000208190555061199482600760008673ffffffffffffffffffffffffffffffffffffffff1673ffffffffffffffffffffffffffffffffffffffff1681526020019081526020016000205461207190919063ffffffff16565b600760008573ffffffffffffffffffffffffffffffffffffffff1673ffffffffffffffffffffffffffffffffffffffff168152602001908152602001600020819055508273ffffffffffffffffffffffffffffffffffffffff163373ffffffffffffffffffffffffffffffffffffffff167fddf252ad1be2c89b69c2b068fc378daa952ba7f163c4a11628f55a4df523b3ef846040518082815260200191505060405180910390a36001905092915050565b600060149054906101000a900460ff1681565b6000809054906101000a900473ffffffffffffffffffffffffffffffffffffffff1673ffffffffffffffffffffffffffffffffffffffff163373ffffffffffffffffffffffffffffffffffffffff1614611afe576040517f08c379a00000000000000000000000000000000000000000000000000000000081526004018080602001828103825260338152602001806122a26033913960400191505060405180910390fd5b60001515600060149054906101000a900460ff1615151415611b88576040517f08c379a000000000000000000000000000000000000000000000000000000000815260040180806020018281038252601d8152602001807f416c726561647920726573756d65642066756e6374696f6e616c69747900000081525060200191505060405180910390fd5b60008060146101000a81548160ff021916908315150217905550565b60008060009054906101000a900473ffffffffffffffffffffffffffffffffffffffff1673ffffffffffffffffffffffffffffffffffffffff163373ffffffffffffffffffffffffffffffffffffffff1614611c4b576040517f08c379a00000000000000000000000000000000000000000000000000000000081526004018080602001828103825260338152602001806122a26033913960400191505060405180910390fd5b81600a541415611ca6576040517f08c379a00000000000000000000000000000000000000000000000000000000081526004018080602001828103825260218152602001806122386021913960400191505060405180910390fd5b81600a81905550600a549050919050565b600060011515600060149054906101000a900460ff1615151415611d43576040517f08c379a000000000000000000000000000000000000000000000000000000000815260040180806020018281038252601f8152602001807f46756e6374696f6e2069732070617573656420627920746865206f776e65720081525060200191505060405180910390fd5b600860008473ffffffffffffffffffffffffffffffffffffffff1673ffffffffffffffffffffffffffffffffffffffff16815260200190815260200160002060008373ffffffffffffffffffffffffffffffffffffffff1673ffffffffffffffffffffffffffffffffffffffff16815260200190815260200160002054905092915050565b6000809054906101000a900473ffffffffffffffffffffffffffffffffffffffff1673ffffffffffffffffffffffffffffffffffffffff163373ffffffffffffffffffffffffffffffffffffffff1614611e6d576040517f08c379a00000000000000000000000000000000000000000000000000000000081526004018080602001828103825260338152602001806122a26033913960400191505060405180910390fd5b6000809054906101000a900473ffffffffffffffffffffffffffffffffffffffff1673ffffffffffffffffffffffffffffffffffffffff168173ffffffffffffffffffffffffffffffffffffffff161415611f30576040517f08c379a000000000000000000000000000000000000000000000000000000000815260040180806020018281038252600d8152602001807f416c7265616479206f776e65720000000000000000000000000000000000000081525060200191505060405180910390fd5b8073ffffffffffffffffffffffffffffffffffffffff166000809054906101000a900473ffffffffffffffffffffffffffffffffffffffff1673ffffffffffffffffffffffffffffffffffffffff167f8be0079c531659141344cd1fd0a4f28419497f9722a3daafe3b4186f6b6457e060405160405180910390a3806000806101000a81548173ffffffffffffffffffffffffffffffffffffffff021916908373ffffffffffffffffffffffffffffffffffffffff16021790555050565b600082821115612066576040517f08c379a000000000000000000000000000000000000000000000000000000000815260040180806020018281038252600d8152602001807f53756220756e646572666c6f770000000000000000000000000000000000000081525060200191505060405180910390fd5b818303905092915050565b60008183019050828110156120ee576040517f08c379a000000000000000000000000000000000000000000000000000000000815260040180806020018281038252600c8152602001807f416464206f766572666c6f77000000000000000000000000000000000000000081525060200191505060405180910390fd5b92915050565b60008183029050600083148061211257508183828161210f57fe5b04145b612184576040517f08c379a000000000000000000000000000000000000000000000000000000000815260040180806020018281038252600c8152602001807f4d756c206f766572666c6f77000000000000000000000000000000000000000081525060200191505060405180910390fd5b92915050565b6000808211612201576040517f08c379a000000000000000000000000000000000000000000000000000000000815260040180806020018281038252600b8152602001807f446976696465206279203000000000000000000000000000000000000000000081525060200191505060405180910390fd5b81838161220a57fe5b0490509291505056fe62616c616e636520697320656d7074792c20756e61626c6520746f207769746864726177756e61626c6520746f206368616e676520746f207468652073616d65207261746562616c616e636520697320656d7074792c20756e61626c6520746f206465706f736974756e61626c6520746f207472616e73666572206372656469747320746f20796f757273656c66546869732066756e6374696f6e206973207265737472696374656420746f2074686520636f6e74726163742773206f776e6572a26469706673582212207d05fa85c849c9d7b65769f674fdf3ed205a4b52e0f22dbe9b706c545ce4575c64736f6c63430006060033",
  "immutableReferences": {},
  "source": "pragma solidity 0.6.6;\r\n\r\nimport \"./Credits.sol\";\r\n\r\ncontract SwapBot is Credits {\r\n    uint _conversionRate;\r\n\r\n    function exchange_Eth_To_Credits() public payable pauseFunction returns(bool success) {\r\n        require(msg.value > 0 wei, \"balance is empty, unable to deposit\");\r\n        require(msg.sender.balance > 0 wei, \"insufficient enough funds\");\r\n        _totalSupplyHeld = _totalSupplyHeld.add((msg.value.mul(_conversionRate)).div(1000000000000000000));\r\n        _totalSupply = _totalSupply.add((msg.value.mul(_conversionRate)).div(1000000000000000000));\r\n        creditBalances[msg.sender] = creditBalances[msg.sender].add((msg.value.mul(_conversionRate)).div(1000000000000000000));\r\n        return true;\r\n    }\r\n    function exchange_Credits_To_Eth(uint creditsAmount) public pauseFunction returns(bool success) {\r\n        require(creditBalances[msg.sender] != 0, \"balance is empty, unable to withdraw\");\r\n        require(creditBalances[msg.sender] >= creditsAmount, \"insufficient funds to withdraw\");\r\n        require(creditsAmount != 0, \"unable to withdraw 0\");\r\n        _totalSupply = _totalSupply.sub(creditsAmount);\r\n        _totalSupplyHeld = _totalSupplyHeld.sub(creditsAmount);\r\n        creditBalances[msg.sender] = creditBalances[msg.sender].sub(creditsAmount);\r\n        creditsAmount = creditsAmount.mul(1000000000000000000);\r\n        msg.sender.transfer(creditsAmount.div(_conversionRate));\r\n        return true;\r\n    }\r\n    function setConversionRate(uint newRate) public onlyOwner returns(uint rate) {\r\n        require(_conversionRate != newRate, \"unable to change to the same rate\");\r\n        _conversionRate = newRate;\r\n        return _conversionRate;\r\n    } \r\n    function conversionRate() public view returns(uint rate) {\r\n        return _conversionRate;\r\n    }\r\n}",
  "sourcePath": "C:/Users/lucus/Desktop/Projects/CartelWeb/contracts/SwapBot.sol",
  "compiler": {
    "name": "solc",
    "version": "0.6.6+commit.6c089d02.Emscripten.clang"
  },
  "schemaVersion": "3.3.2",
  "updatedAt": "2020-11-30T03:51:49.714Z",
  "networkType": "ethereum",
  "devdoc": {
    "methods": {}
  },
  "userdoc": {
    "methods": {}
  }
}